:020000040800F2
:100000000006002045010008091500083D120008FF
:1000100015130008950C0008D12A00080000000004
:10002000000000000000000000000000711E000839
:10003000B90E0008000000007D1500081921000815
:100040005F0100085F0100085F0100085F01000810
:100050005F0100085F0100085F0100085F01000800
:100060005F0100085F0100085F0100085F010008F0
:100070005F0100085F0100085F0100085F010008E0
:100080005F0100085F010008550400085F010008D7
:100090005F0100085F0100085F0100085F010008C0
:1000A0005F0100085F0100085F0100085F010008B0
:1000B0005F0100085F0100085F0100085F010008A0
:1000C0005F0100085F0100085F0100085F01000890
:1000D0005F0100085F0100085F0100085F01000880
:1000E0005F0100085F0100085F0100085F01000870
:1000F0005F0100085F0100085F010008390800087F
:100100005F0100085F0100085F0100085F0100084F
:100110005F0100085F0100085F0100085F0100083F
:100120005F0100085F0100085F0100085F0100082F
:10013000DFF80CD000F042F9004800476D310008AC
:10014000000600200648804706480047FEE7FEE715
:10015000FEE7FEE7FEE7FEE7FEE7FEE7FEE7FEE777
:10016000D122000831010008202A04DB203A21FABC
:1001700002F00021704721FA02F3D040C2F12002C0
:10018000914008431946704740EA01039B0703D09A
:1001900009E008C9121F08C0042AFAD203E011F8C6
:1001A000013B00F8013B521EF9D2704730B50446BE
:1001B0000020034600E05B1C934203D2E05CCD5C70
:1001C000401BF8D030BD80EA010210B502F00043B8
:1001D000400022D04A001FD0010E01EB1261C0F393
:1001E0005600C2F3560240F4000042F40002A0FBA5
:1001F000022000047F39140400D0401C50EA124051
:1002000001D44000491EC2B20C0604EBD010401CC1
:100210004008802A02D003E0002010BD20F0010039
:10022000002900DA0020184310BD30B480EA010232
:1002300002F0004530F0004221F0004013D090B1B0
:10024000C30DD40DC2F31601C0F31600E41A41F435
:10025000000140F400027D34914201D3641C00E0AF
:100260004900002C02DA30BC002070474FF4000037
:100270000023914201D3891A034340084FEA410108
:10028000F7D151B1914202D14FF0004105E002D2C5
:100290004FF0010101E06FF0010103EBC45028446D
:1002A00030BC00F053B8C10F80EAE0700844CA07C0
:1002B0009623002100F053B800F0004220F00040E7
:1002C000C10DC0F3160040F400007F2901DA0020C0
:1002D0007047962903DCC1F19601C84001E09639C8
:1002E0008840002AF4D0404270472DE9F05F05466F
:1002F000002092469B4688460646814640241BE0E5
:100300002846414647462246FFF72EFF53465A46A7
:10031000C01A914110D311461846224600F060F8E9
:100320002D1A67EB01084F4622460120002100F0FC
:1003300057F817EB00094E41201EA4F10104DFDC41
:10034000484631462A464346BDE8F09F0029A8BFEB
:100350007047401C490008BF20F00100704710B4EE
:10036000B0FA80FC00FA0CF050EA010404BF10BCA3
:10037000704749B1CCF1200421FA04F411FA0CF1D0
:1003800018BF012121430843A3EB0C01CB1D4FEA09
:1003900000614FEA102042BF002010BC704700EB04
:1003A000C35010440029A4BF10BC7047401C490032
:1003B00008BF20F0010010BC70470000064C074D3C
:1003C00006E0E06840F0010394E807009847103425
:1003D000AC42F6D3FFF7B0FEE05D0008005E000817
:1003E000202A04DB203A00FA02F1002070479140F5
:1003F000C2F1200320FA03F319439040704770B50F
:100400008C1810F8015B15F0070301D110F8013BBF
:100410002A1106D110F8012B03E010F8016B01F846
:10042000016B5B1EF9D12B0705D40023521E0DD49E
:1004300001F8013BFAE710F8013BCB1A921C03E0EC
:1004400013F8015B01F8015B521EF9D5A142D8D324
:10045000002070BD10B54FF49061E04800F05FFAE5
:1004600020B14FF49061DD4800F016FA4FF490612E
:10047000DB4800F054FA00287ED04FF49061D84851
:1004800000F00AFA00BF1421D54800F05AFA00B271
:10049000D449088000BF1821D14800F052FA00B2B8
:1004A000D1490880D14800780028E5D0CD4800889F
:1004B000CF490988401ACF490988CB4A1288891A3E
:1004C000401A00B2CC490880C9480088C54909884B
:1004D000401A00B2C949088003F070FEC84800788D
:1004E00018B1C8480078012805D1C7480088000421
:1004F000C64908600CE0C2480078012808D1C1480C
:10050000007828B900F03AFB01F04EFD02F0ECF95A
:10051000BF48007810B103F085FC11E0B148B0F994
:10052000000040F6087188420ADAAF48B0F90000CE
:10053000884205DA03F0E0FB03F082FC03F0FAFBEB
:1005400003F02EFCAE480078022802D1B1480088A2
:1005500038B1AB48007810B9AE48008808B103F054
:10056000B9FCA748007801280CD103F0D1F903F0B9
:1005700031FA0120A84900E02EE108600020A749D7
:10058000086024E19E480078002877D103F0C0F984
:10059000A3480078012824D19B48B0F90000B0F5A9
:1005A000FA7F0ADD9B48B0F900004000052190FB6E
:1005B000F1F000B29B49088008E09648B0F90000CD
:1005C000032190FBF1F000B2964908809548B0F9FC
:1005D0000000002805DA93480088404200B29149A3
:1005E00008808E480068002871D18F480088FF2855
:1005F0005CDC8848B0F90040FF208B49088032203D
:1006000086490860002C01DA604204B28548B0F9DE
:10061000000084420EDC00207F49086003F002FCE9
:1006200003F0CAF900207B4908808049088080498E
:1006300008603AE07748B0F90000002806DA75480B
:100640000088401C00B2734908800AE07148B0F984
:100650000000002805DD6F480088401E00B26D498B
:1006600008806C48B0F90000B0F5FA7F07DD6948F2
:100670000088401E00B2674908800CE02DE0654804
:10068000B0F9000010F5FA7F05DA62480088401CD6
:1006900000B2604908805F48B0F9000063490880F3
:1006A0000846008800046249086090E004205B4925
:1006B00008605D480088401E5B490880FF205D4956
:1006C0000880091D0880091D088080E0FFE7534865
:1006D0000068401E5149086079E0494800780228C6
:1006E00075D103F077F903F013F94C480068E8BBC3
:1006F00004204A4908604748B0F90000002806DA9B
:1007000044480088401C00B2424908803CE041480F
:10071000B0F90000002806DD3E480088401E00B207
:100720003C49088030E040480088FF2803DC4FF453
:1007300080703D4908803C480088B0F5007F04DAAD
:1007400039480088401C3849088037480088C0F57F
:1007500000703849088034480088C0F50070091DD1
:10076000088031480088C0F5007000E007E0091DEE
:10077000088000202849086003F054FB04E0274863
:100780000068401E254908602248B0F90000B0F515
:10079000FA7F06DD1F480088401E00B21D49088010
:1007A0000BE01C48B0F9000010F5FA7F05DA194893
:1007B0000088401C00B2174908801648B0F90000B4
:1007C0001A490880084600880004194908600C4846
:1007D00090F900001249087010BD0000002401408B
:1007E00000280140060000200800002038000020FA
:1007F000280100202A010020AA000020A8000020D3
:100800001400002066000020EA00002030000020D4
:10081000EC0000209C0000203C0000207C00002018
:100820001500002042000020640000200400002089
:1008300010000020342C014010B5012003F0EAF92B
:100840004FF49061104800F06AF8C8B14FF490611D
:100850000D4800F021F800BF14210B4800F071F89A
:1008600000B20A49088000BF1821074800F069F863
:1008700000B2074908800748007808B104F08EF9F3
:10088000002003F0C7F910BD003C01400A00002021
:100890000C0000203800002000220A12D34303601D
:1008A000704721B1826842F00102826003E08268F1
:1008B00022F001028260704721B1826842F48072A6
:1008C000826003E0826822F480728260704721B106
:1008D000826842F48012826003E0826822F480120F
:1008E0008260704721B1826842F40042826003E076
:1008F000826822F40042826070470A4600218168C3
:1009000021F4E041114381607047014600208A686C
:1009100002F004020AB1012000E00020704770B527
:1009200002460020002300240B125568CEB205EACF
:10093000060415681D4015B10CB1012000E000202F
:1009400070BD08B5024600200090009201F1280019
:10095000009B184400900098006880B208BD0146D2
:1009600000208A6802F008020AB1012000E000209D
:10097000704710B50023CBB21AB144681C434460E1
:1009800002E044689C43446010BD000030B502465C
:100990000020002350680F4C20400D790C6844EA79
:1009A00005242043506090680B4C2040D1E902544C
:1009B0002C434D7944EA450420439060D06A20F4EA
:1009C00070000C7C641EE4B2234340EA0350D06202
:1009D00030BD0000FFFEF0FFFDF7F1FFF0B504466B
:1009E0001546002000220026092911DDE068A1F14A
:1009F0000A0707EB470C072707FA0CF29043A1F10F
:100A00000A0707EB470703FA07F21043E0600CE020
:100A1000206901EB410C072707FA0CF2904301EB28
:100A2000410703FA07F210432061A06BC0F301569F
:100A3000EF1C06F1010CA7EB0C0707EB870C1F2737
:100A400007FA0CF29043EF1C06F1010CA7EB0C0720
:100A500007EB870701FA07F21043A063F0BD10B55A
:100A60000A4600210023816B21F44011531E41EA04
:100A70000351816310BDF0B504460D4600200021EE
:100A8000092D11DDE068A5F10A0606EB46070726E9
:100A900006FA07F18843A5F10A0606EB460603FAB3
:100AA00006F10843E0600CE0206905EB45070726E6
:100AB00006FA07F1884305EB450603FA06F10843F9
:100AC0002061072A0FDA606B561E06EB86071F2689
:100AD00006FA07F18843561E06EB860605FA06F16C
:100AE0000843606322E00D2A0FDA206BD61F06EB65
:100AF00086071F2606FA07F18843D61F06EB8606EF
:100B000005FA06F10843206310E0E06AA2F10D0641
:100B100006EB86071F2606FA07F18843A2F10D06A9
:100B200006EB860605FA06F10843E062F0BD81682F
:100B300041F008018160704721B1826842F4A0024F
:100B4000826003E0826822F4A002826070478168BC
:100B500041F004018160704730B10749096841F4F0
:100B60000001054A116005E00349096821F400010C
:100B7000014A1160704700000824014015490988A6
:100B800008041549096888420DDD13490968134AAC
:100B900012681144104A116011460968814213DD40
:100BA0001146086010E00C49096888420CDA0A49CD
:100BB00009680A4A1268891A074A116011460968C9
:100BC000814201DA11460860034909680914044AA0
:100BD0001160704728000020300000202C00002009
:100BE00034000020002001490860704754000020B4
:100BF000074800680749884205D205480068401C3C
:100C00000349086002E001200349087070470000B2
:100C100054000020905F01004D00002010B502F04C
:100C2000E7FE15490968401A14490860084600683B
:100C300001F07EFF1249086012480068124988429C
:100C400003DD00201149087014E001200F490870ED
:100C50000F48B0F90000002806DB0D480088401E50
:100C600000B20B49088005E009480088401C00B22A
:100C70000749088010BD00005C00002060000020D3
:100C80007000002058000020CC4C150066000020A9
:100C90009C00002000BFFEE710B502F0C7FE184917
:100CA00008600846006801F043FF164908601448D0
:100CB00000681549884203DA0420144908701DE0D1
:100CC0000F480068B0F5BC1F03DA00200F49087018
:100CD00014E00B4800680E49884203DA01200B49F2
:100CE00008700BE0064800680A49884203DA0220CF
:100CF0000649087002E003200449087010BD000096
:100D0000580000206C000020CC4C150094000020FE
:100D10001E451800EB111B0021B1026842F00102D0
:100D2000026004E002684FF6FE731A4002607047EA
:100D300001684FF6FE7211400160002101604160C0
:100D40008160C1604B49884208D14A4908394968E5
:100D500041F00F01474A083A51608AE04549143191
:100D6000884208D143490839496841F0F001414AB5
:100D7000083A51607DE03F492831884208D13D4919
:100D80000839496841F470613A4A083A516070E0A4
:100D900038493C31884208D136490839496841F41C
:100DA0007041344A083A516063E032495031884218
:100DB00008D130490839496841F470212D4A083A70
:100DC000516056E02B496431884208D129490839DD
:100DD000496841F47001274A083A516049E02549C1
:100DE0007831884208D123490839496841F0706157
:100DF000204A083A51603CE01F49884206D1011F51
:100E0000096841F00F01021F116032E01A491431E4
:100E1000884208D11849091F096841F0F001164AB3
:100E2000121F116025E014492831884208D1124967
:100E3000091F096841F470610F4A121F116018E020
:100E40000D493C31884208D10B49091F096841F41A
:100E50007041094A121F11600BE007495031884266
:100E600007D10549091F096841F47021024A121F80
:100E700011607047080002400804024010B50022CB
:100E8000026847F6F0739A430C6A8B6823430C6937
:100E900023434C6923438C692343CC6923434C6A25
:100EA00023438C6A23431A430260CB6843600B6878
:100EB00083604B68C36010BD704710B50446204680
:100EC00002F044FD10BD00000149C86070470000F9
:100ED0000020024030B5044604254FF4302000F0D5
:100EE00089F80546042D17D10C48006940F002002E
:100EF0000A49086108464461006940F04000086101
:100F00004FF4302000F076F805460448006941F6B9
:100F1000FD71084001490861284630BD00200240AB
:100F200004200B49C96801F0010109B101200EE05C
:100F30000749C96801F0040109B1022007E004492A
:100F4000C96801F0100109B1032000E004207047D6
:100F5000002002400348006940F080000149086118
:100F600070470000002002400549096821F0100187
:100F7000034A11601146096801431160704700007F
:100F80000020024070B504460D460426F00200F031
:100F900031F80646042E11D10948006940F00100DD
:100FA000074908612580F00200F024F8064604484D
:100FB000006941F6FE71084001490861304670BD84
:100FC0000020024001460020034A106800F038006B
:100FD00008431060704700000020024002480349A7
:100FE000486003484860704723016745002002407D
:100FF000AB89EFCD00B502460423FFF791FF03460E
:1010000003E0FFF78DFF0346521E012B01D1002A9A
:10101000F7D102B90523184600BD2DE9F04102467B
:1010200000250026002000230024002791F803C09B
:101030000CF00F0591F803C00CF0100CBCF1000F80
:1010400003D091F802C04CEA050591F800C0BCF14C
:10105000000F31D0146800202BE04FF0010C0CFA87
:1010600000F3B1F800C00CEA03069E4220D18300D1
:101070004FF00F0C0CFA03F7BC4305FA03FC4CEAE3
:10108000040491F803C0BCF1280F06D14FF0010C05
:101090000CFA00FCC2F814C00AE091F803C0BCF1DD
:1010A000480F05D14FF0010C0CFA00FCC2F810C03B
:1010B000401C0828D1D31460B1F800C0BCF1FF0F68
:1010C00034DD546800202EE000F1080C4FF00108D8
:1010D00008FA0CF3B1F800C00CEA03069E4221D1D5
:1010E00083004FF00F0C0CFA03F7BC4305FA03FC26
:1010F0004CEA040491F803C0BCF1280F05D100F1BB
:10110000080C08FA0CF8C2F8148091F803C0BCF17E
:10111000480F07D100F1080C4FF0010808FA0CF84D
:10112000C2F81080401C0828CED35460BDE8F0817E
:10113000F0B50A46002300240021002500F00046F7
:10114000B6F1004F02D11D4EF16901E01B4E7168EE
:10115000C0F3034583B200F44016B6F5401F08D132
:1011600021F07061154E766826F07066134F7E6030
:1011700012E000F48016B6F5801F06D1032606FAA9
:1011800005F4A14341F0706106E0460D360103FA13
:1011900006F6B14341F0706122B1460D360103FA03
:1011A00006F6314300F00046B6F1004F02D1034E7F
:1011B000F16101E0014E7160F0BD000000000140EE
:1011C0000146886880B270470246002093680B4051
:1011D0000BB1012000E00020704702460020D368D8
:1011E0000B400BB1012000E00020704741617047C7
:1011F0000161704710B5044604F5804188B200F0E3
:1012000001F810BD0146B1F5004F07DBA1F5004024
:101210004011054B33F91000424203E04811024BE4
:1012200033F9102010B27047D055000802490A68FF
:1012300002600979017170478901002000BFFEE753
:1012400010B52F48007888B32E480078401CC0B2F3
:101250002C490870142851DB002008702A480078B7
:10126000401CC1B22848017025480078022202EBD8
:101270004000814202DB00202349087020480078AA
:1012800021490978B1EB400F03DB002002F0C2FCDA
:1012900034E01D48007800F0010018B1012002F090
:1012A000B9FC2BE0002002F0B5FC27E0FFE717486F
:1012B000007802280CD113480078401CC0B21149B4
:1012C000087005281ADB0020087002F02DFB15E0DD
:1012D0000F480078012802D102F09CFC0EE00C4877
:1012E000007858B907480078401CC0B2054908701A
:1012F000642803DB0020087002F016FB10BD00001C
:101300005000002078000020790000208500002097
:101310008400002000BFFEE770B56D48B0F9000002
:1013200010F13C0F03DA02206A490870CEE06848E9
:10133000B0F900003C287CDDFF20674908800020D0
:1013400066490880FFF74EFC65480078012807D001
:1013500064480088000464490860012060490870FE
:101360006248B0F9000050280ADA61480078012884
:1013700006D15E480088801C00B25C4908800EE0FF
:101380005A48B0F9000010F1500F08DD58480078B5
:1013900028B956480088801E00B254490880544835
:1013A000007850B153480068002810DA51480068AE
:1013B00000F570204F49086009E04E480068002899
:1013C00005DD4C480068A0F570204A49086048488F
:1013D000007810B14FF07E5400E0474C4748007849
:1013E000C0B93B48B0F900003C384FF4487148435D
:1013F0004FF4B97190FBF1F000F164063046FEF74E
:1014000052FF05462146FEF7DEFE0446FF203C491A
:1014100008601AE02E48B0F900003C3840F2A461A0
:1014200048434FF4B97190FBF1F000F16406304687
:1014300000E02CE0FEF737FF05462146FEF7C3FE2D
:10144000044640F2FF102E4908602046FEF734FFA4
:101450002C4908600A461068224AB2F90010002898
:1014600001DB002903DA00280DDC00290BDC002851
:1014700000DA4042002900DA4942884206DD0122B2
:10148000144B1A7002E00122124B1A701EE0104831
:10149000B0F9000010F1320F18DD0D48B0F900006E
:1014A000322813DA7F20164908600D480078022898
:1014B00002D002200A4908700A48008800040A493C
:1014C000086000200F4908600249087070BD0000E4
:1014D000920000201400002064000020760000200C
:1014E00074000020EA000020300000209C00002052
:1014F0009100002010000020000080BF900000201C
:101500002C000020280000207047000070B500214A
:1015100000230F22C47804B3154C246804F4E0645B
:10152000C4F5E064210AC1F10403CA40447804FA16
:1015300003F184781440214309010E4C0678A1552B
:10154000047804F01F050124AC4005786D11AD004E
:1015500005F1E025C5F8004109E0047804F01F0515
:101560000124AC40044D0678761145F8264070BD44
:101570000CED00E000E400E080E100E070470000D6
:1015800010B51E4800681E49884204D21B480068F6
:10159000401C1A4908601B480078F0B902F074F941
:1015A000012809D11548006840F6B831884224D195
:1015B00001201549087020E010480068642803D213
:1015C00001201249087018E000200C490860012031
:1015D0000C4908700E4908700FE002F055F9012817
:1015E00008D106480068B0F5FA6F06D10120074916
:1015F000087002E000200149086010BD480000208A
:10160000A0860100450000204C0000204D00002075
:101610004E00002001460020034A506820F440405C
:1016200008435060704700000010024029B1064A8C
:1016300052690243044B5A6104E0034A52698243EF
:10164000014B5A61704700000010024029B1064A60
:10165000D2690243044BDA6104E0034AD26982434F
:10166000014BDA61704700000010024029B1064AC0
:1016700012690243044B1A6104E0034A126982436F
:10168000014B1A61704700000010024029B1064A60
:1016900092690243044B9A6104E0034A92698243CF
:1016A000014B9A61704700000010024029B1064AC0
:1016B000D2680243044BDA6004E0034AD2688243F2
:1016C000014BDA6070470000001002400F480068CC
:1016D00040F001000D490860084640680C49084088
:1016E0000A494860084600680A49084007490860F6
:1016F0000846006820F4802008600846406820F40E
:10170000FE0048604FF41F008860704700100240E0
:101710000000FFF8FFFFF6FE30B500210022002494
:1017200000232D4D6D6805F00C0121B1042905D071
:10173000082923D105E0294D056022E0274D0560E9
:101740001FE0254D6D6805F47012234D6D6805F49A
:101750008034022505EB92421CB9214D55430560AA
:101760000BE01D4D6D6805F400351DB11C4D554352
:10177000056002E0194D5543056002E0174D056014
:1017800000BF00BF144D6D6805F0F0010909154D4B
:101790006B5C0568DD4045600F4D6D6805F4E061E8
:1017A000090A104D6B5C4568DD4085600A4D6D6827
:1017B00005F46051C90A0B4D6B5C4568DD40C5609E
:1017C000054D6D6805F44041890B074D6B5CC5689C
:1017D000B5FBF3F5056130BD0010024000127A0040
:1017E00000093D00700100208001002010B5014675
:1017F0000022002300204A11012A02D1094C23684B
:1018000006E0022A02D1074C236A01E0054C636A14
:1018100001F01F02012494401C400CB1012000E0A3
:10182000002010BD001002400248406800F00C008B
:10183000704700000010024001460020034A506833
:1018400020F0F00008435060704700000010024094
:101850000149086070470000000042420146002034
:10186000034A506820F4E06008435060704700006D
:101870000010024001460020034A506820F46050E6
:1018800040EAC100506070470010024001490866FC
:10189000704700000000424202460020044B586896
:1018A00020F47C1042EA01031843014B5860704752
:1018B0000010024001460020034A506820F0030057
:1018C000084350607047000000100240FEB5064615
:1018D0000C460027002504E0605D3844C7B2681C50
:1018E000C5B2701EA842F7DC2078CC2841D1072E63
:1018F0003FD1A079B8423CD15B480078022838D16A
:10190000CC205A4908700120594908700522611CF1
:101910005648401CFEF74AFC70B956480078052826
:1019200004DD5248401C00F02BFB0FE051480078CA
:10193000401C5049087009E000204E4908704B488F
:10194000D4F80110C0F801106179417100204749B5
:101950008871002508E0454880794449495D08447C
:1019600042498871681CC5B2062DF4DB0720424944
:1019700008702078A52860D1052E5ED12079B84264
:101980005BD139480078022826D101203B490870F4
:101990006846FFF74BFC00BF39480068401C3849D7
:1019A000086000BF72B600BF00BF06226946354816
:1019B00001F06CFB00BF32480068401E30490860EF
:1019C0000846006818B900BF62B600BF00BF00BF7C
:1019D00001202549087000BF012025490870E078E2
:1019E00000F0010028490870E078C0F34000274962
:1019F00008706078A17860F31F2108B2244908803C
:101A0000AA201A49087023480078487022480078B4
:101A10008870CC20C87000200871002508E01348A9
:101A200000791249495D084410490871681CC5B223
:101A3000042DF4DB0520104908700F48007888B1A8
:101A400000F048FBC82001F08FFF0B4802780749DF
:101A5000A02000F00EFA01F03DF8002006490870C1
:101A600000F00EFBFEBD0000850000209E0100205E
:101A700084000020960000208900002087000020BC
:101A80008000002000C0000890000020910000208D
:101A90009200002094000020950000201FB5012135
:101AA0002C20FFF7F3FD01210846FFF7EFFD012190
:101AB0002E48FFF73DFB1020ADF80C0003208DF8F9
:101AC0000E0010208DF80F0003A92948FFF7A5FA92
:101AD0000420ADF80C0003208DF80E0010208DF8C6
:101AE0000F0003A92348FFF798FA4FF40040ADF820
:101AF0000C0003208DF80E0010208DF80F0003A9B4
:101B00001D48FFF78AFA4FF40070ADF80C0003206F
:101B10008DF80E0010208DF80F0003A91448FFF770
:101B20007CFA0820ADF80C0048208DF80F00032047
:101B30008DF80E0003A90E48FFF76FFA4FF480707E
:101B4000ADF80C0048208DF80F0003208DF80E0032
:101B500003A90748FFF761FA06226946074801F022
:101B60007DFA684600F00CFA1FBD0000000230004C
:101B7000000C0140001401400008014000C00008B2
:101B800070B504460D4600200549086022462946E6
:101B90000448FEF7F9FA04480470002070BD000004
:101BA0008C000020940100208800002010B54FF424
:101BB00080710948FFF708FB68B9084800F06AF827
:101BC0000748007838B1074905480078FFF77EFEDE
:101BD00000200349087010BD000C0140811B000863
:101BE000880000209401002010B51D4800780128CD
:101BF00017D11C480068642802D900201A490880BF
:101C000018480068FA2803D900201549087026E012
:101C100014480068401C13490860002013490870EC
:101C20001DE012480078401CC0B2104908706428BA
:101C300012DB0020087000F04DFAC82001F094FE7D
:101C400007220B49A02000F014F900F043FF002008
:101C50000849087000F014FA00200249086010BD1D
:101C6000840000208C0000209200002086000020CC
:101C70009E010020890000201CB5002000900190EA
:101C8000022003490870684600F07AF91CBD000084
:101C900085000020F0B589B00546072000F07CF8EB
:101CA000074607F04000E8B100BF602000F074F87C
:101CB0000446202C0ADC224601A9612000F044F8E9
:101CC00044B13DB101A92046A84703E00021E2202C
:101CD00000F0AEF8172000F05FF8064606F00100AD
:101CE0000028E2D03946272000F0A2F809B0F0BD64
:101CF00070B5044600251EE004F0800020B11021DC
:101D00000F48FFF775FA03E010210D48FFF76EFA50
:101D10006006040E04210B48FFF76AFA0821084800
:101D2000FFF752FA08B144F0010404210548FFF717
:101D30005DFA681CC5B2082DDEDB204670BD0000D0
:101D4000000C0140001401402DE9F04107460D460A
:101D500016464FF400410F48FFF748FA0A2001F0F9
:101D600003FE3846FFF7C4FF8046002405E000204C
:101D7000FFF7BEFF2855601CC4B2B442F7DB4FF436
:101D800000410448FFF734FA0A2001F0EDFDBDE8F8
:101D9000F08100000008014070B504464FF4004196
:101DA0000C48FFF723FA0A2001F0DEFD2046FFF77A
:101DB0009FFF094908700020FFF79AFF05464FF47E
:101DC00000410448FFF714FA0A2001F0CDFD28462F
:101DD00070BD000000080140880100202DE9F0419D
:101DE00007460C4615464FF400410F48FFF7FEF931
:101DF0000A2001F0B9FD3846FFF77AFF0B49087059
:101E0000002605E014F8010BFFF772FF701CC6B244
:101E1000AE42F7DB4FF400410348FFF7E9F90A202F
:101E200001F0A2FDBDE8F08100080140880100201A
:101E300070B505460C464FF400410B48FFF7D6F944
:101E40000A2001F091FD2846FFF752FF074908706C
:101E50002046FFF74DFF4FF400410348FFF7C8F954
:101E60000A2001F081FD70BD0008014088010020BA
:101E700070472DE9F04104460D4616461720FFF73E
:101E80008BFF074607F0200020B93246294620463E
:101E9000FFF7A4FFBDE8F08110B500F001F810BD18
:101EA0000CB50020019000903348006840F4803069
:101EB0003149086000BF3048006800F400300090ED
:101EC0000198401C0190009818B90198B0F5A06FD6
:101ED000F1D12948006800F4003010B101200090D1
:101EE00001E0002000900098012843D123480068B9
:101EF00040F01000214908600846006820F0030007
:101F000008600846006840F0020008601A4840680F
:101F1000194948600846406848600846406840F4EF
:101F2000806048600846406820F47C10486008469D
:101F3000406840F4E81048600846006840F080704F
:101F4000086000BF0C48006800F000700028F9D05D
:101F50000948406820F00300074948600846406887
:101F600040F00200486000BF0348406800F00C00E9
:101F70000828F9D10CBD00000010024000200240EA
:101F800010B50446074821680160217901710522D6
:101F900021462A20FFF722FF052221463020FFF7A5
:101FA0001DFF10BD890100202C480078401C2B49E2
:101FB00008700846007850284EDD00200870284937
:101FC000B1F90010274A1268C1EB224000043C21FD
:101FD00090FBF1F1C82291FBF2F023490968234AF2
:101FE000126800FB0211204A116011460968B1F124
:101FF0007A7F03DD4FF07A71116007E01A490968B2
:1020000011F17A7F02DA1A49174A116016490968F4
:10201000184A126800FB0211174A1268821A134B01
:102020001B6803FB02110914144A1180124908604D
:102030001146B1F90010B1F57A7F02DD4FF47A71E3
:1020400011800E49B1F9001011F57A7F03DA4FF6CD
:1020500018410A4A118000BF704700001600002096
:10206000EA00002030000020100000201C000020AA
:10207000000018FC180000202400002004000020AC
:1020800010B50021E220FFF7D3FE0720FFF784FE02
:10209000044621462720FFF7CBFE4FF400710C4881
:1020A000FFF7A4F80A2001F05FFC0020FFF774FEA0
:1020B000044644F0010421462020FFF7B9FE4FF406
:1020C00000710348FFF794F80A2001F04DFC10BDA1
:1020D000000C014010B50021E120FFF7A9FE4FF4EC
:1020E00000710C48FFF782F80A2001F03DFC002047
:1020F000FFF752FE044604F0FE0421462020FFF7BD
:1021000097FE4FF400710348FFF772F80A2001F0C0
:102110002BFC10BD000C014023480068C0EB0010F0
:102120008000C0EB0010800000EB40001F490968F0
:10213000B1EBC00F05D21D480068401C1B49086068
:1021400002E0002019490860174800684FF47A71CE
:10215000B0FBF1F015490968B1FBF0F200FB121079
:1021600010B90120124908700F4800686421B0FBC3
:10217000F1F00E490968B1FBF0F200FB121010B942
:1021800001200C490870084800680A21B0FBF1F0F2
:1021900006490968B1FBF0F200FB121010B90120EA
:1021A0000549087070470000340100203801002004
:1021B0003C0100203D0100203E010020164800782F
:1021C00040BB1648007828B1082013490870042045
:1021D000134908701348007820B101200E49087097
:1021E0000F4908701048007828B101200A4908708A
:1021F00002200B4908700D48007828B102200649DA
:1022000008700320064908700348007810B10120C7
:10221000074908707047000095000020400000202A
:102220005000002068000020ED0000206700002022
:102230004F00002010B51E48007880B100201C49D6
:10224000087001F0E7FC01F0B7FB00BF01F01CFBD8
:102250000128FBD0002001F0EDFC00BFFEE715488F
:10226000007838B1002013490870FF201249087027
:10227000FFF702FD1148007828B100200F490870CF
:1022800001200D4908700E48007810B102200A495B
:1022900008700C48007850B10748007838B9012020
:1022A000054908700849087000200849087010BDE9
:1022B0004D0000204C00002044000020870000203A
:1022C0004F0000204E0000208500002084000020E8
:1022D00010B51348006840F0010011490860084635
:1022E0004068104908400E494860084600680E4999
:1022F00008400B4908600846006820F48020086008
:102300000846406820F4FE0048604FF41F008860D3
:10231000FFF7C2FD4FF000600449086010BD0000E7
:10232000001002400000FFF8FFFFF6FE08ED00E09D
:102330000A884B881A438B881A43CB881A430B8927
:102340001A434B891A438B891A43A0F844207047DB
:1023500021B1028842F00102028004E002884FF6B7
:10236000FE731A400280704731B1B0F8442042F445
:102370000042A0F8442005E0B0F84420C2F30E0269
:10238000A0F844207047000010B504466848844215
:1023900008D10121C014FFF789F90021E014FFF7EB
:1023A00085F9C4E0B4F1804F08D101210846FFF758
:1023B0005DF900210120FFF759F9B8E05D4884423A
:1023C00008D101210220FFF751F900210220FFF777
:1023D0004DF9ACE05848844208D101210420FFF7B0
:1023E00045F900210420FFF741F9A0E05348844259
:1023F00008D101210820FFF739F900210820FFF753
:1024000035F994E04E48844208D101211020FFF7AD
:102410002DF900211020FFF729F988E0494884426E
:1024200008D101212020FFF721F900212020FFF70A
:102430001DF97CE04448844208D101214014FFF793
:1024400035F900216014FFF731F970E03F4884420C
:1024500009D10121C804FFF729F900214FF4002018
:10246000FFF724F963E03A48844209D101210805C5
:10247000FFF71CF900214FF48010FFF717F956E021
:102480003448844209D101214805FFF70FF90021A2
:102490004FF40010FFF70AF949E02F48844208D1B1
:1024A00001214020FFF7E2F800214020FFF7DEF88D
:1024B0003DE02A48844208D101218020FFF7D6F868
:1024C00000218020FFF7D2F831E02548844208D16E
:1024D00001218015FFF7CAF80021A015FFF7C6F803
:1024E00025E02048844209D101210804FFF7DEF8E5
:1024F00000214FF48030FFF7D9F818E01A488442E1
:1025000009D101214804FFF7D1F800214FF4003030
:10251000FFF7CCF80BE01548844208D1012188046C
:10252000FFF7C4F800214FF48020FFF7BFF810BD7B
:10253000002C01400004004000080040000C004056
:10254000001000400014004000340140004C0140E5
:10255000005001400054014000180040001C0040A1
:10256000002000400040014000440140004801407C
:1025700070B5002400220023058C4FF6FE7635400E
:102580000584028C8388048B4FF68F752C40B51E12
:102590002C400D882C43751E2A400D892A434D88F6
:1025A0002A43144DA8420BD0134DA84208D0134D16
:1025B000A84205D0124DA84202D0124DA84213D114
:1025C0004FF6F7752A404D892A434FF6FB752A408E
:1025D0008D882A434FF6FF652B404FF6FF552B4061
:1025E0008D892B43CD892B4383800483CD888586B9
:1025F000028470BD002C01400034014000400140C5
:1026000000440140004801400A460021018B4FF67A
:10261000F7731940114301837047000070B500241F
:1026200000220023058C4FF6EF7635400584028C9E
:102630008388048B48F6FF752C404FF6FF452C40ED
:102640000D884FF6FF7606EA05252C434FF6DF7519
:102650002A400D8906EA05152A434D8806EA051524
:102660002A43154DA84202D0144DA8421DD14FF661
:102670007F752A404D894FF6FF7606EA05152A43F5
:102680004FF6BF752A408D8806EA05152A434FF696
:10269000FF352B404FF2FF752B408D8906EA8505EB
:1026A0002B43CD8906EA85052B4383800483CD889F
:1026B0000587028470BD0000002C014000340140F9
:1026C0000A460021018B4FF2FF7319404FF6FF734A
:1026D00003EA0223194301837047000070B5002408
:1026E00000220023058C4FF6FF6635400584028CDE
:1026F0008388848B4FF68F752C404FF6FC752C40E9
:102700000D882C434FF6FF552A400D894FF6FF7672
:1027100006EA05252A434D8806EA05252A43154D74
:10272000A84202D0144DA8421DD14FF2FF752A4095
:102730004D894FF6FF7606EA05252A434FF6FF3509
:102740002A408D8806EA05252A434EF6FF752B4060
:102750004DF6FF752B408D8906EA05152B43CD8973
:1027600006EA05152B4383808483CD888587028400
:1027700070BD0000002C0140003401400A460021D9
:10278000818B4FF6F7731940114381837047000026
:1027900070B5002200230024058C4EF6FF763540EC
:1027A0000584038C8488828B48F6FF752A404FF697
:1027B000FF452A400D884FF6FF7606EA05252A4395
:1027C0004DF6FF752B400D8906EA05352B434D88E4
:1027D00006EA05352B430B4DA84202D00A4DA8420C
:1027E00008D14BF6FF752C408D894FF6FF7606EA2F
:1027F00085152C4384808283CD88A0F840500384C3
:1028000070BD0000002C0140003401400A46002148
:10281000818B4FF2FF7319404FF6FF7303EA0223D7
:1028200019438183704782884FF68F731A408280E4
:1028300082880A438280704781867047018770478B
:1028400081877047002202881D4B98420ED01D4B95
:1028500098420BD0B0F1804F08D01B4B984205D066
:102860001A4B984202D01A4B984204D14FF68F73FC
:102870001A404B881A43174B984207D0164B984280
:1028800004D04FF6FF431A40CB881A4302808B884E
:1028900083850B8803850A4B98420BD0094B9842DD
:1028A00008D00E4B984205D00D4B984202D00D4BEC
:1028B000984201D10B7A038601238382704700007E
:1028C000002C01400034014000040040000800409A
:1028D000000C004000100040001400400040014087
:1028E00000440140004801402E4AB2F90020002A6D
:1028F00004DA2C4A1288524211B202E0294AB2F993
:102900000010294AB2F90020002A04DA264A128867
:10291000524210B202E0244AB2F90000814205DCC2
:10292000204AB2F90020204B1A803AE01E4AB2F940
:1029300000201C4BB3F900309A4215DD1A4AB2F957
:102940000030184AB2F90020921C934205DC154A67
:10295000B2F90020144B1A8023E0134A1288921E09
:1029600012B2114B1A801CE00F4AB2F900200D4B35
:10297000B3F900309A4214DA0B4AB2F90020921CE3
:10298000084BB3F900309A4205DB064AB2F9002041
:10299000054B1A8005E0044A1288921C12B2024BC1
:1029A0001A807047040000209C00002001F400728F
:1029B000B2F5007F00D100BFCA430280704721B149
:1029C000828942F40052828104E082894DF6FF73CD
:1029D0001A408281704702460020B1F5007F00D185
:1029E00000BF13880B400BB1012000E000207047AE
:1029F0002DE9F04786B005460E460024A24600BFEA
:102A0000A1460027B08900B100BF2F462C8A4CF6A2
:102A1000FF700440F08804432C82AC894EF6F3101A
:102A20000440B08831890843718908430443AC816C
:102A3000AC8A4FF6FF400440B0890443AC8201A841
:102A4000FEF76AFE1F48874202D1DDF810A001E0C0
:102A5000DDF80CA0A88900F4004040B10AEBCA00E0
:102A600000EB0A1031684900B0FBF1F807E00AEB0F
:102A7000CA0000EB0A1031688900B0FBF1F864204D
:102A8000B8FBF0F004012009642101FB1089A8893A
:102A900000F4004040B1322000EBC900B0FBF1F07F
:102AA00000F00700044308E0322000EB0910642125
:102AB000B0FBF1F000F00F0004432C8106B0BDE83C
:102AC000F087000000380140C1F30802828070479F
:102AD00000BFFEE71CB500200190009027E0072012
:102AE000FFF75AF901909DF8040000F0100030B192
:102AF00010212720FFF79CF94FF0FF301CBD9DF8F7
:102B0000040000F0200028B120212720FFF790F9D1
:102B10000020F3E70120FEF7D0F99DF80000401CEB
:102B2000C0B20090052802DB6FF00100E6E7D6E7AF
:102B300070B504462046FDF7B6FB05464FF08F41C1
:102B4000FDF773FB70BD00000FB4054B10B503A972
:102B5000044A029800F026F810BC5DF814FB00004F
:102B600049310008900100202DE9F04106460F464A
:102B7000904686FB0745424620462946FDF7F4FA73
:102B8000BDE8F08102E008C8121F08C1002AFAD18E
:102B900070477047002001E001C1121F002AFBD1DD
:102BA000704700002DE9FF4F8DB00F460546002607
:102BB00006E025280BD0DDE90F1290476D1C761C2E
:102BC00028780028F5D111B03046BDE8F08F0024F8
:102BD000A246A1460122EC4900E0044315F8013F5A
:102BE000203B02FA03F00842F7D128782A2810D0B7
:102BF0006FF02F022878A0F13001092914D80AEBD0
:102C00008A0102EB410144F0020400EB010A6D1C51
:102C1000F0E701CF5FEA000A03D544F40054CAF19B
:102C2000000A44F002046D1C28782E2817D115F8EC
:102C3000010F44F004042A280ED06FF02F022878E8
:102C4000A0F1300109290AD809EB890102EB410101
:102C500000EB01096D1CF2E757F8049B6D1C287806
:102C60006C280FD006DC4C2817D068280DD06A28B5
:102C700014D104E0742810D07A280FD10DE044F468
:102C800000140AE044F4801401E044F4401469782C
:102C9000814202D104F580146D1C6D1C2A786E2AC5
:102CA0001FD00CDC632A31D004DC002A8BD0582AD8
:102CB00011D1A3E0642A68D0692A0CD165E0732A97
:102CC0002ED004DC6F2A73D0702A04D19BE0752AC1
:102CD0006FD0782A6ED01046DDE90F129047761C2F
:102CE00050E1C4F30250022806D0032809D004287A
:102CF00001CF09D0066045E101CFF117C0E90061BD
:102D000040E101CF06803DE106703BE117F8040B7E
:102D10008DF8000000208DF80100EB46012003E053
:102D200057F804BB4FF0FF3061074FF0000102D4A9
:102D30000DE008F10101884649450FDA8045F8DBCE
:102D40001BF808100029F4D108E008F101018846B9
:102D50008142FADB1BF808100029F6D1DDE90F23C8
:102D6000AAEB08008146214600F036F9304400EB1A
:102D7000080604E0DDE90F121BF8010B9047B8F1DB
:102D80000108F7D221464846F7E00A21C4F302536E
:102D90004FF0000B0891022B04D001CFC117032B79
:102DA00009D00AE0FF1D27F00707F7E8020108E055
:102DB00032E01FE020E000B2C117042B01D140B285
:102DC000C117031E71F1000307DA4FF0000CD0EBBE
:102DD0000C006CEB01012D2302E0230504D52B230D
:102DE0008DF82430012303E0E30701D02023F7E727
:102DF000984658E00A2110E010210EE010204FF014
:102E0000000B08900CE010214FF0000B44F004047C
:102E10004FF00809089103E008214FF0000B0891DA
:102E2000C4F30253022B04D001CF0021032B06D0A0
:102E300006E0FF1D27F00707F7E8020103E080B274
:102E4000042B00D1C0B24FF0000823072BD5702A05
:102E500007D0DDF820C08CF0100C5CEA0B0C05D01C
:102E60000EE040238DF82430012308E050EA0103EE
:102E700006D030238DF824308DF825200223984683
:102E8000DDF820C08CF0080C5CEA0B0C0BD150EA8A
:102E9000010301D1630706D530238DF824304FF0AC
:102EA0000108A9F10109582A04D038A20B9208AAF6
:102EB0000A920BE03AA2F9E75B46089AFDF715FA89
:102EC0000B9B9B5C0A9A521E0A92137050EA0102F5
:102ED000F2D10A98ADEB000000F1200B600702D59B
:102EE00024F4803401E04FF00109D94502DDA9EB5B
:102EF0000B0000E0002000EB0B0141440890AAEB1E
:102F0000010AE00306D4DDE90F232146504600F014
:102F100063F806444FF0000908E009A911F8090018
:102F2000DDE90F12904709F10109761CC145F4DB78
:102F3000E0030CD5DDE90F232146504600F04CF8A4
:102F4000064404E0DDE90F1230209047761C089912
:102F5000481E08900029F5DC08E00A980A990078D4
:102F6000491C0A91DDE90F129047761CBBF1000164
:102F7000ABF1010BF1DC21465046DDE90F2300F0F7
:102F800019F806446D1C1BE6092801003031323364
:102F90003435363738396162636465660000000095
:102FA000303132333435363738394142434445467F
:102FB000000000002DE9F041044600251E4617469A
:102FC000880404D405E039462020B0476D1C641EF7
:102FD000F9D52846BDE8F0812DE9F04104460025E9
:102FE0001E469046C80301D5302700E020278804FC
:102FF00004D505E041463846B0476D1C641EF9D53E
:103000002846BDE8F0810000F0B5034698180F4F40
:10301000B84201D90320F0BD0AB90020FBE7012620
:1030200000240BE01D780878A84204D0FF2D01D0C1
:103030000220F0E700265B1C491C641C9442F1D37B
:10304000012E01D10020E6E70120E4E7000001089D
:1030500001460020C80AC0027047000030B5034690
:103060009818094DA84201D9012030BD0AB90120A4
:10307000FBE7002404E013F8010B01F8010B641CCA
:103080009442F8D30020F0E7000001082DE9F05F3A
:103090000746884614464FF00409381929498842E2
:1030A00002D90120BDE8F09F0CB90020FAE704F036
:1030B000010008B10120F5E7224641463846FFF7F6
:1030C000A3FF06460EB90020ECE7012080F310882C
:1030D00000BFFDF783FF3520FDF7F6FE022E0BD172
:1030E0003846FFF7B5FF8346FDF7F4FE8146B9F198
:1030F000040F01D00220D5E7002512E018F815A032
:103100006800401C18F800004AEA002A5146384678
:10311000FDF738FF8146B9F1040F00D004E0BF1C71
:103120006D1CB5EB540FE9D300BFFDF713FF002072
:1031300080F3108800BFB9F1040F00D1B2E702207C
:10314000B0E700000000010870B504460D46E1B28A
:103150000548FFF7B9FC00BF40210348FFF73BFCDF
:103160000028F9D0204670BD0048004000F08AFDDC
:103170004FF47A7000F0F8FA00F09EFC012000F0A5
:1031800059FD642000F0E2FBFEF788FC4FF4E130CB
:1031900000F024FB4FF4FA4000F0C6F800F066FCA3
:1031A00000F060FC64213B4800F054FD6421394884
:1031B00000F058FD6421374800F05CFD642136487A
:1031C00000F048FD6421344800F04CFD6421324891
:1031D00000F050FD002000F01DFD012000F01AFD60
:1031E0002EA0FFF7B1FC00F0F5FB00F087FC10B15A
:1031F00001203049087000F0DFFB2FA0FFF7A4FC8E
:103200003448018834A0FFF79FFC3948018839A071
:10321000FFF79AFC44F2E8103C49088000203C4942
:1032200008803C49087001203B49087031E0FEF7F6
:10323000BDFC3A48007800B3002038490870FEF71A
:103240009FF9FEF7F7FF3648007818B9012000F023
:10325000E1FC0EE0324890F90000401C48B13048D3
:103260000078012804D1FEF757F8FEF7A7FF00E029
:1032700000BFFDF711FDFDF7D1FC2A48007840B1F1
:10328000002028490870FEF7AFFCFDF7D9FFFDF7D5
:10329000AFFCCCE7002C014000340140BFAAC6F4CB
:1032A00050574D20BBF1C8A1D4CBB7C5C6ABD6C3D0
:1032B0000D0A000040000020B9D8B1D550574D206C
:1032C000D4CBB7C5C6ABD6C3BBF1C8A1CDEAB3C991
:1032D0000D0A0000280100205068617365414F66A7
:1032E00066736574203D203078253034780D0A00EF
:1032F0002A0100205068617365424F6666736574E9
:10330000203D203078253034780D0A00EE00002072
:10331000EA00002014000020380000203C010020BA
:10332000440000203D01002010B59CB0044602F08E
:103330003BF900F0CDFEFE48FFF726F8FD48FFF709
:1033400023F80320ADF824002020ADF8260040F239
:10335000FF10ADF828000020ADF82A0001208DF8FC
:103360002C0009A9F248FFF76DFA09A9F148FFF707
:1033700069FA6020ADF814000120ADF816000420B1
:10338000ADF818000020ADF81C00ADF81E00ADF837
:103390002000ADF82200ADF81A0005A9E448FFF7B7
:1033A000E7F805A9E348FFF7E3F80020ADF81A00B5
:1033B00005A9DF48FFF732F905A9DE48FFF72EF926
:1033C0000020ADF81A0005A9D948FFF787F905A92B
:1033D000D848FFF783F90120ADF816000420ADF8B6
:1033E00018004FF4FF70ADF81A0005A9D048FFF798
:1033F000CFF905A9CF48FFF7CBF94FF40060ADF83E
:1034000004004010ADF806000020ADF80800402090
:10341000ADF80A000020ADF80C00ADF80E00ADF8D4
:10342000100001A9C248FEF783FF01A9C148FEF7B9
:103430007FFF0821BE48FFF7E7F80821BC48FFF7E7
:103440003FF90821BA48FFF799F90821B848FFF772
:10345000DDF90821B748FFF7D7F80821B548FFF78D
:103460002FF90821B348FFF789F90821B148FFF780
:10347000CDF9B148FDF75CFCB0480C90B0480D9018
:1034800000200E901E200F900020109080201190A0
:10349000C00012901390202014900002159000207C
:1034A00016900CA9A448FDF7E9FC0121A248FDF7FC
:1034B00033FC0120FDF750FB4FF4803017900120C2
:1034C0008DF860008DF861004FF4602019900020A5
:1034D0001A9005208DF86C0017A998484C38FDF714
:1034E00055FA4FF48030179001208DF860008DF868
:1034F00061004FF46020199000201A908DF86C0044
:1035000017A99048FDF742FA4FF480301790012038
:103510008DF860008DF861004FF460201990002054
:103520001A908DF86C0017A98748FDF72FFA07232A
:103530000122102181484C38FDF79DFA0723022211
:1035400011217E484C38FDF796FA072303220A2101
:103550007A484C38FDF78FFA072304220021774878
:103560004C38FDF788FA07230522042173484C38AC
:10357000FDF781FA002171484C38FDF770FA0021FF
:103580006E484C38FDF7B9F903216E48FDF767FA2C
:1035900001231A4602216B48FDF720FA012302227B
:1035A0000D216848FDF71AFA0123032219466548E0
:1035B000FDF714FA4FF4E0416248FDF79EF903214C
:1035C0006148FDF74CFA01231A460C215E48FDF7CD
:1035D00005FA0123022203215B48FDF7FFF90123CD
:1035E00003220B215848FDF7F9F900215648FDF751
:1035F00084F9012151484C38FDF75EF900214F480C
:103600004C38FDF764F900214C484C38FDF76AF955
:1036100000214C48FDF75BF901214A48FDF762F9AA
:1036200001224FF490614748FDF7A3F90121464874
:10363000FDF74DF901214448FDF754F901224FF4FB
:1036400090614148FDF795F901213C484C38FDF760
:1036500028F93A484C38FDF76AFA00BF37484C3829
:10366000FDF77DF90028F9D134484C38FDF76FFAA1
:1036700000BF32484C38FDF748F90028F9D1012144
:103680003048FDF70EF92F48FDF751FA00BF2D48DD
:10369000FDF765F90028FAD12A48FDF758FA00BF6E
:1036A0002848FDF732F90028FAD101212648FDF714
:1036B000F8F82548FDF73BFA00BF2348FDF74FF91E
:1036C0000028FAD12048FDF742FA00BF1E48FDF756
:1036D0001CF90028FAD119484C38FDF738FA00BF18
:1036E00016484C38FDF711F90028F9D1012113488B
:1036F0004C38FDF721FA01210D48FEF729FE012182
:103700000C48FEF725FE00210948FEF72DFE00219A
:103710000848FEF729FE70210548FFF784F870215C
:103720000448FFF780F84FF4906104484C380DE0EE
:10373000002C014000340140080002404C240140AC
:10374000C001002000280140003C0140FDF7A4F822
:103750004FF490610348FDF79FF801F00FFF002040
:103760001CB010BD003C014070B501461748006810
:10377000B0FBF1F2B2F1807F01D301201DE022F015
:103780007F40401E4FF0E023586158170F23002858
:1037900007DA1C07260E0E4C00F00F052D1F66558C
:1037A00003E01C07250E0B4C255400BF00204FF0F2
:1037B000E023986107201861002010B14FF0FF301E
:1037C00070BD054801600020FAE700005C010020A0
:1037D00018ED00E000E400E03401002010B586B0F0
:1037E000044601210820FDF751FF01210846FDF79D
:1037F0004DFF01218804FDF729FF4FF48060ADF8EB
:10380000000003208DF8020018208DF8030069469F
:103810001B48FDF702FC4FF40060ADF800000420E7
:103820008DF8030069461648FDF7F7FB0294002067
:10383000ADF80C00ADF80E00ADF81000ADF81400B6
:103840000C20ADF8120002A90E48FFF7D1F827208E
:103850008DF8040000208DF805008DF806008DF825
:10386000070001A8FDF752FE01210648FFF7A7F85F
:1038700040210448FFF79AF8002006B010BD000070
:10388000000C01400048004010B510210448FDF72D
:103890009BFC0446034900F01BF80248007C10BD65
:1038A000001001404401002010B50348FDF788FCDA
:1038B000C0F3822010BD00000010014010B5034885
:1038C000FDF77EFCC0F3421010BD0000000C01406B
:1038D00018B10A68521C0A6002E00A68521E0A60A7
:1038E000D1E900239A4203DD4A680A6001220A6195
:1038F0008B680A689A4203DA8A680A6000220A61C1
:10390000D1E903325A404A610A69CA60704700002F
:103910000448008840F21111084302490880002041
:1039200070470000202C014010B504210648FDF727
:1039300054FC20B104210448FDF758FC03E00421A5
:103940000148FDF755FC10BD000C014010B50446C0
:1039500003E040F2E63000F007F8201EA4F1010178
:103960008CB2F6D110BD0000F0B5034600224FF036
:10397000E02675690E4E36680E4FB6FBF7F606FB6D
:1039800003F400BF4FF0E026B1690DE04FF0E026F0
:10399000B069884208D0884202D20E1A324402E04E
:1039A0002E1A0E4432440146A242EFD3F0BD00006D
:1039B0005C01002040420F0010B500210348FEF7D3
:1039C000D3FC00210248FEF7CFFC10BD002C0140C3
:1039D0000034014010B501210348FEF7C5FC012168
:1039E0000248FEF7C1FC10BD002C0140003401402C
:1039F00070B50025002400BF08E0012000EB440062
:103A0000084931F8100005EB0015641C102CF4DB9C
:103A10002D11102204492846FFF7A6F8054628462E
:103A200070BD0000C0010020A88B680070B50025A3
:103A3000002400BF06E0012000EB4400074931F8F4
:103A40001000641C102CF6DB2D11102204492846AE
:103A5000FFF78AF80546284670BD0000C001002027
:103A600066E62A0010B500F083FB10BD38B50024CF
:103A700001211020FDF70AFE03208DF8020004202A
:103A80008DF803001020ADF8000069460848FDF7E6
:103A9000C4FA00BF08E010210548FDF795FB054674
:103AA0000449FFF715FF641C142CF4DB38BD00003B
:103AB000001001404401002008B501210C20FDF751
:103AC000E5FD002000F0A6F80420ADF8000003207A
:103AD0008DF8020010208DF8030069460548FDF7B7
:103AE0009CFA2020ADF8000069460348FDF795FADE
:103AF00008BD0000000C0140000801402DE9F0471E
:103B000000250026A8460027A946002420E000BF83
:103B1000364800780028FBD000203449087034482B
:103B2000B0F9000005443348B0F9000006443248BB
:103B3000B0F9000080443148B0F900000744FFF7B5
:103B400057FF2F49096808442D490860601CC4B21A
:103B5000202CDCDBC5F34F102A490880C6F34F1038
:103B600029490880C8F34F1028490880C7F34F102F
:103B700027490880224800684011214908602148EF
:103B80000088B0F5106F04DA1E480088B0F5C06FE9
:103B900003DA4FF0FF30BDE8F0871B480088B0F52E
:103BA000106F04DA18480088B0F5C06F02DA6FF0C1
:103BB0000100F0E715480088B0F5106F04DA1348EB
:103BC0000088B0F5C06F02DA4FF0FF30E3E710482D
:103BD0000088B0F5106F04DA0D480088B0F5C06FAA
:103BE00002DA6FF00100D6E70020D4E73C010020A4
:103BF00006000020080000200A0000200C00002021
:103C00005C000020280100202A0100202C01002057
:103C10002E01002010B5044624B104210448FDF70C
:103C2000E7FA03E004210248FDF7E0FA10BD0000C6
:103C3000000C014010B5044624B120210448FDF7D2
:103C4000D7FA03E020210248FDF7D0FA10BD0000AA
:103C50000008014070B504460D4629462046FEF78F
:103C6000EBFD70BD70B504460D4629462046FEF7B3
:103C7000E5FD70BD70B504460D4629462046FEF7A9
:103C8000DFFD70BD10B5FDF721FD0120FDF7E0FD62
:103C900000BF2120FDF7AAFD0028FAD01020FDF773
:103CA00063F90220FDF78EF90020FDF7C5FD002025
:103CB000FDF7E0FD4FF48060FDF7D0FD4FF460119B
:103CC0000020FDF7E9FD0120FDF7E0FD00BF3920F0
:103CD000FDF78CFD0028FAD00220FDF7EBFD00BFB8
:103CE000FDF7A2FD0828FBD101480249086010BD7C
:103CF0000090D0035C0100200A48B0F900000A4996
:103D000008800848B0F900000849B1F90010022203
:103D100002FB010044F6E6114843C01300B2044917
:103D200008807047AA000020AC000020A8000020F6
:103D3000AE00002030B5164C2488644222B2002A1E
:103D400005DC01DB002103E04FF0FF3100E0012141
:103D5000104C24880C4424B20E4D2C802C46248810
:103D600004EBA20423B2184610F5804F04DA0A4887
:103D70004FF440442C8007E0B0F5804F04DD4FF451
:103D800080400446034D2C808411044D2C8030BDAE
:103D9000B0000020B400002000C0FFFF9E00002003
:103DA00000B519480088FDF72DFA18490880164813
:103DB0000088FDF71FFA164908801648B0F9000080
:103DC000B1F9001048431449B1F900100F4AB2F993
:103DD000002001FB1200C01300B2104908800E48F9
:103DE000B0F900000A49B1F9001048430949B1F996
:103DF0000010064AB2F9002001FB0200C01300B215
:103E00000749088000BD0000E8000020B60000203F
:103E1000B80000209E0000209C000020A000002090
:103E2000A2000020002003490880034908800349BC
:103E300008807047B4000020B00000209E000020E1
:103E40001E49B1F900101E4AB2F9002051431D4A23
:103E5000B2F900201C4BB3F9003002FB0311C81368
:103E60001A49B1F9001044F65D72514343F2A302BE
:103E700002FB0011C91309B2144A11801149B1F9AA
:103E800000100F4AB2F9002051430C4AB2F9002049
:103E90000D4BB3F9003002FB1311C8130B49B1F9F4
:103EA000001044F65D72514343F2A30202FB00117D
:103EB000C91309B2064A118070470000AC00002007
:103EC000B8000020AE000020B6000020B0000020A6
:103ED000B20000202DE9F043DFF8E481B8F900607A
:103EE000DFF8E081B8F9008040F6DB5908FB09F8FB
:103EF000DFF8CC91B9F80090C9EBE8280FFA88F701
:103F0000DFF8C081B8F9008040F6DB5908FB09F8FA
:103F1000DFF8AC91B9F8009009EBE828C8F1000887
:103F20000FFA88FC4FF00008DFF89C9189F80080B8
:103F3000002E03DD4FF0010889F80080002F0BDD13
:103F4000DFF8848198F8008008F102084FFA88F8B9
:103F5000DFF8749189F80080BCF1000F0BDDDFF809
:103F6000688198F8008008F104084FFA88F8DFF8B3
:103F7000589189F80080C6EB06284FEAA820CCF1BA
:103F800000084FEA6808C8EB08284FEAA821C7F1E3
:103F900000084FEA6808C8EB08284FEAA822DFF8B3
:103FA000288198F90080B8F1070F6DD2DFE808F09A
:103FB0000408192A3A4A5B00FF23FF24FF2567E023
:103FC000C2F1FF0888440FFA88F302F1FF08884421
:103FD0000FFA88F4C2F1FF08A8EB01080FFA88F580
:103FE00056E0C0F1FF0888440FFA88F3C1F1FF08DA
:103FF00080440FFA88F4C1F1FF08A8EB00080FFA1B
:1040000088F545E0C2F1FF0880440FFA88F302F119
:10401000FF0880440FFA88F4C0F1FF0890440FFABB
:1040200088F535E0C2F1FF0880440FFA88F302F109
:10403000FF0880440FFA88F4C0F1FF0890440FFA9B
:1040400088F525E0C0F1FF0888440FFA88F3C1F134
:10405000FF0880440FFA88F4C1F1FF08A8EB0008BC
:104060000FFA88F514E0C2F1FF0888440FFA88F3CC
:1040700002F1FF0888440FFA88F4C2F1FF08A8EBA8
:1040800001080FFA88F503E0FF23FF24FF2500BF96
:1040900000BF002B00DA0023002C00DA0024002DE2
:1040A00000DA0025DFF82490A9F8003009F10409AE
:1040B000A9F8004009F10409A9F80050BDE8F0830F
:1040C000A2000020A0000020BA000020342C0140F3
:1040D00008B51F20ADF8000000208DF803006946E8
:1040E0002048FCF79AFF0F20ADF8000000208DF863
:1040F000030069461C48FCF790FF18208DF8030068
:1041000003208DF802004FF4F060ADF8000069461E
:104110001448FCF782FF4EF20300ADF80000694638
:104120001248FCF77AFF4FF4E070ADF800006946E2
:104130000D48FCF772FF4FF48050ADF800004820A6
:104140008DF8030069460948FCF767FF4020ADF889
:10415000000048208DF8030069460248FCF75DFF27
:1041600008BD00000008014000100140000C0140A3
:1041700008B501211020FDF789FA4FF4E050ADF8A1
:10418000000048208DF8030003208DF802006946E6
:104190000848FCF742FFE020ADF8000048208DF809
:1041A000030003208DF8020069460348FCF735FF41
:1041B00008BD000000100140000C014010B5FE4891
:1041C000008840F6FC21884204DAFB480088401C45
:1041D000F9490880F848008840F6FC2188420ADB4B
:1041E00044F2E810F54908800020F5490870F549C7
:1041F0000870F5490870F148B0F9000040F68501F3
:10420000884206DCEC48008800EB8000491E8842AA
:1042100003DDEE480088EE490880E848B0F9000068
:1042200041F2DB11884210DCE348008800EB4000DB
:104230004000884209DCE7480078062819DB0020A6
:10424000E5490870E549087013E0DC48B0F9000062
:1042500041F2DB1188420CDBD748008800EB4000BC
:104260004000884205DB0120DB4908700020D94965
:104270000870DB480078002863D0DA480078062808
:1042800032D1D34800884FF6FF7188422CD0D648EF
:104290000078A8B1CE480088D4490988401AD4498A
:1042A0000988884204DCCA480088D1490880A2E015
:1042B000CF480088CD4909880844CD4908809AE054
:1042C000CA4800884FF6FF71081AC9490988884210
:1042D00002DA0120C4490870C5480088C34909882A
:1042E0000844C349088086E0C248007898B1BF48B6
:1042F00000884FF6FF71081ABD490988884202DA22
:104300000020BC490870BA480088B84909880844A8
:10431000B74908806FE0AE480088B4490988401A60
:10432000B3490988884204DCA9480088B04908805C
:1043300061E0AF480088AD4909880844AC4908806D
:1043400059E0A848007801282CD1A148008848B33A
:10435000A5480078A8B19E480088A4490988084467
:10436000A3490988884204DB99480088A04908804D
:1043700041E09F4800889D490988401A9C4908806F
:1043800039E09B48008899490988884202DA01206F
:10439000954908709648008894490988401A9449BC
:1043A000088028E09348007880B1914800888F49C0
:1043B0000988884202DA00208E4908708C480088FB
:1043C0008A490988401A8A49088014E08048008890
:1043D00086490988084486490988884204DB7C4864
:1043E00000888349088006E0814800887F49098861
:1043F000401A7F490880FFF757FA7F49087008463E
:104400000078072802D00846007868B97B48007811
:104410001E280CDA79480078401C784908707848E2
:1044200000787549087002E00020744908707448EB
:10443000007871490978884272D000206D4908706F
:1044400001205F4908706F486B490978405C6549F5
:104450000978401A40B26C49087008460078012873
:1044600004D0084690F90000401D18B901205C49AD
:1044700008700BE0644890F90000401C18B16248D5
:104480000078052802D10020554908705F4800785F
:104490005349097888420AD044F2E8104749088015
:1044A00000204749087047490870474908704C4840
:1044B00000785649087047480078062804DA4548CD
:1044C0000078401C434908703B48008850493E4AE8
:1044D000127821F812000020374908803948007806
:1044E00078B10021002006E0494A32F810200A4441
:1044F00091B2421CD0B20628F6DB0AB22F4B1A80CA
:104500001DE02F48007860B141482F49097830F804
:10451000110000EB4000400000B22849088007E08D
:10452000DAE244F2E8102549088001202A4908709F
:1045300025480078052802D1012022490870224828
:104540000078401CC0B220490870062801DB00201A
:1045500008701A48B0F900002E2802DA2E201749F8
:104560000880284824490978405C1E490870224880
:104570000078234908701B48007800287BD0184831
:104580000078002878D017480078072859D2DFE84B
:1045900000F0D80459748DA6BF0041F255501D4952
:1045A000088000201C4908804EF616401B490880F0
:1045B00041F2E9301A4935E0CC000020EE0000203D
:1045C000C7000020C4000020C5000020D600002045
:1045D000E0000020CB000020EC000020E2000020E2
:1045E000C9000020C3000020DA000020E400002001
:1045F000DC000020C6000020C0000020C200002017
:10460000C1000020D05D0008C8000020CA000020C2
:10461000A8010020CE000020D0000020D200002001
:10462000D4000020088042F6AA20F849088043F60A
:104630009360F7490880F748007810B90120F649DF
:1046400008707FE043F6FF70F449088042F6AA2024
:10465000F349088041F2C160F249088043F6936053
:10466000F149088045F25550E849088046F63E1069
:10467000E749088066E0F5E16EE046F6AA20E749E2
:10468000088045F25550E649088044F26C10E5492F
:10469000088046F63E10E44908804FF40040DB49AC
:1046A000088049F2E930DA4908804BE049F2555078
:1046B000DA4908804FF40040D949088046F617408F
:1046C000D849088049F2E930D74908804AF6AA203B
:1046D000CE4908804BF69360CD49088032E04BF616
:1046E000FF70CE4908804AF6AA20CD49088049F2D9
:1046F000C160CC4908804BF69360CB4908804DF2ED
:104700005550C24908804EF63E10C149088019E054
:104710004EF6AA20C14908804DF25550C049088084
:104720004CF26C10BF4908804EF63E10BE4908801E
:104730004FF6FF70B549088041F2E930B44908806E
:1047400000E000BF00BFB6480088B8490988401A99
:1047500000B2B7490880ADE0B648007807281BD200
:10476000DFE800F09E041B344D667F0041F2555097
:10477000AA4908804000AA49088041F2C160A949BD
:10478000088043F69360A849088000209F4908806C
:104790004EF616409E49088083E043F6FF709F491D
:1047A000088045F255509E49088044F26C109D499E
:1047B000088046F63E109C49088042F6AA2093499C
:1047C000088041F2C160924908806AE046F6AA205A
:1047D000924908804FF400409149088046F61740FE
:1047E0009049088049F2E9308F49088045F25550D8
:1047F0008649088044F26C108549088051E049F2EE
:104800005550864908804AF6AA208549088049F211
:10481000C160844908804BF69360834908804FF457
:1048200000407A49088046F617407949088038E008
:104830004BF6FF70794908804DF255507849088051
:104840004CF26C10774908804EF63E10764908808D
:104850004AF6AA206D49088049F2C1606C49088077
:104860001FE04EF6AA206D4908804FF6FF706C4994
:1048700008804EF616406B49088041F2E9306A49DB
:1048800008804DF25550614908804CF26C10604927
:1048900008806048007810B901205F49087000E086
:1048A00000BF00BF614800885D490988401A00B216
:1048B0005F4908806048B0F9000040F685018842F1
:1048C0006FDC5E48007800286BD0514800885C4956
:1048D00008805C480078E8B356480078012822D167
:1048E0004C48007878B1514800884F49098888427F
:1048F00008DD4B4800884D49088000204C4908805D
:1049000045490870BCE04948008846490988884202
:1049100008DA434800884549088000204449088057
:104920003D490870ACE04348007806280AD1424867
:10493000B0F9000040F68501884203DD4FF6FF70B4
:104940003F4908803948008837490988884207DC90
:10495000364800E00EE0008832490988884208DACB
:104960002F480088314908800020314908802A49B1
:10497000087085E02F480078062823D12548007864
:1049800080B12A48008827490988884278DA244873
:104990000088264908800020254908801E490870A3
:1049A0006EE051E0214800881F490988884267DD90
:1049B0001B4800881D49088000201D4908801649B1
:1049C00008705DE01B480078012809D11A48B0F949
:1049D000000040F68501884202DD00201849088069
:1049E0001248008810490988884205DC0F48008871
:1049F0000C490988884243DA094800880B49088035
:104A000000200B4908800449087039E0D6000020D6
:104A1000D8000020DA000020C6000020CE000020D0
:104A2000D0000020D2000020D4000020DC000020B4
:104A3000DE000020C3000020EE000020C4000020A3
:104A4000E0000020C900002041480088414908805A
:104A50004148008841490880002041490880414977
:104A600008700DE001204049087000BF00213F4858
:104A7000FDF77AFC00213E48FDF776FC00BF00BF41
:104A800000203C49B1F9001040F68502914206DC55
:104A90003849B1F90010384A1288881A00E000201D
:104AA0003449B1F9001001442D4AB2F900204FF603
:104AB000FF731A4402EB61012E4AB2F9002002444E
:104AC00091FBF2F12D4A118000212D4A11702949E4
:104AD0000988294A118000BF2A48007818B12A485D
:104AE00000881C4908801B48008828490880254800
:104AF000007838B10846008841F27C2108442349F7
:104B0000088010E02248007838B12048008841F23F
:104B1000C16108441D49088005E01C48008800F672
:104B200037601A4908801349B1F90010194A92FBFD
:104B3000F1F108B20A2800DA00201549097821B9F4
:104B4000414209B2144A118001E01349088010BDA6
:104B5000D0000020DC000020D6000020E000002073
:104B6000DE000020C6000020ED000020002C0140E7
:104B700000340140EE000020E6000020E4000020A8
:104B8000DA000020EC000020CE000020E800002029
:104B9000C900002000770100EA00002010B5FE489F
:104BA000008840F6FC21884204DAFB480088401C5B
:104BB000F9490880F848008840F6FC2188420ADB61
:104BC00044F2E810F54908800020F5490870F549DD
:104BD0000870F5490870F148B0F9000040F6850109
:104BE000884206DCEC48008800EB8000491E8842C1
:104BF00003DDEE480088EE490880E848B0F900007F
:104C000041F2DB11884210DCE348008800EB4000F1
:104C10004000884209DCE7480078062819DB0020BC
:104C2000E5490870E549087013E0DC48B0F9000078
:104C300041F2DB1188420CDBD748008800EB4000D2
:104C40004000884205DB0120DB4908700020D9497B
:104C50000870DB480078002863D0DA48007806281E
:104C600032D1D34800884FF6FF7188422CD0D64805
:104C70000078A8B1CE480088D4490988401AD449A0
:104C80000988884204DCCA480088D1490880A2E02B
:104C9000CF480088CD4909880844CD4908809AE06A
:104CA000CA4800884FF6FF71081AC9490988884226
:104CB00002DA0120C4490870C5480088C349098840
:104CC0000844C349088086E0C248007898B1BF48CC
:104CD00000884FF6FF71081ABD490988884202DA38
:104CE0000020BC490870BA480088B84909880844BF
:104CF000B74908806FE0AE480088B4490988401A77
:104D0000B3490988884204DCA9480088B049088072
:104D100061E0AF480088AD4909880844AC49088083
:104D200059E0A848007801282CD1A148008848B350
:104D3000A5480078A8B19E480088A449098808447D
:104D4000A3490988884204DB99480088A049088063
:104D500041E09F4800889D490988401A9C49088085
:104D600039E09B48008899490988884202DA012085
:104D7000954908709648008894490988401A9449D2
:104D8000088028E09348007880B1914800888F49D6
:104D90000988884202DA00208E4908708C48008811
:104DA0008A490988401A8A49088014E080480088A6
:104DB00086490988084486490988884204DB7C487A
:104DC00000888349088006E0814800887F49098877
:104DD000401A7F490880FEF771FD7F490870084638
:104DE0000078072802D00846007868B97B48007828
:104DF0001E280CDA79480078401C784908707848F9
:104E000000787549087002E0002074490870744801
:104E1000007871490978884272D000206D49087085
:104E200001205F4908706F486B490978405C65490B
:104E30000978401A40B26C49087008460078012889
:104E400004D0084690F90000401D18B901205C49C3
:104E500008700BE0644890F90000401C18B16248EB
:104E60000078052802D10020554908705F48007875
:104E70005349097888420AD044F2E810474908802B
:104E800000204749087047490870474908704C4856
:104E900000785649087047480078062804DA4548E3
:104EA0000078401C434908703B48008850493E4AFE
:104EB000127821F81200002037490880394800781C
:104EC00078B10021002006E0494A32F810200A4457
:104ED00091B2421CD0B20628F6DB0AB22F4B1A80E0
:104EE0001DE02F48007860B141482F49097830F81B
:104EF000110000EB4000400000B22849088007E0A4
:104F0000DAE244F2E8102549088001202A490870B5
:104F100025480078052802D101202249087022483E
:104F20000078401CC0B220490870062801DB002030
:104F300008701A48B0F900002E2802DA2E2017490E
:104F40000880284824490978405C1E490870224896
:104F50000078234908701B48007800287BD0184847
:104F60000078002878D017480078072859D2DFE861
:104F700000F0D80459748DA6BF0041F255501D4968
:104F8000088000201C4908804EF616401B49088006
:104F900041F2E9301A4935E00001002022010020E9
:104FA000FB000020F8000020F90000200A0100208A
:104FB00014010020FF000020200100201601002025
:104FC000FD000020F70000200E0100201801002045
:104FD00010010020FA000020F4000020F60000205C
:104FE000F5000020D85D0008FC000020FE00002035
:104FF000B40100200201002004010020060100206D
:1050000008010020088042F6AA20F849088043F6EB
:105010009360F7490880F748007810B90120F649F5
:1050200008707FE043F6FF70F449088042F6AA203A
:10503000F349088041F2C160F249088043F6936069
:10504000F149088045F25550E849088046F63E107F
:10505000E749088066E0F5E16EE046F6AA20E749F8
:10506000088045F25550E649088044F26C10E54945
:10507000088046F63E10E44908804FF40040DB49C2
:10508000088049F2E930DA4908804BE049F255508E
:10509000DA4908804FF40040D949088046F61740A5
:1050A000D849088049F2E930D74908804AF6AA2051
:1050B000CE4908804BF69360CD49088032E04BF62C
:1050C000FF70CE4908804AF6AA20CD49088049F2EF
:1050D000C160CC4908804BF69360CB4908804DF203
:1050E0005550C24908804EF63E10C149088019E06B
:1050F0004EF6AA20C14908804DF25550C04908809B
:105100004CF26C10BF4908804EF63E10BE49088034
:105110004FF6FF70B549088041F2E930B449088084
:1051200000E000BF00BFB6480088B8490988401AAF
:1051300000B2B7490880ADE0B648007807281BD216
:10514000DFE800F09E041B344D667F0041F25550AD
:10515000AA4908804000AA49088041F2C160A949D3
:10516000088043F69360A849088000209F49088082
:105170004EF616409E49088083E043F6FF709F4933
:10518000088045F255509E49088044F26C109D49B4
:10519000088046F63E109C49088042F6AA209349B2
:1051A000088041F2C160924908806AE046F6AA2070
:1051B000924908804FF400409149088046F6174014
:1051C0009049088049F2E9308F49088045F25550EE
:1051D0008649088044F26C108549088051E049F204
:1051E0005550864908804AF6AA208549088049F228
:1051F000C160844908804BF69360834908804FF46E
:1052000000407A49088046F617407949088038E01E
:105210004BF6FF70794908804DF255507849088067
:105220004CF26C10774908804EF63E1076490880A3
:105230004AF6AA206D49088049F2C1606C4908808D
:105240001FE04EF6AA206D4908804FF6FF706C49AA
:1052500008804EF616406B49088041F2E9306A49F1
:1052600008804DF25550614908804CF26C1060493D
:1052700008806048007810B901205F49087000E09C
:1052800000BF00BF614800885D490988401A00B22C
:105290005F4908806048B0F9000040F68501884207
:1052A0006FDC5E48007800286BD0514800885C496C
:1052B00008805C480078E8B356480078012822D17D
:1052C0004C48007878B1514800884F490988884295
:1052D00008DD4B4800884D49088000204C49088073
:1052E00045490870BCE04948008846490988884219
:1052F00008DA43480088454908800020444908806E
:105300003D490870ACE04348007806280AD142487D
:10531000B0F9000040F68501884203DD4FF6FF70CA
:105320003F4908803948008837490988884207DCA6
:10533000364800E00EE0008832490988884208DAE1
:105340002F480088314908800020314908802A49C7
:10535000087085E02F480078062823D1254800787A
:1053600080B12A48008827490988884278DA244889
:105370000088264908800020254908801E490870B9
:105380006EE051E0214800881F490988884267DDA6
:105390001B4800881D49088000201D4908801649C7
:1053A00008705DE01B480078012809D11A48B0F95F
:1053B000000040F68501884202DD0020184908807F
:1053C0001248008810490988884205DC0F48008887
:1053D0000C490988884243DA094800880B4908804B
:1053E00000200B4908800449087039E00A010020B8
:1053F0000C0100200E010020FA0000200201002014
:1054000004010020060100200801002010010020F6
:1054100012010020F700002022010020F8000020E7
:1054200014010020FD000020414800884149088007
:10543000414800884149088000204149088041498D
:1054400008700DE001204049087000BF00213F486E
:10545000FCF78AFF00213E48FCF786FF00BF00BF33
:1054600000203C49B1F9001040F68502914206DC6B
:105470003849B1F90010384A1288881A00E0002033
:105480003449B1F9001001442D4AB2F900204FF619
:10549000FF731A4402EB61012E4AB2F90020024464
:1054A00091FBF2F12D4A118000212D4A11702949FA
:1054B0000988294A118000BF2A48007818B12A4873
:1054C00000881C4908801B48008828490880254816
:1054D000007838B10846008841F27C21084423490D
:1054E000088010E02248007838B12048008841F256
:1054F000C16108441D49088005E01C48008800F689
:1055000037601A4908801349B1F90010194A92FB13
:10551000F1F108B20A2800DA00201549097821B90A
:10552000414209B2144A118001E01349088010BDBC
:1055300004010020100100200A01002014010020B5
:1055400012010020FA00002021010020002C01405F
:1055500000340140220100201A010020180100201F
:105560000E01002020010020020100201C0100206B
:10557000FD000020007701001E01002008B5122068
:105580008DF8000000208DF801008DF80200012048
:105590008DF803006846FBF7B9FF2F208DF8000057
:1055A0006846FBF7B3FF08BD10B5012142F60D00B8
:1055B000FCF76CF84FF48040FCF72CF8012108460A
:1055C000FCF734F8012148F21C60FCF75FF810BDCD
:1055D00000006400C9002D019201F7015B02C002C6
:1055E00024038903EE035204B7041B058005E40578
:1055F0004906AD0612077607DB073F08A40808092D
:105600006C09D109350A990AFE0A620BC60B2A0CED
:105610008E0CF20C570DBB0D1F0E830EE70E4B0FB9
:10562000AE0F12107610DA103E11A1110512691298
:10563000CC1230139313F6135A14BD14201584158D
:10564000E7154A16AD1610177317D61739189B1899
:10565000FE186119C319261A881AEB1A4D1BAF1BC5
:10566000121C741CD61C381D9A1DFC1D5D1EBF1E0D
:10567000211F821FE41F4520A72008216921CA217C
:105680002B228C22ED224E23AE230F247024D02413
:1056900030259125F1255126B12611277027D027D5
:1056A00030288F28EE284E29AD290C2A6B2ACA2AC9
:1056B000292B872BE62B442CA32C012D5F2DBD2DF0
:1056C0001B2E792ED72E342F922FEF2F4C30A9304E
:1056D00007316331C0311D327932D63232338E33E5
:1056E000EA334634A234FE345935B53510366B36BC
:1056F000C63621377C37D63731388B38E5383F39D5
:105700009939F3394D3AA63A003B593BB23B0B3C31
:10571000643CBC3C153D6D3DC53D1D3E753ECD3EDA
:10572000253F7C3FD33F2B408240D8402F418641CC
:10573000DC4132428842DE4234438943DF43344411
:105740008944DE4433458745DC4530468446D846A7
:105750002C477F47D24726487948CC481E49714993
:10576000C349154A674AB94A0B4B5C4BAD4BFE4BDC
:105770004F4CA04CF04C414D914DE14D314E804E7F
:10578000D04E1F4F6E4FBD4F0B505A50A850F65081
:1057900044519151DF512C527952C65213535F53E9
:1057A000AB53F75343548F54DA5425557155BB55B9
:1057B000065650569B56E5562E577857C1570A58ED
:1057C00053589C58E5582D597559BD59045A4C5A8F
:1057D000935ADA5A215B675BAE5BF45B3A5C7F5CA1
:1057E000C55C0A5D4F5D945DD85D1D5E615EA55E22
:1057F000E85E2C5F6F5FB25FF45F37607960BB601B
:10580000FD603E618061C161026242628362C36287
:10581000036342638263C16300643F647D64BB646D
:10582000F96437657465B265EF652B666866A466D2
:10583000E0661C6757679267CD67086843687D68B4
:10584000B768F1682A6963699C69D5690E6A466A16
:105850007E6AB56AED6A246B5B6B926BC86BFE6BFC
:10586000346C6A6C9F6CD46C096D3E6D726DA66D64
:10587000DA6D0D6E406E736EA66ED96E0B6F3D6F56
:105880006E6FA06FD16F0270327062709270C270D2
:10589000F270217150717E71AD71DB7109723672D7
:1058A00064729172BD72EA72167342736E73997369
:1058B000C473EF73197443746D749774C074EA748D
:1058C00012753B7563758B75B375DA75017628763D
:1058D0004F7675769B76C176E6760B773077547780
:1058E00079779D77C077E47707782A784C786E7857
:1058F0009078B278D378F4781579367956797679C4
:105900009579B579D479F279117A2F7A4D7A6A7AC4
:10591000877AA47AC17ADD7AF97A157B317B4C7B60
:10592000677B817B9B7BB57BCF7BE87B027C1A7C92
:10593000337C4B7C637C7A7C927CA97CBF7CD67C5C
:10594000EC7C027D177D2C7D417D567D6A7D7E7DC0
:10595000917DA57DB87DCB7DDD7DEF7D017E137EC4
:10596000247E357E457E567E667E757E857E947E5F
:10597000A37EB17EBF7ECD7EDB7EE87EF57E017F9D
:105980000E7F1A7F257F317F3C7F477F517F5B7F72
:10599000657F6F7F787F817F8A7F927F9A7FA27FEA
:1059A000A97FB07FB77FBE7FC47FCA7FCF7FD47F00
:1059B000D97FDE7FE27FE67FEA7FED7FF17FF37FB5
:1059C000F67FF87FFA7FFB7FFD7FFE7FFE7FFE7F05
:1059D000FE7FFE7FFE7FFD7FFB7FFA7FF87FF67FF5
:1059E000F37FF17FED7FEA7FE67FE27FDE7FD97F85
:1059F000D47FCF7FCA7FC47FBE7FB77FB07FA97FB0
:105A0000A27F9A7F927F8A7F817F787F6F7F657F79
:105A10005B7F517F477F3C7F317F257F1A7F0E7FE1
:105A2000017FF57EE87EDB7ECD7EBF7EB17EA37EEC
:105A3000947E857E757E667E567E457E357E247E8E
:105A4000137E017EEF7DDD7DCB7DB87DA57D917DD3
:105A50007E7D6A7D567D417D2C7D177D027DEC7CAF
:105A6000D67CBF7CA97C927C7A7C637C4B7C337C2B
:105A70001A7C027CE87BCF7BB57B9B7B817B677B41
:105A80004C7B317B157BF97ADD7AC17AA47A877AEF
:105A90006A7A4D7A2F7A117AF279D479B579957933
:105AA0007679567936791579F478D378B278907812
:105AB0006E784C782A780778E477C0779D77797785
:105AC000547730770B77E676C1769B7675764F768E
:105AD00028760176DA75B3758B7563753B7512752B
