:020000040800F2
:10000000B805002045010008F10C0008E90C0008C3
:10001000ED0C000809090008291A0008000000007A
:10002000000000000000000000000000BD100008FB
:10003000AD0A000800000000650D0008A9120008C4
:100040005F0100085F0100085F0100085F01000810
:100050005F0100085F0100085F0100085F01000800
:100060005F0100085F0100085F0100085F010008F0
:100070005F0100085F0100085F0100085F010008E0
:100080005F0100085F010008AD0100085F01000882
:100090005F0100085F0100085F0100085F010008C0
:1000A0005F0100085F0100085F0100085F010008B0
:1000B0005F0100085F0100085F0100085F010008A0
:1000C0005F0100085F0100085F0100085F01000890
:1000D0005F0100085F0100085F0100085F01000880
:1000E0005F0100085F0100085F0100085F01000870
:1000F0005F0100085F0100085F010008910500082A
:100100005F0100085F0100085F0100085F0100084F
:100110005F0100085F0100085F0100085F0100083F
:100120005F0100085F0100085F0100085F0100082F
:10013000DFF80CD000F028F800480047991A0008B2
:10014000B80500200648804706480047FEE7FEE75E
:10015000FEE7FEE7FEE7FEE7FEE7FEE7FEE7FEE777
:100160004D13000831010008202A04DB203A21FA4F
:1001700002F00021704721FA02F3D040C2F12002C0
:100180009140084319467047064C074D06E0E06869
:1001900040F0010394E8070098471034AC42F6D3CE
:1001A000FFF7CAFF043A0008243A000810B54FF4DC
:1001B0009061E04800F045FA20B14FF49061DD48CD
:1001C00000F0FCF94FF49061DB4800F03AFA0028A7
:1001D0007ED04FF49061D84800F0F0F900BF1421B0
:1001E000D44800F040FA00B2D449088000BF14217E
:1001F000D14800F038FA00B2D1490880D1480078DF
:100200000028E5D0CD480088CF490988401ACF4959
:100210000988CB4A1288891A401A00B2CC49088052
:10022000C9480088C5490988401A00B2C9490880F0
:1002300002F0CAFAC848007818B1C8480078012806
:1002400005D1C74800880004C64908600CE0C248D0
:100250000078012808D1C148007828B900F020FBB7
:1002600000F0B6FF01F07EFBBF48007810B102F04D
:10027000DFF811E0B148B0F9000040F6087188429B
:100280000ADAAF48B0F90000884205DA02F03AF81D
:1002900002F0DCF802F054F802F088F8AE4800787A
:1002A000022802D1B148008838B1AB48007810B9B3
:1002B000AE48008808B102F013F9A7480078012879
:1002C0000CD101F08DFE01F0DBFE0120A84900E019
:1002D0002EE108600020A749086024E19E480078CC
:1002E000002877D101F07CFEA3480078012824D1B2
:1002F0009B48B0F90000B0F5FA7F0ADD9B48B0F9E1
:1003000000004000052190FBF1F000B29B490880FD
:1003100008E09648B0F90000032190FBF1F000B22C
:10032000964908809548B0F90000002805DA9348FE
:100330000088404200B2914908808E480068002839
:1003400071D18F480088FF285CDC8848B0F90040F4
:10035000FF208B490880322086490860002C01DA92
:10036000604204B28548B0F9000084420EDC0020EF
:100370007F49086002F05CF801F074FE00207B49C0
:10038000088080490880804908603AE07748B0F9E1
:100390000000002806DA75480088401C00B2734946
:1003A00008800AE07148B0F90000002805DD6F48B8
:1003B0000088401E00B26D4908806C48B0F900000A
:1003C000B0F5FA7F07DD69480088401E00B2674932
:1003D00008800CE02DE06548B0F9000010F5FA7FC8
:1003E00005DA62480088401C00B2604908805F4816
:1003F000B0F900006349088008460088000462499B
:10040000086090E004205B4908605D480088401E59
:100410005B490880FF205D490880091D0880091D8F
:10042000088080E0FFE753480068401E514908609B
:1004300079E049480078022875D101F021FE01F0E9
:10044000CFFD4C480068E8BB04204A490860474893
:10045000B0F90000002806DA44480088401C00B2C9
:10046000424908803CE04148B0F90000002806DD20
:100470003E480088401E00B23C49088030E04048B9
:100480000088FF2803DC4FF480703D4908803C4819
:100490000088B0F5007F04DA39480088401C3849EC
:1004A000088037480088C0F5007038490880344813
:1004B0000088C0F50070091D088031480088C0F52B
:1004C000007000E007E0091D08800020284908604E
:1004D00001F0AEFF04E027480068401E254908608F
:1004E0002248B0F90000B0F5FA7F06DD1F48008809
:1004F000401E00B21D4908800BE01C48B0F9000006
:1005000010F5FA7F05DA19480088401C00B2174937
:1005100008801648B0F900001A490880084600888B
:100520000004194908600C4890F90000124908704D
:1005300010BD0000002401400028014006000020FA
:1005400008000020340000208000002082000020ED
:10055000F6000020F40000201000002062000020BF
:10056000DE0000202C000020E0000020E800002039
:100570003800002078000020110000203E000020FC
:1005800060000020040000200C000020342C0140FA
:1005900010B5012001F044FE4FF49061064800F0D0
:1005A00050F820B14FF49061034800F007F80020A4
:1005B00001F036FE10BD0000003C014000220A128E
:1005C000D3430360704721B1826842F00102826028
:1005D00003E0826822F001028260704721B18268E4
:1005E00042F48072826003E0826822F4807282604A
:1005F000704721B1826842F48012826003E0826811
:1006000022F480128260704721B1826842F4004275
:10061000826003E0826822F40042826070470A46EA
:100620000021816821F4E041114381607047014657
:1006300000208A6802F004020AB1012000E00020D4
:10064000704770B502460020002300240B12556845
:10065000CEB205EA060415681D4015B10CB10120A3
:1006600000E0002070BD08B5024600200090009216
:1006700001F12800009B184400900098006880B2A7
:1006800008BD014600208A6802F008020AB1012074
:1006900000E00020704710B50023CBB21AB14468C7
:1006A0001C43446002E044689C43446010BD000069
:1006B00030B502460020002350680F4C20400D79D1
:1006C0000C6844EA05242043506090680B4C20409D
:1006D000D1E902542C434D7944EA4504204390600B
:1006E000D06A20F470000C7C641EE4B2234340EA1C
:1006F0000350D06230BD0000FFFEF0FFFDF7F1FFB8
:10070000F0B504461546002000220026092911DD17
:10071000E068A1F10A0707EB470C072707FA0CF27C
:100720009043A1F10A0707EB470703FA07F21043CA
:10073000E0600CE0206901EB410C072707FA0CF29E
:10074000904301EB410703FA07F210432061A06BCD
:10075000C0F30156EF1C06F1010CA7EB0C0707EBE9
:10076000870C1F2707FA0CF29043EF1C06F1010CCF
:10077000A7EB0C0707EB870701FA07F21043A0630A
:10078000F0BD10B50A4600210023816B21F4401111
:10079000531E41EA0351816310BDF0B504460D4676
:1007A00000200021092D11DDE068A5F10A0606EB05
:1007B0004607072606FA07F18843A5F10A0606EB65
:1007C000460603FA06F10843E0600CE0206905EBF9
:1007D0004507072606FA07F1884305EB450603FAA5
:1007E00006F108432061072A0FDA606B561E06EBFC
:1007F00086071F2606FA07F18843561E06EB860673
:1008000005FA06F10843606322E00D2A0FDA206B37
:10081000D61F06EB86071F2606FA07F18843D61F68
:1008200006EB860605FA06F10843206310E0E06A4D
:10083000A2F10D0606EB86071F2606FA07F188438C
:10084000A2F10D0606EB860605FA06F10843E06202
:10085000F0BD816841F008018160704721B1826874
:1008600042F4A002826003E0826822F4A002826067
:100870007047816841F004018160704730B10749D9
:10088000096841F40001054A116005E0034909685F
:1008900021F40001014A1160704700000824014062
:1008A0001549098808041549096888420DDD13496E
:1008B0000968134A12681144104A11601146096808
:1008C000814213DD1146086010E00C490968884236
:1008D0000CDA0A4909680A4A1268891A074A11603B
:1008E00011460968814201DA114608600349096826
:1008F0000914044A11607047240000202C000020D5
:10090000280000203000002000BFFEE721B102686F
:1009100042F00102026004E002684FF6FE731A40E2
:100920000260704701684FF6FE72114001600021BD
:10093000016041608160C1604B49884208D14A49E9
:100940000839496841F00F01474A083A51608AE086
:1009500045491431884208D143490839496841F072
:10096000F001414A083A51607DE03F492831884210
:1009700008D13D490839496841F470613A4A083A5A
:10098000516070E038493C31884208D13649083915
:10099000496841F47041344A083A516063E0324991
:1009A0005031884208D130490839496841F47021F2
:1009B0002D4A083A516056E02B496431884208D1EB
:1009C00029490839496841F47001274A083A5160B9
:1009D00049E025497831884208D1234908394968D6
:1009E00041F07061204A083A51603CE01F4988425A
:1009F00006D1011F096841F00F01021F116032E0AA
:100A00001A491431884208D11849091F096841F070
:100A1000F001164A121F116025E01449283188425E
:100A200008D11249091F096841F470610F4A121F69
:100A3000116018E00D493C31884208D10B49091F6B
:100A4000096841F47041094A121F11600BE007491F
:100A50005031884207D10549091F096841F47021C6
:100A6000024A121F11607047080002400804024049
:100A700010B50022026847F6F0739A430C6A8B683F
:100A800023430C6923434C6923438C692343CC697A
:100A900023434C6A23438C6A23431A430260CB6886
:100AA00043600B6883604B68C36010BD70470000F3
:100AB0000549096821F01001034A116011460968CF
:100AC00001431160704700000020024001460020F1
:100AD000034A106800F038000843106070470000B7
:100AE000002002402DE9F0410246002500260020AA
:100AF00000230024002791F803C00CF00F0591F8A3
:100B000003C00CF0100CBCF1000F03D091F802C030
:100B10004CEA050591F800C0BCF1000F31D0146813
:100B200000202BE04FF0010C0CFA00F3B1F800C0EC
:100B30000CEA03069E4220D183004FF00F0C0CFA02
:100B400003F7BC4305FA03FC4CEA040491F803C024
:100B5000BCF1280F06D14FF0010C0CFA00FCC2F8D2
:100B600014C00AE091F803C0BCF1480F05D14FF062
:100B7000010C0CFA00FCC2F810C0401C0828D1D3AC
:100B80001460B1F800C0BCF1FF0F34DD54680020E0
:100B90002EE000F1080C4FF0010808FA0CF3B1F850
:100BA00000C00CEA03069E4221D183004FF00F0CD7
:100BB0000CFA03F7BC4305FA03FC4CEA040491F871
:100BC00003C0BCF1280F05D100F1080C08FA0CF89D
:100BD000C2F8148091F803C0BCF1480F07D100F1AE
:100BE000080C4FF0010808FA0CF8C2F81080401CFD
:100BF0000828CED35460BDE8F0810000F0B50A4665
:100C0000002300240021002500F00046B6F1004F2B
:100C100002D11D4EF16901E01B4E7168C0F303451E
:100C200083B200F44016B6F5401F08D121F0706180
:100C3000154E766826F07066134F7E6012E000F461
:100C40008016B6F5801F06D1032606FA05F4A143E7
:100C500041F0706106E0460D360103FA06F6B14335
:100C600041F0706122B1460D360103FA06F63143B8
:100C700000F00046B6F1004F02D1034EF16101E0F1
:100C8000014E7160F0BD000000000140014688681F
:100C900080B270470246002093680B400BB10120E0
:100CA00000E000207047416170470161704710B556
:100CB000044604F5804188B200F002F810BD00003F
:100CC0000146B1F5004F07DBA1F500404011054B8F
:100CD00033F91000424203E04811024B33F910206F
:100CE00010B270470432000800BFFEE700BFFEE705
:100CF0007047000070B5002100230F22C47804B3B0
:100D0000154C246804F4E064C4F5E064210AC1F1E0
:100D10000403CA40447804FA03F184781440214360
:100D200009010E4C0678A155047804F01F05012432
:100D3000AC4005786D11AD0005F1E025C5F8004126
:100D400009E0047804F01F050124AC40044D067846
:100D5000761145F8264070BD0CED00E000E400E09F
:100D600080E100E07047000001460020034A50681F
:100D700020F44040084350607047000000100240DB
:100D800029B1064A52690243044B5A6104E0034AFE
:100D900052698243014B5A617047000000100240C3
:100DA00029B1064A12690243044B1A6104E0034A5E
:100DB00012698243014B1A61704700000010024023
:100DC00029B1064A92690243044B9A6104E0034A3E
:100DD00092698243014B9A61704700000010024003
:100DE00029B1064AD2680243044BDA6004E0034AA0
:100DF000D2688243014BDA60704700000010024065
:100E00000F48006840F001000D490860084640683E
:100E10000C4908400A494860084600680A490840E9
:100E2000074908600846006820F4802008600846EA
:100E3000406820F4FE0048604FF41F00886070474F
:100E4000001002400000FFF8FFFFF6FE10B501465B
:100E50000022002300204A11012A02D1094C2368F4
:100E600006E0022A02D1074C236A01E0054C636ABE
:100E700001F01F02012494401C400CB1012000E04D
:100E8000002010BD001002400248406800F00C0035
:100E9000704700000010024001460020034A5068DD
:100EA00020F0F0000843506070470000001002403E
:100EB00001490860704700000000424201460020DE
:100EC000034A506820F4E060084350607047000017
:100ED0000010024001460020034A506820F4605090
:100EE00040EAC100506070470010024001490866A6
:100EF000704700000000424202460020044B586840
:100F000020F47C1042EA01031843014B58607047FB
:100F10000010024001460020034A506820F0030000
:100F20000843506070470000001002401FB50121C7
:100F30002C20FFF745FF01210846FFF741FF012163
:100F40002E48FFF75BFE1020ADF80C0003208DF853
:100F50000E0010208DF80F0003A92948FFF7C2FDED
:100F60000420ADF80C0003208DF80E0010208DF841
:100F70000F0003A92348FFF7B5FD4FF40040ADF87B
:100F80000C0003208DF80E0010208DF80F0003A92F
:100F90001D48FFF7A7FD4FF40070ADF80C000320CB
:100FA0008DF80E0010208DF80F0003A91448FFF7EC
:100FB00099FD0820ADF80C0048208DF80F000320A3
:100FC0008DF80E0003A90E48FFF78CFD4FF48070DA
:100FD000ADF80C0048208DF80F0003208DF80E00AE
:100FE00003A90748FFF77EFD06226946074800F07F
:100FF0003BFD684600F0D8F81FBD0000000230003D
:10100000000C0140001401400008014000C000082D
:1010100070B5044600251EE004F0800020B11021C8
:101020000F48FFF742FE03E010210D48FFF73BFE9B
:101030006006040E04210B48FFF737FE082108481C
:10104000FFF728FE08B144F0010404210548FFF72A
:101050002AFE681CC5B2082DDEDB204670BD0000EC
:10106000000C0140001401402DE9F04107460C46F8
:1010700015464FF400410F48FFF715FE0A2000F017
:10108000C9FF3846FFF7C4FF0B490870002605E08A
:1010900014F8010BFFF7BCFF701CC6B2AE42F7DBC1
:1010A0004FF400410348FFF700FE0A2000F0B2FFB2
:1010B000BDE8F0810008014020010020704710B514
:1010C00000F002F810BD00000CB500200190009067
:1010D0003348006840F480303149086000BF304830
:1010E000006800F4003000900198401C01900098C6
:1010F00018B90198B0F5A06FF1D12948006800F443
:10110000003010B10120009001E000200090009814
:10111000012843D12348006840F0100021490860AD
:101120000846006820F0030008600846006840F0A8
:10113000020008601A48406819494860084640683B
:1011400048600846406840F480604860084640684F
:1011500020F47C1048600846406840F4E81048607D
:101160000846006840F08070086000BF0C480068C6
:1011700000F000700028F9D00948406820F0030012
:10118000074948600846406840F00200486000BFD8
:101190000348406800F00C000828F9D10CBD00009D
:1011A000001002400020024010B5044607482168A4
:1011B000016021790171052221462A20FFF754FFA1
:1011C000052221463020FFF74FFF10BD21010020EE
:1011D0002C480078401C2B4908700846007850289D
:1011E0004EDD002008702849B1F90010274A126826
:1011F000C1EB224000043C2190FBF1F1C82291FB9D
:10120000F2F023490968234A126800FB0211204AC0
:10121000116011460968B1F17A7F03DD4FF07A71F0
:10122000116007E01A49096811F17A7F02DA1A4958
:10123000174A116016490968184A126800FB021122
:10124000174A1268821A134B1B6803FB0211091418
:10125000144A1180124908601146B1F90010B1F525
:101260007A7F02DD4FF47A7111800E49B1F90010D6
:1012700011F57A7F03DA4FF618410A4A118000BF50
:101280007047000012000020DE0000202C0000202B
:101290000C00002018000020000018FC14000020A2
:1012A000200000200400002023480068C0EB00104C
:1012B0008000C0EB0010800000EB40001F4909686F
:1012C000B1EBC00F05D21D480068401C1B490860E7
:1012D00002E0002019490860174800684FF47A714D
:1012E000B0FBF1F015490968B1FBF0F200FB1210F8
:1012F00010B90120124908700F4800686421B0FB42
:10130000F1F00E490968B1FBF0F200FB121010B9C0
:1013100001200C490870084800680A21B0FBF1F070
:1013200006490968B1FBF0F200FB121010B9012068
:101330000549087070470000880000208C000020DC
:1013400090000020910000209200002010B513486A
:10135000006840F0010011490860084640681049E3
:1013600008400E494860084600680E4908400B498D
:1013700008600846006820F480200860084640683D
:1013800020F4FE0048604FF41F008860FFF797FECE
:101390004FF000600449086010BD000000100240DA
:1013A0000000FFF8FFFFF6FE08ED00E00A884B881A
:1013B0001A438B881A43CB881A430B891A434B89EB
:1013C0001A438B891A43A0F84420704721B1028840
:1013D00042F00102028004E002884FF6FE731A40D8
:1013E0000280704731B1B0F8442042F40042A0F8C6
:1013F000442005E0B0F84420C2F30E02A0F84420D7
:101400007047000010B504466848844208D10121A5
:10141000C014FFF7E5FC0021E014FFF7E1FCC4E095
:10142000B4F1804F08D101210846FFF7B9FC002133
:101430000120FFF7B5FCB8E05D48844208D10121E6
:101440000220FFF7ADFC00210220FFF7A9FCACE071
:101450005848844208D101210420FFF7A1FC002153
:101460000420FFF79DFCA0E05348844208D10121ED
:101470000820FFF795FC00210820FFF791FC94E07D
:101480004E48844208D101211020FFF789FC002139
:101490001020FFF785FC88E04948844208D10121EB
:1014A0002020FFF77DFC00212020FFF779FC7CE065
:1014B0004448844208D101214014FFF791FC0021E7
:1014C0006014FFF78DFC70E03F48844209D1012190
:1014D000C804FFF785FC00214FF40020FFF780FCD3
:1014E00063E03A48844209D101210805FFF778FCFE
:1014F00000214FF48010FFF773FC56E0344884421B
:1015000009D101214805FFF76BFC00214FF40010C1
:10151000FFF766FC49E02F48844208D101214020B2
:10152000FFF73EFC00214020FFF73AFC3DE02A484F
:10153000844208D101218020FFF732FC0021802065
:10154000FFF72EFC31E02548844208D101218015A7
:10155000FFF726FC0021A015FFF722FC25E020481C
:10156000844209D101210804FFF73AFC00214FF41D
:101570008030FFF735FC18E01A48844209D1012178
:101580004804FFF72DFC00214FF40030FFF728FC42
:101590000BE01548844208D101218804FFF720FCA4
:1015A00000214FF48020FFF71BFC10BD002C0140F0
:1015B0000004004000080040000C00400010004003
:1015C0000014004000340140004C01400050014034
:1015D0000054014000180040001C00400020004062
:1015E00000400140004401400048014070B5002423
:1015F00000220023058C4FF6FE7635400584028CD0
:101600008388048B4FF68F752C40B51E2C400D88B7
:101610002C43751E2A400D892A434D882A43144DB8
:10162000A8420BD0134DA84208D0134DA84205D0B4
:10163000124DA84202D0124DA84213D14FF6F775B1
:101640002A404D892A434FF6FB752A408D882A434C
:101650004FF6FF652B404FF6FF552B408D892B43EE
:10166000CD892B4383800483CD888586028470BD19
:10167000002C014000340140004001400044014082
:10168000004801400A460021018B4FF6F7731940CC
:10169000114301837047000070B50024002200232D
:1016A000058C4FF6EF7635400584028C8388048BD9
:1016B00048F6FF752C404FF6FF452C400D884FF63D
:1016C000FF7606EA05252C434FF6DF752A400D8983
:1016D00006EA05152A434D8806EA05152A43154DE5
:1016E000A84202D0144DA8421DD14FF67F752A4062
:1016F0004D894FF6FF7606EA05152A434FF6BF756A
:101700002A408D8806EA05152A434FF6FF352B40FF
:101710004FF2FF752B408D8906EA85052B43CD8955
:1017200006EA85052B4383800483CD8805870284E0
:1017300070BD0000002C0140003401400A46002129
:10174000018B4FF2FF7319404FF6FF7303EA022338
:10175000194301837047000070B500240022002364
:10176000058C4FF6FF6635400584028C8388848B98
:101770004FF68F752C404FF6FC752C400D882C438E
:101780004FF6FF552A400D894FF6FF7606EA0525EC
:101790002A434D8806EA05252A43154DA84202D062
:1017A000144DA8421DD14FF2FF752A404D894FF6C6
:1017B000FF7606EA05252A434FF6FF352A408D8835
:1017C00006EA05252A434EF6FF752B404DF6FF75B8
:1017D0002B408D8906EA05152B43CD8906EA0515B0
:1017E0002B4383808483CD888587028470BD00006D
:1017F000002C0140003401400A460021818B4FF645
:10180000F7731940114381837047000070B50022BF
:1018100000230024058C4EF6FF7635400584038CAA
:101820008488828B48F6FF752A404FF6FF452A4090
:101830000D884FF6FF7606EA05252A434DF6FF751B
:101840002B400D8906EA05352B434D8806EA053500
:101850002B430B4DA84202D00A4DA84208D14BF6AB
:10186000FF752C408D894FF6FF7606EA85152C43CF
:1018700084808283CD88A0F84050038470BD00002E
:10188000002C0140003401400A460021818B4FF2B8
:10189000FF7319404FF6FF7303EA02231943818354
:1018A000704782884FF68F731A40828082880A437D
:1018B00082807047818670470187704781877047B3
:1018C000002202881D4B98420ED01D4B98420BD02F
:1018D000B0F1804F08D01B4B984205D01A4B98426C
:1018E00002D01A4B984204D14FF68F731A404B889E
:1018F0001A43174B984207D0164B984204D04FF624
:10190000FF431A40CB881A4302808B8883850B885B
:1019100003850A4B98420BD0094B984208D00E4BD6
:10192000984205D00D4B984202D00D4B984201D100
:101930000B7A03860123838270470000002C01404C
:10194000003401400004004000080040000C00404A
:1019500000100040001400400040014000440140DD
:10196000004801402E4AB2F90020002A04DA2C4A2D
:101970001288524211B202E0294AB2F90010294AF3
:10198000B2F90020002A04DA264A1288524210B224
:1019900002E0244AB2F90000814205DC204AB2F993
:1019A0000020204B1A803AE01E4AB2F900201C4B5E
:1019B000B3F900309A4215DD1A4AB2F90030184ADC
:1019C000B2F90020921C934205DC154AB2F90020BE
:1019D000144B1A8023E0134A1288921E12B2114B44
:1019E0001A801CE00F4AB2F900200D4BB3F9003009
:1019F0009A4214DA0B4AB2F90020921C084BB3F950
:101A000000309A4205DB064AB2F90020054B1A80E5
:101A100005E0044A1288921C12B2024B1A807047E9
:101A200004000020E800002000BFFEE72DE9F0419F
:101A300006460F46904686FB074542462046294605
:101A4000FEF792FBBDE8F08102E008C8121F08C152
:101A5000002AFAD170477047002001E001C1121F2F
:101A6000002AFBD17047000030B503469818094D95
:101A7000A84201D9012030BD0AB90120FBE70024AA
:101A800004E013F8010B01F8010B641C9442F8D335
:101A90000020F0E70000010800F0FAFB4FF47A7034
:101AA00000F03CFA00F042FB012000F0C9FB64208A
:101AB00000F0A2FAFFF73AFA4FF4FA4000F032F8D9
:101AC00000F00EFB00F008FB6421134800F0C8FB97
:101AD0006421114800F0CCFB64210F4800F0D0FBDA
:101AE00064210E4800F0BCFB64210C4800F0C0FBF0
:101AF00064210A4800F0C4FB002000F091FB0120A3
:101B000000F08EFB00F0BCFA00F032FB10B10120B7
:101B10000349087000BFFEE7002C0140003401407B
:101B20003C00002010B59CB0044601F053FB00F0CF
:101B3000D5FDF348FFF766FCF248FFF763FC03208E
:101B4000ADF824002020ADF8260040F2FF10ADF8DB
:101B500028000020ADF82A0001208DF82C0009A9EA
:101B6000E748FFF7ADFE09A9E648FFF7A9FE6020A8
:101B7000ADF814000120ADF816000420ADF81800EF
:101B80000020ADF81C00ADF81E00ADF82000ADF847
:101B90002200ADF81A0005A9D948FFF727FD05A9CD
:101BA000D848FFF723FD0020ADF81A0005A9D44856
:101BB000FFF772FD05A9D348FFF76EFD0020ADF8D1
:101BC0001A0005A9CE48FFF7C7FD05A9CD48FFF7C4
:101BD000C3FD0120ADF816000420ADF818004FF445
:101BE000FF70ADF81A0005A9C548FFF70FFE05A95B
:101BF000C448FFF70BFE4FF40060ADF8040040103E
:101C0000ADF806000020ADF808004020ADF80A004D
:101C10000020ADF80C00ADF80E00ADF8100001A9E1
:101C2000B748FFF7C3FB01A9B648FFF7BFFB082180
:101C3000B348FFF727FD0821B148FFF77FFD0821D2
:101C4000AF48FFF7D9FD0821AD48FFF71DFE082179
:101C5000AC48FFF717FD0821AA48FFF76FFD0821E0
:101C6000A848FFF7C9FD0821A648FFF70DFEA648C2
:101C7000FEF758FEA5480C90A5480D9000200E9048
:101C800020200F900020109080201190C000129012
:101C900013902020149000021590002016900CA99B
:101CA0009948FEF7E5FE01219748FEF72FFE012037
:101CB000FEF7E4FD4FF48030179001208DF86000AE
:101CC0008DF861004FF46020199000201A900220D6
:101CD0008DF86C0017A98D484C38FEF7E9FC4FF4DD
:101CE0008030179001208DF860008DF861004FF46E
:101CF0006020199000201A908DF86C0017A9854873
:101D0000FEF7D6FC4FF48030179001208DF860006C
:101D10008DF861004FF46020199000201A908DF822
:101D20006C0017A97C48FEF7C3FC0723012202219F
:101D300076484C38FEF731FD0723022211467348DE
:101D40004C38FEF72AFD0723032219466F484C380A
:101D5000FEF723FD0723042200216C484C38FEF7D0
:101D60001CFD07230522012168484C38FEF715FDAC
:101D700001216848FEF705FD01231A460821654840
:101D8000FEF7BEFC4FF480516248FEF748FC01218B
:101D90006148FEF7F6FC01231A4609215E48FEF76A
:101DA000AFFC4FF480515C48FEF739FC01215748E5
:101DB0004C38FEF713FC002154484C38FEF719FC50
:101DC000002152484C38FEF71FFC00215148FEF715
:101DD00010FC01214F48FEF717FC01224FF49061DF
:101DE0004C48FEF758FC01214B48FEF702FC01214C
:101DF0004948FEF709FC01224FF490614648FEF77E
:101E00004AFC012141484C38FEF7DDFB3F484C3885
:101E1000FEF71FFD00BF3D484C38FEF732FC00289E
:101E2000F9D13A484C38FEF724FD00BF37484C380A
:101E3000FEF7FDFB0028F9D101213648FEF7C3FB70
:101E40003448FEF706FD00BF3248FEF71AFC0028B2
:101E5000FAD13048FEF70DFD00BF2E48FEF7E7FB34
:101E60000028FAD101212C48FEF7ADFB2A48FEF7E5
:101E7000F0FC00BF2848FEF704FC0028FAD12648F1
:101E8000FEF7F7FC00BF2448FEF7D1FB0028FAD18B
:101E90001E484C38FEF7EDFC00BF1C484C38FEF7DE
:101EA000C6FB0028F9D1012118484C38FEF7D6FCB2
:101EB00001211348FFF78AFA01211248FFF786FA39
:101EC00000210F48FFF78EFA00210E48FFF78AFA2B
:101ED00070210B48FFF7E5FC70210A48FFF7E1FC91
:101EE0004FF4906109484C38FEF768FB4FF490615D
:101EF0000948FEF763FB01F057F900201CB010BD44
:101F0000002C014000340140080002404C240140F4
:101F10002801002000280140003C014070B5014626
:101F200017480068B0FBF1F2B2F1807F01D30120C5
:101F30001DE022F07F40401E4FF0E023586158170B
:101F40000F23002807DA1C07260E0E4C00F00F05A1
:101F50002D1F665503E01C07250E0B4C255400BFB2
:101F600000204FF0E023986107201861002010B195
:101F70004FF0FF3070BD054801600020FAE7000017
:101F80000801002018ED00E000E400E088000020D7
:101F900010B50248FEF77AFE400B10BD001001405C
:101FA00018B10A68521C0A6002E00A68521E0A60F0
:101FB000D1E900239A4203DD4A680A6001220A61DE
:101FC0008B680A689A4203DA8A680A6000220A610A
:101FD000D1E903325A404A610A69CA607047000079
:101FE0000448008840F2111108430249088000208B
:101FF00070470000202C014010B5044603E040F279
:10200000E63000F007F8201EA4F101018CB2F6D1F1
:1020100010BD0000F0B5034600224FF0E0267569C0
:102020000E4E36680E4FB6FBF7F606FB03F400BF04
:102030004FF0E026B1690DE04FF0E026B06988422C
:1020400008D0884202D20E1A324402E02E1A0E4400
:1020500032440146A242EFD3F0BD00000801002047
:1020600040420F0010B500210348FFF7BBF90021E3
:102070000248FFF7B7F910BD002C014000340140C1
:1020800010B501210348FFF7ADF901210248FFF720
:10209000A9F910BD002C01400034014070B50025A5
:1020A000002400BF09E0012000EB4400084951F87A
:1020B000200080B205EB0015641C102CF3DB2D1101
:1020C000102204492846FFF7B1FC0546284670BD9A
:1020D00028010020A88B680010B500F04FFB10BD50
:1020E00038B5002401211020FEF76AFE03208DF888
:1020F000020004208DF803001020ADF800006946AE
:102100000848FEF7EFFC00BF08E010210548FEF785
:10211000C1FD05460449FFF743FF641C142CF4DBA2
:1021200038BD0000001001409800002008B50121D2
:102130000C20FEF745FE002000F072F80420ADF8F8
:10214000000003208DF8020010208DF8030069467E
:102150000548FEF7C7FC2020ADF80000694603489B
:10216000FEF7C0FC08BD0000000C01400008014063
:102170002DE9F041002500260027002418E000BFCB
:10218000214800780028FBD000201F4908701F4814
:10219000B0F9000005441E48B0F900000644FFF7FE
:1021A0007DFF1C49096808441A490860601CC4B2D4
:1021B000202CE4DBC5F34F1017490880C6F34F10FD
:1021C00016490880134800684011124908601248F7
:1021D0000088B0F5106F04DA0F480088B0F5C06FC2
:1021E00003DA4FF0FF30BDE8F0810C480088B0F50D
:1021F000106F04DA09480088B0F5C06F02DA6FF09A
:102200000100F0E70020EEE790000020060000202B
:1022100008000020580000208000002082000020DC
:1022200010B5044624B104210448FEF73EFD03E046
:1022300004210248FEF737FD10BD0000000C0140EC
:1022400010B5044624B120210448FEF72EFD03E01A
:1022500020210248FEF727FD10BD000000080140C4
:1022600070B504460D4629462046FFF723FB70BD96
:1022700070B504460D4629462046FFF71DFB70BD8C
:1022800070B504460D4629462046FFF717FB70BD82
:1022900010B5FEF7B5FD0120FEF70AFE00BF2120B4
:1022A000FEF7D4FD0028FAD01020FEF701FC022032
:1022B000FEF70CFC0020FEF7EFFD0020FEF70AFE03
:1022C0004FF48060FEF7FAFD4FF460110020FEF736
:1022D00013FE0120FEF70AFE00BF3920FEF7B6FD0F
:1022E0000028FAD00220FEF715FE00BFFEF7CCFD55
:1022F0000828FBD101480249086010BD0090D003B6
:10230000080100200A48B0F900000A49088008487E
:10231000B0F900000849B1F90010022202FB0100E7
:1023200044F6E6114843C01300B2044908807047E0
:10233000F6000020F8000020F4000020FA00002041
:1023400030B5164C2488644222B2002A05DC01DB39
:10235000002103E04FF0FF3100E00121104C248800
:102360000C4424B20E4D2C802C46248804EBA2048D
:1023700023B2184610F5804F04DA0A484FF440445F
:102380002C8007E0B0F5804F04DD4FF48040044618
:10239000034D2C808411044D2C8030BDFC000020A6
:1023A0000001002000C0FFFFEA00002000B519482E
:1023B0000088FEF785FC1849088016480088FEF75B
:1023C00076FC164908801648B0F90000B1F90010F3
:1023D00048431449B1F900100F4AB2F9002001FB3B
:1023E0001200C01300B2104908800E48B0F9000076
:1023F0000A49B1F9001048430949B1F90010064AE9
:10240000B2F9002001FB0200C01300B207490880A6
:1024100000BD0000DC0000200201002004010020BB
:10242000EA000020E8000020EC000020EE00002080
:102430000020034908800349088003490880704749
:1024400000010020FC000020EA0000201E49B1F934
:1024500000101E4AB2F9002051431D4AB2F9002073
:102460001C4BB3F9003002FB0311C8131A49B1F930
:10247000001044F65D72514343F2A30202FB0011C7
:10248000C91309B2144A11801149B1F900100F4A59
:10249000B2F9002051430C4AB2F900200D4BB3F9B8
:1024A000003002FB1311C8130B49B1F9001044F6B8
:1024B0005D72514343F2A30202FB0011C91309B23A
:1024C000064A118070470000F80000200401002037
:1024D000FA00002002010020FC000020FE00002085
:1024E0002DE9F043DFF8E481B8F90060DFF8E0811E
:1024F000B8F9008040F6DB5908FB09F8DFF8CC9109
:10250000B9F80090C9EBE8280FFA88F7DFF8C08126
:10251000B8F9008040F6DB5908FB09F8DFF8AC9108
:10252000B9F8009009EBE828C8F100080FFA88FC18
:102530004FF00008DFF89C9189F80080002E03DD41
:102540004FF0010889F80080002F0BDDDFF884814F
:1025500098F8008008F102084FFA88F8DFF87491C3
:1025600089F80080BCF1000F0BDDDFF8688198F876
:10257000008008F104084FFA88F8DFF8589189F8CC
:102580000080C6EB06284FEAA820CCF100084FEAED
:102590006808C8EB08284FEAA821C7F100084FEAED
:1025A0006808C8EB08284FEAA822DFF8288198F9C4
:1025B0000080B8F1070F6DD2DFE808F00408192A8F
:1025C0003A4A5B00FF23FF24FF2567E0C2F1FF08C2
:1025D00088440FFA88F302F1FF0888440FFA88F460
:1025E000C2F1FF08A8EB01080FFA88F556E0C0F128
:1025F000FF0888440FFA88F3C1F1FF0880440FFAFE
:1026000088F4C1F1FF08A8EB00080FFA88F545E04F
:10261000C2F1FF0880440FFA88F302F1FF088044FA
:102620000FFA88F4C0F1FF0890440FFA88F535E0FE
:10263000C2F1FF0880440FFA88F302F1FF088044DA
:102640000FFA88F4C0F1FF0890440FFA88F525E0EE
:10265000C0F1FF0888440FFA88F3C1F1FF088044F5
:102660000FFA88F4C1F1FF08A8EB00080FFA88F50B
:1026700014E0C2F1FF0888440FFA88F302F1FF0862
:1026800088440FFA88F4C2F1FF08A8EB01080FFA9A
:1026900088F503E0FF23FF24FF2500BF00BF002BC8
:1026A00000DA0023002C00DA0024002D00DA0025D7
:1026B000DFF82490A9F8003009F10409A9F80040D6
:1026C00009F10409A9F80050BDE8F083EE000020EC
:1026D000EC00002006010020342C014008B541F236
:1026E0000E00ADF8000000208DF803006946204878
:1026F000FEF7F8F90F20ADF8000000208DF8030078
:1027000069461C48FEF7EEF918208DF803000320F7
:102710008DF802004FF4F060ADF8000069461448EF
:10272000FEF7E0F94EF20300ADF8000069461248EA
:10273000FEF7D8F94FF4E070ADF8000069460D4897
:10274000FEF7D0F94FF48050ADF8000048208DF826
:10275000030069460848FEF7C5F94020ADF80000BF
:1027600048208DF8030069460148FEF7BBF908BD13
:102770000008014000100140000C014008B5012193
:102780001020FEF71DFB4FF4E050ADF8000048208C
:102790008DF8030003208DF8020069460848FEF713
:1027A000A1F9E020ADF8000048208DF803000320D7
:1027B0008DF8020069460348FEF794F908BD000051
:1027C00000100140000C014010B5FE48008840F6A2
:1027D000FC21884204DAFB480088401CF949088043
:1027E000F848008840F6FC2188420ADB44F2E810F1
:1027F000F54908800020F5490870F5490870F54949
:102800000870F148B0F9000040F68501884206DC06
:10281000EC48008800EB8000491E884203DDEE484A
:102820000088EE490880E848B0F9000041F2DB1169
:10283000884210DCE348008800EB400040008842FA
:1028400009DCE7480078062819DB0020E549087014
:10285000E549087013E0DC48B0F9000041F2DB11F3
:1028600088420CDBD748008800EB400040008842DB
:1028700005DB0120DB4908700020D9490870DB48DE
:102880000078002863D0DA480078062832D1D3488F
:1028900000884FF6FF7188422CD0D6480078A8B146
:1028A000CE480088D4490988401AD449098888420A
:1028B00004DCCA480088D1490880A2E0CF480088DB
:1028C000CD4909880844CD4908809AE0CA48008863
:1028D0004FF6FF71081AC9490988884202DA0120B7
:1028E000C4490870C5480088C34909880844C349D9
:1028F000088086E0C248007898B1BF4800884FF64B
:10290000FF71081ABD490988884202DA0020BC49D3
:102910000870BA480088B84909880844B74908804F
:102920006FE0AE480088B4490988401AB349098865
:10293000884204DCA9480088B049088061E0AF48BB
:102940000088AD4909880844AC49088059E0A84886
:10295000007801282CD1A148008848B3A548007808
:10296000A8B19E480088A44909880844A349098859
:10297000884204DB99480088A049088041E09F48CC
:1029800000889D490988401A9C49088039E09B4885
:10299000008899490988884202DA0120954908701F
:1029A0009648008894490988401A9449088028E08C
:1029B0009348007880B1914800888F4909888842FF
:1029C00002DA00208E4908708C4800888A490988FC
:1029D000401A8A49088014E080480088864909889E
:1029E000084486490988884204DB7C48008883497A
:1029F000088006E0814800887F490988401A7F499D
:102A00000880FFF7C5FA7F49087008460078072854
:102A100002D00846007868B97B4800781E280CDA96
:102A200079480078401C78490870784800787549E2
:102A3000087002E0002074490870744800787149F9
:102A40000978884272D000206D49087001205F49E2
:102A500008706F486B490978405C65490978401AED
:102A600040B26C49087008460078012804D0084636
:102A700090F90000401D18B901205C4908700BE076
:102A8000644890F90000401C18B16248007805289D
:102A900002D10020554908705F48007853490978F1
:102AA00088420AD044F2E81047490880002047498C
:102AB000087047490870474908704C4800785649E3
:102AC000087047480078062804DA45480078401C1A
:102AD000434908703B48008850493E4A127821F823
:102AE00012000020374908803948007878B1002169
:102AF000002006E0494A32F810200A4491B2421CF4
:102B0000D0B20628F6DB0AB22F4B1A801DE02F4800
:102B1000007860B141482F49097830F8110000EB86
:102B20004000400000B22849088007E0DAE244F2A1
:102B3000E8102549088001202A49087025480078B6
:102B4000052802D101202249087022480078401C43
:102B5000C0B220490870062801DB002008701A481E
:102B6000B0F900002E2802DA2E20174908802848E4
:102B700024490978405C1E4908702248007823499E
:102B800008701B48007800287BD01848007800287F
:102B900078D017480078072859D2DFE800F0D80429
:102BA00059748DA6BF0041F255501D490880002080
:102BB0001C4908804EF616401B49088041F2E93056
:102BC0001A4935E0C0000020E2000020BB000020D0
:102BD000B8000020B9000020CA000020D400002066
:102BE000BF000020E0000020D6000020BD00002033
:102BF000B7000020CE000020D8000020D000002028
:102C0000BA000020B4000020B6000020B50000206B
:102C1000FC310008BC000020BE000020A8010020FC
:102C2000C2000020C4000020C6000020C800002010
:102C3000088042F6AA20F849088043F69360F749D5
:102C40000880F748007810B90120F64908707FE045
:102C500043F6FF70F449088042F6AA20F349088041
:102C600041F2C160F249088043F69360F14908805F
:102C700045F25550E849088046F63E10E74908807D
:102C800066E0F5E16EE046F6AA20E749088045F2E5
:102C90005550E649088044F26C10E549088046F634
:102CA0003E10E44908804FF40040DB49088049F2B7
:102CB000E930DA4908804BE049F25550DA4908809A
:102CC0004FF40040D949088046F61740D84908809B
:102CD00049F2E930D74908804AF6AA20CE4908804F
:102CE0004BF69360CD49088032E04BF6FF70CE4939
:102CF00008804AF6AA20CD49088049F2C160CC4933
:102D000008804BF69360CB4908804DF25550C2497C
:102D100008804EF63E10C149088019E04EF6AA2000
:102D2000C14908804DF25550C04908804CF26C10E2
:102D3000BF4908804EF63E10BE4908804FF6FF702E
:102D4000B549088041F2E930B449088000E000BF8D
:102D500000BFB6480088B8490988401A00B2B74990
:102D60000880ADE0B648007807281BD2DFE800F005
:102D70009E041B344D667F0041F25550AA490880DD
:102D80004000AA49088041F2C160A949088043F681
:102D90009360A849088000209F4908804EF616409D
:102DA0009E49088083E043F6FF709F49088045F202
:102DB00055509E49088044F26C109D49088046F6A3
:102DC0003E109C49088042F6AA209349088041F2AF
:102DD000C160924908806AE046F6AA2092490880BC
:102DE0004FF400409149088046F61740904908800A
:102DF00049F2E9308F49088045F2555086490880EC
:102E000044F26C108549088051E049F255508649DA
:102E100008804AF6AA208549088049F2C1608449A1
:102E200008804BF69360834908804FF400407A494C
:102E3000088046F617407949088038E04BF6FF7065
:102E4000794908804DF25550784908804CF26C1051
:102E5000774908804EF63E10764908804AF6AA2047
:102E60006D49088049F2C1606C4908801FE04EF648
:102E7000AA206D4908804FF6FF706C4908804EF615
:102E800016406B49088041F2E9306A4908804DF2EA
:102E90005550614908804CF26C10604908806048C8
:102EA000007810B901205F49087000E000BF00BF42
:102EB000614800885D490988401A00B25F4908806E
:102EC0006048B0F9000040F6850188426FDC5E483A
:102ED000007800286BD0514800885C4908805C4825
:102EE0000078E8B356480078012822D14C48007891
:102EF00078B1514800884F490988884208DD4B481D
:102F000000884D49088000204C49088045490870D8
:102F1000BCE04948008846490988884208DA4348A5
:102F20000088454908800020444908803D490870D0
:102F3000ACE04348007806280AD14248B0F90000C6
:102F400040F68501884203DD4FF6FF703F49088057
:102F50003948008837490988884207DC364800E04C
:102F60000EE0008832490988884208DA2F48008834
:102F7000314908800020314908802A49087085E0DD
:102F80002F480078062823D12548007880B12A48A8
:102F9000008827490988884278DA24480088264929
:102FA00008800020254908801E4908706EE051E025
:102FB000214800881F490988884267DD1B4800882E
:102FC0001D49088000201D490880164908705DE0F1
:102FD0001B480078012809D11A48B0F9000040F6D2
:102FE0008501884202DD00201849088012480088C7
:102FF00010490988884205DC0F4800880C49098877
:10300000884243DA094800880B49088000200B49B0
:1030100008800449087039E0CA000020CC00002074
:10302000CE000020BA000020C2000020C400002012
:10303000C6000020C8000020D0000020D2000020E0
:10304000B7000020E2000020B8000020D4000020DB
:10305000BD0000204148008841490880414800885F
:1030600041490880002041490880414908700DE02D
:1030700001204049087000BF00213F48FEF7B2F927
:1030800000213E48FEF7AEF900BF00BF00203C49DA
:10309000B1F9001040F68502914206DC3849B1F9D9
:1030A0000010384A1288881A00E000203449B1F92B
:1030B000001001442D4AB2F900204FF6FF731A4464
:1030C00002EB61012E4AB2F90020024491FBF2F1B9
:1030D0002D4A118000212D4A117029490988294A59
:1030E000118000BF2A48007818B12A4800881C497E
:1030F00008801B480088284908802548007838B196
:103100000846008841F27C2108442349088010E0E9
:103110002248007838B12048008841F2C161084453
:103120001D49088005E01C48008800F637601A49F0
:1031300008801349B1F90010194A92FBF1F108B265
:103140000A2800DA00201549097821B9414209B25C
:10315000144A118001E01349088010BDC40000200A
:10316000D0000020CA000020D4000020D20000209F
:10317000BA000020E1000020002C01400034014092
:10318000E2000020DA000020D8000020CE0000205D
:10319000E0000020C2000020DC000020BD00002074
:1031A00000770100DE00002008B512208DF8000035
:1031B00000208DF801008DF8020001208DF8030039
:1031C0006846FDF797FD2F208DF800006846FDF753
:1031D00091FD08BD10B5012142F60D00FDF7F0FD8F
:1031E0004FF48040FDF7C0FD01210846FDF7C8FD02
:1031F000012148F21C60FDF7E3FD10BD000204034D
:103200000601050000006400C9002D019201F701CC
:103210005B02C00224038903EE035204B7041B05BA
:103220008005E4054906AD0612077607DB073F086F
:10323000A40808096C09D109350A990AFE0A620B2B
:10324000C60B2A0C8E0CF20C570DBB0D1F0E830EF5
:10325000E70E4B0FAE0F12107610DA103E11A111CF
:1032600005126912CC1230139313F6135A14BD14BD
:1032700020158415E7154A16AD1610177317D617C3
:1032800039189B18FE186119C319261A881AEB1AE7
:103290004D1BAF1B121C741CD61C381D9A1DFC1D27
:1032A0005D1EBF1E211F821FE41F4520A72008218D
:1032B0006921CA212B228C22ED224E23AE230F241A
:1032C0007024D02430259125F1255126B1261127CF
:1032D0007027D02730288F28EE284E29AD290C2AB8
:1032E0006B2ACA2A292B872BE62B442CA32C012DD1
:1032F0005F2DBD2D1B2E792ED72E342F922FEF2F21
:103300004C30A93007316331C0311D327932D632A9
:1033100032338E33EA334634A234FE345935B53570
:1033200010366B36C63621377C37D63731388B3876
:10333000E5383F399939F3394D3AA63A003B593BC4
:10334000B23B0B3C643CBC3C153D6D3DC53D1D3E58
:10335000753ECD3E253F7C3FD33F2B408240D84039
:103360002F418641DC4132428842DE423443894368
:10337000DF4334448944DE4433458745DC453046E9
:103380008446D8462C477F47D24726487948CC48C0
:103390001E497149C349154A674AB94A0B4B5C4BF0
:1033A000AD4BFE4B4F4CA04CF04C414D914DE14D7F
:1033B000314E804ED04E1F4F6E4FBD4F0B505A5066
:1033C000A850F65044519151DF512C527952C652B7
:1033D00013535F53AB53F75343548F54DA5425556B
:1033E0007155BB55065650569B56E5562E57785785
:1033F000C1570A5853589C58E5582D597559BD590D
:10340000045A4C5A935ADA5A215B675BAE5BF45B01
:103410003A5C7F5CC55C0A5D4F5D945DD85D1D5E66
:10342000615EA55EE85E2C5F6F5FB25FF45F376040
:103430007960BB60FD603E618061C1610262426291
:103440008362C362036342638263C16300643F6457
:103450007D64BB64F96437657465B265EF652B669E
:103460006866A466E0661C6757679267CD67086860
:1034700043687D68B768F1682A6963699C69D569A2
:103480000E6A466A7E6AB56AED6A246B5B6B926B64
:10349000C86BFE6B346C6A6C9F6CD46C096D3E6DAE
:1034A000726DA66DDA6D0D6E406E736EA66ED96E7E
:1034B0000B6F3D6F6E6FA06FD16F027032706270D4
:1034C0009270C270F270217150717E71AD71DB71BA
:1034D0000972367264729172BD72EA721673427327
:1034E0006E739973C473EF73197443746D74977426
:1034F000C074EA7412753B7563758B75B375DA75B4
:10350000017628764F7675769B76C176E6760B77D0
:103510003077547779779D77C077E47707782A7882
:103520004C786E789078B278D378F47815793679CB
:10353000567976799579B579D479F279117A2F7AA5
:103540004D7A6A7A877AA47AC17ADD7AF97A157B1C
:10355000317B4C7B677B817B9B7BB57BCF7BE87B27
:10356000027C1A7C337C4B7C637C7A7C927CA97CC9
:10357000BF7CD67CEC7C027D177D2C7D417D567D09
:103580006A7D7E7D917DA57DB87DCB7DDD7DEF7DE6
:10359000017E137E247E357E457E567E667E757E58
:1035A000857E947EA37EB17EBF7ECD7EDB7EE87E6F
:1035B000F57E017F0E7F1A7F257F317F3C7F477F1D
:1035C000517F5B7F657F6F7F787F817F8A7F927F6E
:1035D0009A7FA27FA97FB07FB77FBE7FC47FCA7F5B
:1035E000CF7FD47FD97FDE7FE27FE67FEA7FED7FEA
:1035F000F17FF37FF67FF87FFA7FFB7FFD7FFE7F11
:10360000FE7FFE7FFE7FFE7FFE7FFD7FFB7FFA7FDA
:10361000F87FF67FF37FF17FED7FEA7FE67FE27F41
:10362000DE7FD97FD47FCF7FCA7FC47FBE7FB77F45
:10363000B07FA97FA27F9A7F927F8A7F817F787FE8
:103640006F7F657F5B7F517F477F3C7F317F257F29
:103650001A7F0E7F017FF57EE87EDB7ECD7EBF7E0A
:10366000B17EA37E947E857E757E667E567E457E87
:10367000357E247E137E017EEF7DDD7DCB7DB87DA2
:10368000A57D917D7E7D6A7D567D417D2C7D177D5A
:10369000027DEC7CD67CBF7CA97C927C7A7C637CAE
:1036A0004B7C337C1A7C027CE87BCF7BB57B9B7B9D
:1036B000817B677B4C7B317B157BF97ADD7AC17A24
:1036C000A47A877A6A7A4D7A2F7A117AF279D47944
:1036D000B57995797679567936791579F478D378FC
:1036E000B27890786E784C782A780778E477C0774B
:1036F0009D777977547730770B77E676C1769B762E
:1037000075764F7628760176DA75B3758B756375A5
:103710003B751275EA74C07497746D7443741974B0
:10372000EF73C47399736E7342731673EA72BD724A
:103730009172647236720972DB71AD717E71507173
:103740002171F270C2709270627032700270D16F2B
:10375000A06F6E6F3D6F0B6FD96EA66E736E406E6D
:103760000D6EDA6DA66D726D3E6D096DD46C9F6C39
:103770006A6C346CFE6BC86B926B5B6B246BED6A8E
:10378000B56A7E6A466A0E6AD5699C6963692A6968
:10379000F168B7687D6843680868CD6792675767C6
:1037A0001C67E066A46668662B66EF65B2657465A3
:1037B0003765F964BB647D643F640064C163826300
:1037C00042630363C362836242620262C1618061D9
:1037D0003E61FD60BB6079603760F45FB25F6F5F30
:1037E0002C5FE85EA55E615E1D5ED85D945D4F5DF9
:1037F0000A5DC55C7F5C3A5CF45BAE5B675B215B3A
:10380000DA5A935A4C5A045ABD5975592D59E558EC
:103810009C5853580A58C15778572E57E5569B560F
:1038200050560656BB5571552555DA548F5443549E
:10383000F753AB535F531353C65279522C52DF5197
:1038400091514451F650A8505A500B50BD4F6E4FF5
:103850001F4FD04E804E314EE14D914D414DF04CB9
:10386000A04C4F4CFE4BAD4B5C4B0B4BB94A674ADF
:10387000154AC34971491E49CC4879482648D24760
:103880007F472C47D84684463046DC45874533453C
:10389000DE4489443444DF4389433443DE42884272
:1038A0003242DC4186412F41D84082402B40D33FF9
:1038B0007C3F253FCD3E753E1D3EC53D6D3D153DD2
:1038C000BC3C643C0B3CB23B593B003BA63A4D3AF6
:1038D000F33999393F39E5388B383138D6377C3769
:1038E0002137C6366B361036B5355935FE34A2341D
:1038F0004634EA338E333233D63279321D32C03118
:1039000063310731A9304C30EF2F922F342FD72E4F
:10391000792E1B2EBD2D5F2D012DA32C442CE62BC3
:10392000872B292BCA2A6B2A0C2AAD294E29EE286F
:103930008F283028D02770271127B1265126F1254E
:1039400091253025D02470240F24AE234E23ED2260
:103950008C222B22CA2169210821A7204520E41F9F
:10396000821F211FBF1E5D1EFC1D9A1D381DD61C07
:10397000741C121CAF1B4D1BEB1A881A261AC31994
:103980006119FE189B183918D61773171017AD1642
:103990004A16E71584152015BD145A14F61393130F
:1039A0003013CC1269120512A1113E11DA107610F3
:1039B0001210AE0F4B0FE70E830E1F0EBB0D570DEF
:1039C000F20C8E0C2A0CC60B620BFE0A990A350A01
:1039D000D1096C090809A4083F08DB07760712071C
:1039E000AD064906E40580051B05B7045204EE0345
:1039F00089032403C0025B02F70192012D01C90073
:103A000064000000243A00080000002028010000A3
:103A1000481A00084C3B00082801002090040000D0
:103A2000581A00080000000000000000000000001C
:103A3000000000000000000000270000FF00000060
:103A40007F00000000000000000000007F01000077
:103A50000000000000000000000000000000000066
:103A60000000000000000000000000000000000056
:103A70000000000000000000000000000000000046
:103A80000000000000000000000000000000000036
:103A90000000000000000000000000000000000026
:103AA0000000000000000000000000000000000016
:103AB0000000000000000000000000000000000006
:103AC00010000000F0FFFFFF0000000000000000F9
:103AD00000000000000000000000000000000001E5
:103AE00000000000000000000000000000000000D6
:103AF00000000000000000000000000000000000C6
:103B0000000000000000E84100000000000000008C
:103B100000000000000000000000000000000000A5
:103B200000000000000000000000000000A24A04A5
:103B3000000000000000000001020304060708095D
:0C3B40000000000000801C00380600009F
:0400000508000131BD
:00000001FF
