:020000040800F2
:10000000E0050020010100084D15000881120008DC
:1000100059130008C90C0008352900080000000029
:10002000000000000000000000000000951D000816
:10003000ED0E000800000000C1150008A120000816
:100040001B0100081B0100081B0100081B01000820
:100050001B0100081B0100081B0100081B01000810
:100060001B0100081B0100081B0100081B01000800
:100070001B0100081B0100081B0100081B010008F0
:100080001B0100081B010008750300081B01000884
:100090001B0100081B0100081B0100081B010008D0
:1000A0001B0100081B0100081B0100081B010008C0
:1000B0001B0100081B0100081B0100081B010008B0
:1000C0001B0100081B0100081B0100081B010008A0
:1000D0001B0100081B0100081B0100081B01000890
:1000E0001B0100081B0100081B010008DFF80CD0F1
:1000F00000F010F900480047252B0008E00500201B
:100100000648804706480047FEE7FEE7FEE7FEE7B1
:10011000FEE7FEE7FEE7FEE7FEE7FEE759220008FE
:10012000ED000008202A04DB203A21FA02F0002129
:10013000704721FA02F3D040C2F1200291400843F7
:100140001946704740EA01039B0703D009E008C93C
:10015000121F08C0042AFAD203E011F8013B00F88C
:10016000013B521EF9D2704730B5044600200346C9
:1001700000E05B1C934203D2E05CCD5C401BF8D0F6
:1001800030BD80EA010210B502F00043400022D0E9
:100190004A001FD0010E01EB1261C0F35600C2F3FA
:1001A000560240F4000042F40002A0FB02200004CA
:1001B0007F39140400D0401C50EA124001D44000A2
:1001C000491EC2B20C0604EBD010401C4008802A25
:1001D00002D003E0002010BD20F00100002900DA69
:1001E0000020184310BD30B480EA010202F000453F
:1001F00030F0004221F0004013D090B1C30DD40D77
:10020000C2F31601C0F31600E41A41F4000140F4F1
:1002100000027D34914201D3641C00E04900002CAF
:1002200002DA30BC002070474FF4000000239142F6
:1002300001D3891A034340084FEA4101F7D151B174
:10024000914202D14FF0004105E002D24FF001018E
:1002500001E06FF0010103EBC450284430BC00F012
:1002600022B8C10F80EAE0700844CA079623002133
:1002700000F022B800F0004220F00040C10DC0F3B1
:10028000160040F400007F2901DA0020704796290B
:1002900003DCC1F19601C84001E096398840002A8C
:1002A000F4D0404270470029A8BF7047401C490065
:1002B00008BF20F00100704710B4B0FA80FC00FACB
:1002C0000CF050EA010404BF10BC704749B1CCF1F6
:1002D000200421FA04F411FA0CF118BF0121214382
:1002E0000843A3EB0C01CB1D4FEA00614FEA10203D
:1002F00042BF002010BC704700EBC35010440029DF
:10030000A4BF10BC7047401C490008BF20F001008A
:1003100010BC7047064C074D06E0E06840F0010352
:1003200094E8070098471034AC42F6D3FFF7E2FE9A
:10033000844A0008A44A000830B58C1810F8012B34
:1003400012F00F0301D110F8013B120906D110F889
:10035000012B03E010F8015B01F8015B5B1EF9D192
:1003600001E001F8013B521EFBD1A142E6D300207F
:1003700030BD000010B54FF49061DA4800F023FA68
:1003800000287DD04FF49061D64800F0D9F900BF25
:100390001421D44800F029FA00B2D349088000BFE4
:1003A0001421D24800F021FA00B2D1490880D14886
:1003B00000780028E5D0CC480088CF490988401A49
:1003C000CE490988CA4A1288891A401A00B2CC4913
:1003D0000880C9480088C4490988401A00B2C94940
:1003E000088003F0FBF9C848007818B1C7480078C6
:1003F000012805D1C64800880004C64908600CE001
:10040000C1480078012808D1C048007828B900F018
:1004100009FB01F07FFD02F02BFABF48007810B114
:1004200003F028F811E0B048B0F9000040F6087178
:1004300088420ADAAE48B0F90000884205DA02F0D4
:1004400083FF03F025F802F09DFF02F0D1FFAE48D4
:100450000078022802D1B148008838B1AA48007853
:1004600010B9AE48008808B103F05CF8A6480078DF
:1004700001280CD102F0C6FD02F024FE012000E0AC
:100480002FE1A74908600020A649086024E19E48A2
:100490000078002877D102F0B5FDA3480078012844
:1004A00024D19B48B0F90000B0F5FA7F0ADD9B48E3
:1004B000B0F900004000052190FBF1F000B29B492B
:1004C000088008E09548B0F90000032190FBF1F0A6
:1004D00000B2964908809548B0F90000002805DA76
:1004E00092480088404200B2904908808D480068D8
:1004F000002871D18E480088FF285CDC8748B0F95D
:100500000040FF208A490880322086490860002C7C
:1005100001DA604204B28548B0F9000084420EDC82
:1005200000207F49086002F0A5FF02F0C3FD002013
:100530007A4908807F4908807F4908603AE0774817
:10054000B0F90000002806DA74480088401C00B2A8
:10055000724908800AE07148B0F90000002805DD02
:100560006E480088401E00B26C4908806B48B0F9A4
:100570000000B0F5FA7F07DD68480088401E00B231
:10058000664908800CE02DE06448B0F9000010F5E1
:10059000FA7F05DA61480088401C00B25F49088094
:1005A0005E48B0F9000063490880084600880004EE
:1005B0006149086090E004205A4908605C4800885E
:1005C000401E5B490880FF205C490880091D0880A7
:1005D000091D088080E0FFE752480068401E51492D
:1005E000086079E048480078022875D102F06AFD79
:1005F00002F008FD4B480068F0BB04204949086040
:100600004648B0F90000002806DA44480088401C3B
:1006100000B2424908803CE04048B0F900000028A0
:1006200006DD3E480088401E00B23C49088030E0AC
:100630003F480088FF2803DC4FF480703C49088065
:100640003B480088B0F5007F04DA39480088401C38
:100650003749088036480088C0F50070374908805F
:1006600033480088C0F50070091D088030480088B4
:10067000C0F50070091D00E006E008800020284950
:10068000086002F0F7FE04E026480068401E254995
:1006900008602248B0F90000B0F5FA7F06DD1F4877
:1006A0000088401E00B21D4908800BE01B48B0F9CD
:1006B000000010F5FA7F05DA18480088401C00B2E7
:1006C000164908801548B0F900001A490880084604
:1006D00000880004184908600B4890F9000012498E
:1006E000087010BD002401400600002000280140D1
:1006F0000800002034000020980000209A0000200C
:10070000F2000020F0000020100000206200002015
:10071000CE0000202C000020B0000020E4000020CB
:100720003800002078000020110000203E0000204A
:1007300060000020040000200C000020342C014048
:1007400000220A12D3430360704721B1826842F04D
:100750000102826003E0826822F001028260704739
:1007600021B1826842F48072826003E0826822F4E0
:1007700080728260704721B1826842F48012826088
:1007800003E0826822F480128260704721B182689F
:1007900042F40042826003E0826822F400428260F8
:1007A00070470A460021816821F4E04111438160CD
:1007B0007047014600208A6802F004020AB1012055
:1007C00000E00020704770B502460020002300249E
:1007D0000B125568CEB205EA060415681D4015B126
:1007E0000CB1012000E0002070BD08B502460020D9
:1007F0000090009201F12800009B1844009000989E
:10080000006880B208BD014600208A6802F0080234
:100810000AB1012000E00020704710B50023CBB2E0
:100820001AB144681C43446002E044689C4344603D
:1008300010BD000030B502460020002350680F4C68
:1008400020400D790C6844EA0524204350609068EC
:100850000B4C2040D1E902542C434D7944EA450425
:1008600020439060D06A20F470000C7C641EE4B2D7
:10087000234340EA0350D06230BD0000FFFEF0FF8A
:10088000FDF7F1FFF0B504461546002000220026D2
:10089000092911DDE068A1F10A0707EB470C0727DA
:1008A00007FA0CF29043A1F10A0707EB470703FA96
:1008B00007F21043E0600CE0206901EB410C0727D0
:1008C00007FA0CF2904301EB410703FA07F21043D9
:1008D0002061A06BC0F30156EF1C06F1010CA7EBE1
:1008E0000C0707EB870C1F2707FA0CF29043EF1C4D
:1008F00006F1010CA7EB0C0707EB870701FA07F2DB
:100900001043A063F0BD10B50A4600210023816B9F
:1009100021F44011531E41EA0351816310BDF0B52B
:1009200004460D4600200021092D11DDE068A5F1E7
:100930000A0606EB4607072606FA07F18843A5F1E3
:100940000A0606EB460603FA06F10843E0600CE0EF
:10095000206905EB4507072606FA07F1884305EBF2
:10096000450603FA06F108432061072A0FDA606B97
:10097000561E06EB86071F2606FA07F18843561E09
:1009800006EB860605FA06F10843606322E00D2AAD
:100990000FDA206BD61F06EB86071F2606FA07F133
:1009A0008843D61F06EB860605FA06F10843206346
:1009B00010E0E06AA2F10D0606EB86071F2606FA94
:1009C00007F18843A2F10D0606EB860605FA06F14B
:1009D0000843E062F0BD816841F008018160704722
:1009E00021B1826842F4A002826003E0826822F4AE
:1009F000A00282607047816841F004018160704705
:100A000030B10749096841F40001054A116005E069
:100A10000349096821F40001014A11607047000090
:100A200008240140154909880804154909688842C5
:100A30000DDD13490968134A12681144104A116008
:100A400011460968814213DD1146086010E00C4927
:100A5000096888420CDA0A4909680A4A1268891A40
:100A6000074A116011460968814201DA114608609F
:100A7000034909680914044A1160704724000020E2
:100A80002C00002028000020300000200020014918
:100A900008607047500000200748006807498842F6
:100AA00005D205480068401C0349086002E00120A7
:100AB000034908707047000050000020905F01005B
:100AC0004900002038B5642000F011FA002001F040
:100AD0008DFA14240CE0594A02EB44025178574A2B
:100AE00012F8142042F0200001F036F9601E44B2E2
:100AF000002CF0DA052252492A2001F005F90522DE
:100B000050492B2001F000F905224D49302001F019
:100B1000FBF81D2001F0D8F844B21CB97321502015
:100B200001F01AF916240CE0444A02EB4402517811
:100B3000424A12F8142042F0200001F00DF9601E24
:100B400044B2152CF0DA012001F050FA002417E02D
:100B5000002509E03C4850F82400E900C840C0B234
:100B60000DF80500681C45B2042DF3DB211DC9B248
:100B700041F020000422694601F0C6F8601C44B22E
:100B8000012CE5DD02241AE000250BE02E4850F888
:100B90002400C5F10301C900C840C0B20DF805002A
:100BA000681C45B2042DF1DB04F10A01C9B241F021
:100BB00020000422694601F0A7F8601C44B2032C0F
:100BC000E2DD0B2221492E2001F09EF8002508E0ED
:100BD0001D480068E900C840C0B20DF80500681C57
:100BE00045B2042DF4DB9DF8000040F006008DF8BE
:100BF000000004226946242001F086F89DF80000D8
:100C000000F0F9008DF8000004226946242001F06C
:100C10007BF8012001F05AF90A2000F068F9002061
:100C200001F0E4F901F0F4F900BF00F019FB8DF8D0
:100C300000009DF800006328F7D138BD4F4A000836
:100C4000390100207D4A0008344A0008444A00085F
:100C500010B502F03FFA15490968401A14490860B6
:100C60000846006801F096FE1249086012480068C4
:100C70001249884203DD00201149087014E0012068
:100C80000F4908700F48B0F90000002806DB0D4836
:100C90000088401E00B20B49088005E00948008822
:100CA000401C00B20749088010BD00005800002019
:100CB0005C0000206C00002054000020CC4C15008B
:100CC00062000020E400002000BFFEE710B502F043
:100CD0001FFA184908600846006801F05BFE1649D3
:100CE0000860144800681549884203DA0420144952
:100CF00008701DE00F480068B0F5BC1F03DA002043
:100D00000F49087014E00B4800680E49884203DA66
:100D100001200B4908700BE0064800680A49884228
:100D200003DA02200649087002E003200449087033
:100D300010BD00005400002068000020CC4C1500BD
:100D4000900000201E451800EB111B0021B1026825
:100D500042F00102026004E002684FF6FE731A409E
:100D60000260704701684FF6FE7211400160002179
:100D7000016041608160C1604B49884208D14A49A5
:100D80000839496841F00F01474A083A51608AE042
:100D900045491431884208D143490839496841F02E
:100DA000F001414A083A51607DE03F4928318842CC
:100DB00008D13D490839496841F470613A4A083A16
:100DC000516070E038493C31884208D136490839D1
:100DD000496841F47041344A083A516063E032494D
:100DE0005031884208D130490839496841F47021AE
:100DF0002D4A083A516056E02B496431884208D1A7
:100E000029490839496841F47001274A083A516074
:100E100049E025497831884208D123490839496891
:100E200041F07061204A083A51603CE01F49884215
:100E300006D1011F096841F00F01021F116032E065
:100E40001A491431884208D11849091F096841F02C
:100E5000F001164A121F116025E01449283188421A
:100E600008D11249091F096841F470610F4A121F25
:100E7000116018E00D493C31884208D10B49091F27
:100E8000096841F47041094A121F11600BE00749DB
:100E90005031884207D10549091F096841F4702182
:100EA000024A121F11607047080002400804024005
:100EB00010B50022026847F6F0739A430C6A8B68FB
:100EC00023430C6923434C6923438C692343CC6936
:100ED00023434C6A23438C6A23431A430260CB6842
:100EE00043600B6883604B68C36010BD704710B5EA
:100EF0000446204602F0A8F810BD00000149C86071
:100F0000704700000020024030B5044604254FF42D
:100F1000302000F089F80546042D17D10C480069EF
:100F200040F002000A49086108464461006940F047
:100F3000400008614FF4302000F076F80546044880
:100F4000006941F6FD71084001490861284630BD3D
:100F50000020024004200B49C96801F0010109B1D9
:100F600001200EE00749C96801F0040109B102201F
:100F700007E00449C96801F0100109B1032000E04D
:100F800004207047002002400348006940F08000C0
:100F900001490861704700000020024005490968C6
:100FA00021F01001034A11601146096801431160E4
:100FB000704700000020024070B504460D4604262C
:100FC000F00200F031F80646042E11D109480069FC
:100FD00040F00100074908612580F00200F024F884
:100FE00006460448006941F6FE710840014908615F
:100FF000304670BD0020024001460020034A1068C0
:1010000000F03800084310607047000000200240E4
:101010000248034948600348486070472301674518
:1010200000200240AB89EFCD00B502460423FFF754
:1010300091FF034603E0FFF78DFF0346521E012B8D
:1010400001D1002AF7D102B90523184600BD2DE9C8
:10105000F04102460025002600200023002400273E
:1010600091F803C00CF00F0591F803C00CF0100CC0
:10107000BCF1000F03D091F802C04CEA050591F8CD
:1010800000C0BCF1000F31D0146800202BE04FF0FD
:10109000010C0CFA00F3B1F800C00CEA03069E4202
:1010A00020D183004FF00F0C0CFA03F7BC4305FA74
:1010B00003FC4CEA040491F803C0BCF1280F06D1EC
:1010C0004FF0010C0CFA00FCC2F814C00AE091F8D1
:1010D00003C0BCF1480F05D14FF0010C0CFA00FC25
:1010E000C2F810C0401C0828D1D31460B1F800C069
:1010F000BCF1FF0F34DD546800202EE000F1080C35
:101100004FF0010808FA0CF3B1F800C00CEA03062E
:101110009E4221D183004FF00F0C0CFA03F7BC4321
:1011200005FA03FC4CEA040491F803C0BCF1280F53
:1011300005D100F1080C08FA0CF8C2F8148091F8F7
:1011400003C0BCF1480F07D100F1080C4FF00108B3
:1011500008FA0CF8C2F81080401C0828CED354605E
:10116000BDE8F081F0B50A460023002400210025E7
:1011700000F00046B6F1004F02D11D4EF16901E0CA
:101180001B4E7168C0F3034583B200F44016B6F5F8
:10119000401F08D121F07061154E766826F0706608
:1011A000134F7E6012E000F48016B6F5801F06D162
:1011B000032606FA05F4A14341F0706106E0460DEE
:1011C000360103FA06F6B14341F0706122B1460DD3
:1011D000360103FA06F6314300F00046B6F1004F3F
:1011E00002D1034EF16101E0014E7160F0BD0000DB
:1011F000000001400146886880B270470246002026
:1012000093680B400BB1012000E0002070470246BC
:101210000020D3680B400BB1012000E00020704794
:10122000416170470161704710B5044604F5804183
:1012300088B200F001F810BD0146B1F5004F07DBA0
:10124000A1F500404011054B33F91000424203E084
:101250004811024B33F9102010B2704714420008B5
:1012600008B56946082000F0C1FC9DF8000008BDE3
:1012700002490A680260097901717047390100204A
:1012800000BFFEE710B52F48007888B32E480078DD
:10129000401CC0B22C490870142851DB0020087093
:1012A0002A480078401CC1B22848017025480078BF
:1012B000022202EB4000814202DB00202349087039
:1012C0002048007821490978B1EB400F03DB00206A
:1012D00001F0DEFF34E01D48007800F0010018B195
:1012E000012001F0D5FF2BE0002001F0D1FF27E025
:1012F000FFE71748007802280CD113480078401CFB
:10130000C0B21149087005281ADB0020087001F0EE
:1013100085FE15E00F480078012802D101F0B8FFE2
:101320000EE00C48007858B907480078401CC0B25D
:1013300005490870642803DB0020087001F06EFE88
:1013400010BD00004C00002074000020750000203B
:10135000810000208000002000BFFEE770B56D48CE
:10136000B0F9000010F13C0F03DA02206A4908705E
:10137000CEE06848B0F900003C287CDDFF206749DA
:101380000880002066490880FFF780FB65480078E8
:10139000012807D0644800880004644908600120DF
:1013A000604908706248B0F9000050280ADA6148C4
:1013B0000078012806D15E480088801C00B25C4994
:1013C00008800EE05A48B0F9000010F1500F08DD17
:1013D0005848007828B956480088801E00B2544901
:1013E00008805448007850B153480068002810DA4B
:1013F0005148006800F570204F49086009E04E48E8
:101400000068002805DD4C480068A0F570204A49B6
:1014100008604848007810B14FF07E5400E0474C17
:1014200047480078C0B93B48B0F900003C384FF459
:10143000487148434FF4B97190FBF1F000F1640634
:101440003046FEF70EFF05462146FEF79AFE04469B
:10145000FF203C4908601AE02E48B0F900003C38F3
:1014600040F2A46148434FF4B97190FBF1F000F1F0
:101470006406304600E02CE0FEF7F3FE0546214608
:10148000FEF77FFE044640F2FF102E49086020461A
:10149000FEF7F0FE2C4908600A461068224AB2F9AD
:1014A0000010002801DB002903DA00280DDC0029E8
:1014B0000BDC002800DA4042002900DA4942884269
:1014C00006DD0122144B1A7002E00122124B1A7041
:1014D0001EE01048B0F9000010F1320F18DD0D4881
:1014E000B0F90000322813DA7F20164908600D4851
:1014F0000078022802D002200A4908700A480088B1
:1015000000040A49086000200F4908600249087079
:1015100070BD00008E000020100000206000002040
:101520007200002070000020CE0000202C0000205F
:10153000E40000208D0000200C000020000080BF8F
:101540008C000020280000202400002070470000AC
:1015500070B5002100230F22C47804B3154C246811
:1015600004F4E064C4F5E064210AC1F10403CA4054
:10157000447804FA03F184781440214309010E4CA5
:101580000678A155047804F01F050124AC400578C5
:101590006D11AD0005F1E025C5F8004109E00478C2
:1015A00004F01F050124AC40044D0678761145F87F
:1015B000264070BD0CED00E000E400E080E100E0BA
:1015C0007047000010B51E4800681E49884204D2CA
:1015D0001B480068401C1A4908601B480078F0B995
:1015E00001F0D8FC012809D11548006840F6B8314F
:1015F000884224D101201549087020E01048006875
:10160000642803D201201249087018E000200C4918
:10161000086001200C4908700E4908700FE001F0C5
:10162000B9FC012808D106480068B0F5FA6F06D168
:1016300001200749087002E000200149086010BD40
:1016400044000020A0860100410000204800002046
:10165000490000204A00002001460020034A50684B
:1016600020F44040084350607047000000100240E2
:1016700029B1064A52690243044B5A6104E0034A05
:1016800052698243014B5A617047000000100240CA
:1016900029B1064A12690243044B1A6104E0034A65
:1016A00012698243014B1A6170470000001002402A
:1016B00029B1064A92690243044B9A6104E0034A45
:1016C00092698243014B9A6170470000001002400A
:1016D00029B1064AD2680243044BDA6004E0034AA7
:1016E000D2688243014BDA6070470000001002406C
:1016F0000F48006840F001000D4908600846406846
:101700000C4908400A494860084600680A490840F0
:10171000074908600846006820F4802008600846F1
:10172000406820F4FE0048604FF41F008860704756
:10173000001002400000FFF8FFFFF6FE10B5014662
:101740000022002300204A11012A02D1094C2368FB
:1017500006E0022A02D1074C236A01E0054C636AC5
:1017600001F01F02012494401C400CB1012000E054
:10177000002010BD001002400248406800F00C003C
:10178000704700000010024001460020034A5068E4
:1017900020F0F00008435060704700000010024045
:1017A00001490860704700000000424201460020E5
:1017B000034A506820F4E06008435060704700001E
:1017C0000010024001460020034A506820F4605097
:1017D00040EAC100506070470010024001490866AD
:1017E000704700000000424202460020044B586847
:1017F00020F47C1042EA01031843014B5860704703
:101800000010024001460020034A506820F0030007
:10181000084350607047000000100240FEB50646C5
:101820000C460027002504E0605D3844C7B2681C00
:10183000C5B2701EA842F7DC2078CC2841D1072E13
:101840003FD1A079B8423CD15B480078022838D11A
:10185000CC205A4908700120594908700522611CA2
:101860005648401CFEF780FC70B9564800780528A1
:1018700004DD5248401C00F015FB0FE05148007891
:10188000401C5049087009E000204E4908704B4840
:10189000D4F80110C0F80110617941710020474966
:1018A0008871002508E0454880794449495D08442D
:1018B00042498871681CC5B2062DF4DB07204249F5
:1018C00008702078A52860D1052E5ED12079B84215
:1018D0005BD139480078022826D101203B490870A5
:1018E0006846FFF7C5FC00BF39480068401C38490E
:1018F000086000BF72B600BF00BF062269463548C7
:1019000001F0B2F800BF32480068401E304908605C
:101910000846006818B900BF62B600BF00BF00BF2C
:1019200001202549087000BF012025490870E07892
:1019300000F0010028490870E078C0F34000274912
:1019400008706078A17860F31F2108B224490880EC
:10195000AA201A4908702348007848702248007865
:101960008870CC20C87000200871002508E013485A
:1019700000791249495D084410490871681CC5B2D4
:10198000042DF4DB0520104908700F48007888B159
:1019900000F066FBC82001F065FB0B4802780749A0
:1019A000A02000F0F8F900F0C7FF002006490870F9
:1019B00000F02EFBFEBD0000810000204A01002047
:1019C000800000209200002085000020830000207D
:1019D0007C00002000C000088C0000208D0000204A
:1019E0008E00002090000020910000201FB50121F2
:1019F0000C20FFF75DFE01210846FFF759FE01218B
:101A00001A48FFF7AFFBE820ADF80C0003208DF873
:101A10000E0010208DF80F0003A91548FFF717FBE3
:101A20001020ADF80C0048208DF80F0003208DF831
:101A30000E0003A90E48FFF70AFB4FF40040ADF873
:101A40000C0048208DF80F0003208DF80E0003A92C
:101A50000848FFF7FCFAFFF735F806226946064802
:101A600000F0EAFF684600F01DFA1FBD00023000DA
:101A7000000C01400008014000C0000870B5044699
:101A80000D46002005490860224629460448FEF715
:101A900059FB04480470002070BD0000880000203D
:101AA000400100208400002010B54FF40041094897
:101AB000FFF7A4FB68B9084800F06AF80748007807
:101AC00038B1074905480078FFF7A8FE0020034910
:101AD000087010BD000801407D1A00088400002035
:101AE0004001002010B51D480078012817D11C487E
:101AF0000068642802D900201A4908801848006844
:101B0000FA2803D900201549087026E01448006817
:101B1000401C134908600020134908701DE012485A
:101B20000078401CC0B210490870642812DB002005
:101B3000087000F095FAC82001F094FA07220B49CA
:101B4000A02000F028F900F0F7FE002008490870F6
:101B500000F05EFA00200249086010BD80000020FD
:101B6000880000208E000020820000204A01002012
:101B7000850000201CB50020009001900220034940
:101B80000870684600F08EF91CBD0000810000203E
:101B9000F0B589B00546072000F096F8074607F033
:101BA0004000E8B100BF602000F08EF80446202C11
:101BB0000ADC224601A9612000F060F844B13DB181
:101BC00001A92046A84703E00021E22000F0C4F864
:101BD000172000F079F8064606F001000028E2D050
:101BE0003946272000F0B8F809B0F0BD70B50446BA
:101BF0000D46012000F0FAF904222946204600F0A3
:101C00003DF8002000F0F2F970BD70B504460D46B5
:101C1000012000F0EBF904222946204600F074F878
:101C2000002000F0E3F970BD70B5044600251EE009
:101C300004F0800020B120210F48FFF7F3FA03E001
:101C400020210D48FFF7ECFA6006040E08210A482F
:101C5000FFF7E8FA10210848FFF7D0FA08B144F07E
:101C6000010408210448FFF7DBFA681CC5B2082DFF
:101C7000DEDB204670BD0000000C01402DE9F04184
:101C800007460D46164680210E48FFF7C9FA0A207E
:101C900001F0E8F93846FFF7C7FF8046002405E069
:101CA0000020FFF7C1FF2855601CC4B2B442F7DB27
:101CB00080210448FFF7B6FA0A2001F0D3F9BDE805
:101CC000F0810000000C014070B5044680210C48F2
:101CD000FFF7A6FA0A2001F0C5F92046FFF7A4FF96
:101CE000084908700020FFF79FFF0546802104483F
:101CF000FFF798FA0A2001F0B5F9284670BD0000F8
:101D0000000C0140380100202DE9F04107460C4647
:101D1000154680210E48FFF783FA0A2001F0A2F948
:101D20003846FFF781FF0B490870002605E014F8DC
:101D3000010BFFF779FF701CC6B2AE42F7DB8021C2
:101D40000348FFF76FFA0A2001F08CF9BDE8F08133
:101D5000000C01403801002070B505460C4680217A
:101D60000A48FFF75DFA0A2001F07CF92846FFF7E0
:101D70005BFF074908702046FFF756FF80210348A4
:101D8000FFF750FA0A2001F06DF970BD000C014018
:101D90003801002070472DE9F04104460D461646F3
:101DA0001720FFF791FF074607F0200020B93246C1
:101DB00029462046FFF7A8FFBDE8F08110B500F0E6
:101DC00001F810BD0CB50020019000903348006868
:101DD00040F480303149086000BF3048006800F4AA
:101DE000003000900198401C0190009818B90198AB
:101DF000B0F5A06FF1D12948006800F4003010B1AF
:101E00000120009001E0002000900098012843D1BB
:101E10002348006840F01000214908600846006827
:101E200020F0030008600846006840F002000860E7
:101E30001A484068194948600846406848600846A2
:101E4000406840F4806048600846406820F47C1098
:101E500048600846406840F4E8104860084600685A
:101E600040F08070086000BF0C48006800F000700F
:101E70000028F9D00948406820F00300074948606D
:101E80000846406840F00200486000BF03484068D0
:101E900000F00C000828F9D10CBD00000010024031
:101EA0000020024010B504460748216801602179EE
:101EB0000171052221462A20FFF726FF052221462F
:101EC0003020FFF721FF10BD3901002038B505464D
:101ED000002408E00E480068E100C840C0B20DF8D8
:101EE0000400601CC4B2042CF4DB35B19DF8010081
:101EF00040F020008DF8010005E09DF8010000F0A1
:101F0000DF008DF8010069462420FFF77EFE38BD12
:101F1000344A00082C480078401C2B4908700846B9
:101F2000007850284EDD002008702849B1F90010D3
:101F3000274A1268C1EB224000043C2190FBF1F1DA
:101F4000C82291FBF2F023490968234A126800FB7A
:101F50000211204A116011460968B1F17A7F03DD50
:101F60004FF07A71116007E01A49096811F17A7F20
:101F700002DA1A49174A116016490968184A1268A4
:101F800000FB0211174A1268821A134B1B6803FBED
:101F900002110914144A1180124908601146B1F95E
:101FA0000010B1F57A7F02DD4FF47A7111800E498D
:101FB000B1F9001011F57A7F03DA4FF618410A4A99
:101FC000118000BF7047000012000020CE000020EA
:101FD0002C0000200C00002018000020000018FC3D
:101FE00014000020200000200400002070B50446EA
:101FF0000720FFF769FE054605F0800505B10CB125
:1020000025B91CB153215020FFF7A6FE70BD00007A
:1020100010B50021E220FFF79FFE0720FFF754FED6
:10202000044621462720FFF797FE40210B48FFF783
:10203000F7F80A2001F016F80020FFF745FE0446E5
:1020400044F0010421462020FFF786FE402103488A
:10205000FFF7E8F80A2001F005F810BD000C014078
:1020600010B50021E120FFF777FE40210B48FFF774
:10207000D7F80A2000F0F6FF0020FFF725FE0446FF
:1020800004F0FE0421462020FFF766FE40210348AD
:10209000FFF7C8F80A2000F0E5FF10BD000C014072
:1020A00023480068C0EB00108000C0EB00108000E7
:1020B00000EB40001F490968B1EBC00F05D21D4875
:1020C0000068401C1B49086002E0002019490860B4
:1020D000174800684FF47A71B0FBF1F015490968B0
:1020E000B1FBF0F200FB121010B901201249087088
:1020F0000F4800686421B0FBF1F00E490968B1FB9C
:10210000F0F200FB121010B901200C4908700848C9
:1021100000680A21B0FBF1F006490968B1FBF0F252
:1021200000FB121010B9012005490870704700002B
:10213000D4000020D8000020DC000020DD000020BA
:10214000DE0000201648007840BB1648007828B111
:1021500008201349087004201349087013480078B8
:1021600020B101200E4908700F490870104800780E
:1021700028B101200A49087002200B4908700D4857
:10218000007828B10220064908700320064908702B
:102190000348007810B1012007490870704700001B
:1021A000910000203C0000204C0000206400002032
:1021B000C6000020630000204B00002010B51E4820
:1021C000007880B100201C49087001F061F800F02F
:1021D00071FF00BF00F0DEFE0128FBD0002001F0FF
:1021E00069F800BFFEE71548007838B100201349B0
:1021F0000870FF2012490870FFF7BCFC11480078F6
:1022000028B100200F49087001200D4908700E48C0
:10221000007810B102200A4908700C48007850B1CB
:102220000748007838B90120054908700849087046
:1022300000200849087010BD490000204800002017
:1022400040000020830000204B0000204A000020B6
:10225000810000208000002010B51348006840F085
:1022600001001149086008464068104908400E49BD
:102270004860084600680E4908400B490860084657
:10228000006820F4802008600846406820F4FE00C2
:1022900048604FF41F008860FFF790FD4FF000602A
:1022A0000449086010BD0000001002400000FFF863
:1022B000FFFFF6FE08ED00E00A884B881A438B8882
:1022C0001A43CB881A430B891A434B891A438B89CB
:1022D0001A43A0F84420704721B1028842F001025D
:1022E000028004E002884FF6FE731A4002807047B5
:1022F00031B1B0F8442042F40042A0F8442005E097
:10230000B0F84420C2F30E02A0F844207047000049
:1023100010B504466848844208D10121C014FFF773
:10232000D7F90021E014FFF7D3F9C4E0B4F1804FEE
:1023300008D101210846FFF7ABF900210120FFF782
:10234000A7F9B8E05D48844208D101210220FFF7D7
:102350009FF900210220FFF79BF9ACE05848844226
:1023600008D101210420FFF793F900210420FFF791
:102370008FF9A0E05348844208D101210820FFF7DB
:1023800087F900210820FFF783F994E04E48844242
:1023900008D101211020FFF77BF900211020FFF761
:1023A00077F988E04948844208D101212020FFF7CD
:1023B0006FF900212020FFF76BF97CE0444884424C
:1023C00008D101214014FFF783F900216014FFF7C1
:1023D0007FF970E03F48844209D10121C804FFF72A
:1023E00077F900214FF40020FFF772F963E03A48D3
:1023F000844209D101210805FFF76AF900214FF451
:102400008010FFF765F956E03448844209D1012174
:102410004805FFF75DF900214FF40010FFF758F968
:1024200049E02F48844208D101214020FFF730F9CC
:1024300000214020FFF72CF93DE02A48844208D1D2
:1024400001218020FFF724F900218020FFF720F9E7
:1024500031E02548844208D101218015FFF718F9A1
:102460000021A015FFF714F925E02048844209D186
:1024700001210804FFF72CF900214FF48030FFF709
:1024800027F918E01A48844209D101214804FFF7CE
:102490001FF900214FF40030FFF71AF90BE015483F
:1024A000844208D101218804FFF712F900214FF47A
:1024B0008020FFF70DF910BD002C01400004004002
:1024C00000080040000C00400010004000140040D4
:1024D00000340140004C01400050014000540140D4
:1024E00000180040001C0040002000400040014057
:1024F000004401400048014070B500240022002340
:10250000058C4FF6FE7635400584028C8388048B5B
:102510004FF68F752C40B51E2C400D882C43751E30
:102520002A400D892A434D882A43144DA8420BD0D6
:10253000134DA84208D0134DA84205D0124DA84211
:1025400002D0124DA84213D14FF6F7752A404D899B
:102550002A434FF6FB752A408D882A434FF6FF65C4
:102560002B404FF6FF552B408D892B43CD892B43B4
:1025700083800483CD888586028470BD002C014051
:102580000034014000400140004401400048014047
:102590000A460021018B4FF6F7731940114301835E
:1025A0007047000070B5002400220023058C4FF610
:1025B000EF7635400584028C8388048B48F6FF75DE
:1025C0002C404FF6FF452C400D884FF6FF7606EA6B
:1025D00005252C434FF6DF752A400D8906EA0515BF
:1025E0002A434D8806EA05152A43154DA84202D014
:1025F000144DA8421DD14FF67F752A404D894FF6E4
:10260000FF7606EA05152A434FF6BF752A408D88E6
:1026100006EA05152A434FF6FF352B404FF2FF75AA
:102620002B408D8906EA85052B43CD8906EA850571
:102630002B4383800483CD880587028470BD00000E
:10264000002C0140003401400A460021018B4FF26A
:10265000FF7319404FF6FF7303EA02231943018306
:102660007047000070B5002400220023058C4FF64F
:10267000FF6635400584028C8388848B4FF68F7506
:102680002C404FF6FC752C400D882C434FF6FF551F
:102690002A400D894FF6FF7606EA05252A434D8824
:1026A00006EA05252A43154DA84202D0144DA8423A
:1026B0001DD14FF2FF752A404D894FF6FF7606EA8D
:1026C00005252A434FF6FF352A408D8806EA052561
:1026D0002A434EF6FF752B404DF6FF752B408D8932
:1026E00006EA05152B43CD8906EA05152B438380A1
:1026F0008483CD888587028470BD0000002C014052
:10270000003401400A460021818B4FF6F7731940CF
:10271000114381837047000070B50022002300241C
:10272000058C4EF6FF7635400584038C8488828BB9
:1027300048F6FF752A404FF6FF452A400D884FF6B0
:10274000FF7606EA05252A434DF6FF752B400D89D5
:1027500006EA05352B434D8806EA05352B430B4D1C
:10276000A84202D00A4DA84208D14BF6FF752C4072
:102770008D894FF6FF7606EA85152C438480828387
:10278000CD88A0F84050038470BD0000002C0140AB
:10279000003401400A460021818B4FF2FF7319403B
:1027A0004FF6FF7303EA022319438183704782883F
:1027B0004FF68F731A40828082880A438280704766
:1027C00081867047018770478187704700220288A1
:1027D0001D4B98420ED01D4B98420BD0B0F1804F4C
:1027E00008D01B4B984205D01A4B984202D01A4B86
:1027F000984204D14FF68F731A404B881A43174BF7
:10280000984207D0164B984204D04FF6FF431A4027
:10281000CB881A4302808B8883850B8803850A4BFB
:1028200098420BD0094B984208D00E4B984205D0E5
:102830000D4B984202D00D4B984201D10B7A038682
:102840000123838270470000002C014000340140C6
:102850000004004000080040000C00400010004050
:102860000014004000400140004401400048014085
:102870002E4AB2F90020002A04DA2C4A1288524269
:1028800011B202E0294AB2F90010294AB2F9002037
:10289000002A04DA264A1288524210B202E0244A80
:1028A000B2F90000814205DC204AB2F90020204B39
:1028B0001A803AE01E4AB2F900201C4BB3F90030EE
:1028C0009A4215DD1A4AB2F90030184AB2F90020CE
:1028D000921C934205DC154AB2F90020144B1A8071
:1028E00023E0134A1288921E12B2114B1A801CE088
:1028F0000F4AB2F900200D4BB3F900309A4214DAB6
:102900000B4AB2F90020921C084BB3F900309A42EE
:1029100005DB064AB2F90020054B1A8005E0044A9F
:102920001288921C12B2024B1A80704704000020D9
:10293000E400002000BFFEE71CB5002001900090DD
:1029400027E00720FFF7C0F901909DF8040000F090
:10295000100030B110212720FFF7FEF94FF0FF30B3
:102960001CBD9DF8040000F0200028B12021272084
:10297000FFF7F2F90020F3E70120FEF7B8FA9DF81F
:102980000000401CC0B20090052802DB6FF001007F
:10299000E6E7D6E770B504462046FDF762FC05463B
:1029A0004FF08F41FDF71FFC70BD2DE9F041064649
:1029B0000F46904686FB0745424620462946FDF7CE
:1029C000B1FBBDE8F08102E008C8121F08C1002A6F
:1029D000FAD170477047002001E001C1121F002AA0
:1029E000FBD17047F0B5034698180F4FB84201D994
:1029F0000320F0BD0AB90020FBE7012600240BE00C
:102A00001D780878A84204D0FF2D01D00220F0E7FD
:102A100000265B1C491C641C9442F1D3012E01D199
:102A20000020E6E70120E4E700000108014600205D
:102A3000C80AC0027047000030B503469818094D17
:102A4000A84201D9012030BD0AB90120FBE70024CA
:102A500004E013F8010B01F8010B641C9442F8D355
:102A60000020F0E7000001082DE9F05F07468846E6
:102A700014464FF0040938192949884202D9012027
:102A8000BDE8F09F0CB90020FAE704F0010008B19E
:102A90000120F5E7224641463846FFF7A3FF0646E8
:102AA0000EB90020ECE7012080F3108800BFFEF78C
:102AB000AFFA3520FEF722FA022E0BD13846FFF787
:102AC000B5FF8346FEF720FA8146B9F1040F01D025
:102AD0000220D5E7002512E018F815A06800401C78
:102AE00018F800004AEA002A51463846FEF764FA10
:102AF0008146B9F1040F00D004E0BF1C6D1CB5EB9A
:102B0000540FE9D300BFFEF73FFA002080F310888E
:102B100000BFB9F1040F00D1B2E70220B0E7000016
:102B20000000010800F0D6FB4FF47A7000F0F8F9CD
:102B300000F034FB012000F0BDFB642000F084FABB
:102B4000FEF754FF4FF4FA4000F072F800F004FB77
:102B500000F0FEFA002421462C48FFF731FE00BFAA
:102B600000BF21462948FFF72DFE00BF00BF2146C8
:102B70002648FFF729FE00BF00F0A4FA00F030FB62
:102B800010B101202249087000F094FA44F2E810D4
:102B90002049088000202049088020490870012031
:102BA0001F49087031E0FEF77FFF1E48007800B330
:102BB00000201C490870FEF705FDFFF7FFFA1A48D0
:102BC000007818B9012000F063FB0EE0164890F978
:102BD0000000401C48B114480078012804D1FEF7D9
:102BE000BDFBFFF7AFFA00E000BFFEF76FF8FEF79E
:102BF0002FF80E48007840B100200C490870FEF70D
:102C000071FFFEF73FFBFDF747FFCCE7002C0140CB
:102C10003C000020A4000020CE0000201000002076
:102C200034000020DC00002040000020DD000020F7
:102C300010B59CB0044601F0CDFA00F071FDB34828
:102C4000FFF766FB0320ADF824002020ADF8260036
:102C500040F2FF10ADF828000020ADF82A00012056
:102C60008DF82C0009A9A948FFF7B0FD6020ADF848
:102C700014000120ADF816000420ADF81800002063
:102C8000ADF81C00ADF81E00ADF82000ADF8220034
:102C9000ADF81A0005A99D48FFF72EFC0020ADF8FD
:102CA0001A0005A99948FFF77DFC0020ADF81A002D
:102CB00005A99648FFF7D6FC0120ADF816000420C0
:102CC000ADF818004FF4FF70ADF81A0005A98F4851
:102CD000FFF722FD4FF40060ADF804004010ADF89E
:102CE00006000020ADF808004020ADF80A000020E2
:102CF000ADF80C00ADF80E00ADF8100001A9834846
:102D0000FFF7DAFA08218148FFF742FC08217F48E3
:102D1000FFF79AFC08217D48FFF7F4FC08217B4867
:102D2000FFF738FD7A48FEF71DF87A480C907A488C
:102D30000D9000200E9020200F90002010908020F9
:102D400011908000129080001390202014900002B7
:102D50001590002016900CA96D48FEF7A9F80121E6
:102D60006B48FDF7F3FF0120FDF74AFE4FF480307A
:102D7000179001208DF860008DF861004FF46020FD
:102D8000199000201A9002208DF86C0017A9614854
:102D90004C38FDF74FFD4FF48030179001208DF82F
:102DA00060008DF861004FF46020199000201A90A7
:102DB00002208DF86C0017A95848FDF73BFD07234A
:102DC0000122022153484C38FDF7A9FD07230222B6
:102DD000194650484C38FDF7A2FD01214D484C38AA
:102DE000FDF791FD01231A4608214A484C38FDF7AA
:102DF00049FD002147484C38FDF7D3FC0723012249
:102E000000214648FDF78BFD07230222012143489C
:102E1000FDF785FD01214148FDF775FD01231A46A7
:102E200009213E48FDF72EFD4FF4E0413B48FDF7F8
:102E3000B8FC012137484C38FDF792FC0021354899
:102E40004C38FDF798FC012132484C38FDF79EFCC8
:102E500001213248FDF78FFC01213048FDF796FC37
:102E600001224FF490612B484C38FDF7D6FC01212C
:102E700028484C38FDF769FC26484C38FDF7ABFD77
:102E800000BF24484C38FDF7BEFC0028F9D121488A
:102E90004C38FDF7B0FD00BF1E484C38FDF789FCEB
:102EA0000028F9D101211D48FDF74FFC1B48FDF713
:102EB00092FD00BF1948FDF7A6FC0028FAD115487D
:102EC0004C38FDF798FD00BF12484C38FDF771FCF7
:102ED0000028F9D101210F484C38FDF781FD01216F
:102EE0000A48FFF7F9F900210848FFF701FA7021B5
:102EF0000648FFF75CFC4FF4906106484C38FDF73C
:102F00001FFC01F057F900201CB010BD002C01403F
:102F1000080002404C2401405401002000280140D8
:102F200070B5014617480068B0FBF1F2B2F1807F3E
:102F300001D301201DE022F07F40401E4FF0E0232E
:102F4000586158170F23002807DA1C07260E0E4C6D
:102F500000F00F052D1F665503E01C07250E0B4CD6
:102F6000255400BF00204FF0E0239861072018612E
:102F7000002010B14FF0FF3070BD05480160002007
:102F8000FAE700002001002018ED00E000E400E076
:102F9000D400002010B510210448FEF72FF9044694
:102FA000034900F00FF80248007C10BD0008014002
:102FB0000801002010B50248FEF71CF9400B10BDB7
:102FC0000010014018B10A68521C0A6002E00A6849
:102FD000521E0A60D1E900239A4203DD4A680A6062
:102FE00001220A618B680A689A4203DA8A680A60D9
:102FF00000220A61D1E903325A404A610A69CA6073
:10300000704700000448008840F21111084302494B
:103010000880002070470000202C014010B54FF4BC
:1030200000710848FEF7F3F828B14FF40071054825
:10303000FEF7F6F804E04FF400710248FEF7F2F8EC
:1030400010BD0000000C014010B5044603E040F242
:10305000E63000F007F8201EA4F101018CB2F6D191
:1030600010BD0000F0B5034600224FF0E026756960
:103070000E4E36680E4FB6FBF7F606FB03F400BFA4
:103080004FF0E026B1690DE04FF0E026B0698842CC
:1030900008D0884202D20E1A324402E02E1A0E44A0
:1030A00032440146A242EFD3F0BD000020010020CF
:1030B00040420F0010B500210148FFF719F910BD7B
:1030C000002C014010B501210148FFF711F910BD96
:1030D000002C014070B50025002400BF09E001204C
:1030E00000EB4400084951F8200080B205EB0015C0
:1030F000641C102CF3DB2D11102204492846FFF725
:1031000054FC0546284670BD54010020A88B680079
:1031100070B50025002400BF0AE0012000EB440048
:10312000094951F820006FF30F0005EB1035641CBE
:10313000102CF2DB2D11102204492846FFF735FC34
:103140000546284670BD00005401002066E62A00AE
:1031500010B500F02DFB10BD38B503208DF802002E
:1031600004208DF803001020ADF8000069460948DE
:10317000FDF76DFF002400BF08E010210548FEF7B1
:103180003DF805460449FFF71DFF641C142CF4DBD1
:1031900038BD0000000801400801002008B50121E9
:1031A0000C20FEF785FA002000F072F84FF4007052
:1031B000ADF8000003208DF8020010208DF8030008
:1031C00069460548FDF743FF2020ADF80000694639
:1031D0000248FDF73CFF08BD000C0140000801401B
:1031E0002DE9F041002500260027002418E000BF4B
:1031F000214800780028FBD000201F4908701F4894
:10320000B0F9000005441E48B0F900000644FFF77D
:1032100061FF1C49096808441A490860601CC4B26F
:10322000202CE4DBC5F34F1017490880C6F34F107C
:103230001649088013480068401112490860124876
:103240000088B0F5106F04DA0F480088B0F5C06F41
:1032500003DA4FF0FF30BDE8F0810C480088B0F58C
:10326000106F04DA09480088B0F5C06F02DA6FF019
:103270000100F0E70020EEE7DC000020060000205F
:103280000800002058000020980000209A0000202C
:1032900010B504462CB14FF400710548FDF7C2FF8C
:1032A00004E04FF400710248FDF7BAFF10BD0000C2
:1032B000000C014010B5044624B120210448FDF75C
:1032C000B1FF03E020210248FDF7AAFF10BD000076
:1032D0000008014010B5FEF70BFA0120FEF760FA76
:1032E00000BF2120FEF72AFA0028FAD01020FDF7AF
:1032F00055FE0220FDF780FE0020FEF745FA002073
:10330000FEF760FA4FF48060FEF750FA4FF4601158
:103310000020FEF769FA0120FEF760FA00BF3920AD
:10332000FEF70CFA0028FAD00220FEF76BFA00BF75
:10333000FEF722FA0828FBD101480249086010BDB7
:103340000090D003200100200A48B0F900000A498B
:1033500008800848B0F900000849B1F900100222BD
:1033600002FB010044F6E6114843C01300B20449D1
:1033700008807047F2000020F4000020F0000020D8
:10338000F600002030B5164C2488644222B2002A90
:1033900005DC01DB002103E04FF0FF3100E00121FB
:1033A000104C24880C4424B20E4D2C802C462488CA
:1033B00004EBA20423B2184610F5804F04DA0A4841
:1033C0004FF440442C8007E0B0F5804F04DD4FF40B
:1033D00080400446034D2C808411044D2C8030BD68
:1033E000F8000020FC00002000C0FFFFE6000020E5
:1033F00000B519480088FDF71FFF184908801648D6
:103400000088FDF711FF164908801648B0F9000042
:10341000B1F9001048431449B1F900100F4AB2F94C
:10342000002001FB1200C01300B2104908800E48B2
:10343000B0F900000A49B1F9001048430949B1F94F
:103440000010064AB2F9002001FB0200C01300B2CE
:103450000749088000BD0000CC000020FE000020CD
:1034600000010020E6000020E4000020E800002029
:10347000EA0000200020034908800349088003492E
:1034800008807047FC000020F8000020E6000020C3
:103490001E49B1F900101E4AB2F9002051431D4ADD
:1034A000B2F900201C4BB3F9003002FB0311C81322
:1034B0001A49B1F9001044F65D72514343F2A30278
:1034C00002FB0011C91309B2144A11801149B1F964
:1034D00000100F4AB2F9002051430C4AB2F9002003
:1034E0000D4BB3F9003002FB1311C8130B49B1F9AE
:1034F000001044F65D72514343F2A30202FB001137
:10350000C91309B2064A118070470000F400002078
:1035100000010020F6000020FE000020F80000203E
:10352000FA0000202DE9F043DFF8E481B8F90060EB
:10353000DFF8E081B8F9008040F6DB5908FB09F8B4
:10354000DFF8CC91B9F80090C9EBE8280FFA88F7BA
:10355000DFF8C081B8F9008040F6DB5908FB09F8B4
:10356000DFF8AC91B9F8009009EBE828C8F1000841
:103570000FFA88FC4FF00008DFF89C9189F8008072
:10358000002E03DD4FF0010889F80080002F0BDDCD
:10359000DFF8848198F8008008F102084FFA88F873
:1035A000DFF8749189F80080BCF1000F0BDDDFF8C3
:1035B000688198F8008008F104084FFA88F8DFF86D
:1035C000589189F80080C6EB06284FEAA820CCF174
:1035D00000084FEA6808C8EB08284FEAA821C7F19D
:1035E00000084FEA6808C8EB08284FEAA822DFF86D
:1035F000288198F90080B8F1070F6DD2DFE808F054
:103600000408192A3A4A5B00FF23FF24FF2567E0DC
:10361000C2F1FF0888440FFA88F302F1FF088844DA
:103620000FFA88F4C2F1FF08A8EB01080FFA88F539
:1036300056E0C0F1FF0888440FFA88F3C1F1FF0893
:1036400080440FFA88F4C1F1FF08A8EB00080FFAD4
:1036500088F545E0C2F1FF0880440FFA88F302F1D3
:10366000FF0880440FFA88F4C0F1FF0890440FFA75
:1036700088F535E0C2F1FF0880440FFA88F302F1C3
:10368000FF0880440FFA88F4C0F1FF0890440FFA55
:1036900088F525E0C0F1FF0888440FFA88F3C1F1EE
:1036A000FF0880440FFA88F4C1F1FF08A8EB000876
:1036B0000FFA88F514E0C2F1FF0888440FFA88F386
:1036C00002F1FF0888440FFA88F4C2F1FF08A8EB62
:1036D00001080FFA88F503E0FF23FF24FF2500BF50
:1036E00000BF002B00DA0023002C00DA0024002D9C
:1036F00000DA0025DFF82490A9F8003009F1040968
:10370000A9F8004009F10409A9F80050BDE8F083C8
:10371000EA000020E800002002010020342C0140D3
:1037200008B5C720ADF8000000208DF803006946F9
:103730001C48FDF78CFC0320ADF8000000208DF83C
:10374000030069461848FDF782FC3020ADF8000000
:1037500000208DF8030069461448FDF778FC182016
:103760008DF8030003208DF802004FF4E060ADF8FF
:10377000000069460B48FDF76AFC4FF46040ADF865
:10378000000069460848FDF762FC4FF48050ADF830
:10379000000048208DF8030069460348FDF757FCF8
:1037A00008BD000000080140000C0140001001406D
:1037B00008B501211020FDF77BFF4FF46040ADF804
:1037C000000048208DF8030003208DF802006946B0
:1037D0000148FDF73CFC08BD0010014010B5FE4853
:1037E000008840F6FC21884204DAFB480088401C2F
:1037F000F9490880F848008840F6FC2188420ADB35
:1038000044F2E810F54908800020F5490870F549B0
:103810000870F5490870F148B0F9000040F68501DC
:1038200088420ADCEC48008800EB8000884201DD19
:10383000012000E00020401E18B1EC480088EC494F
:103840000880E648B0F9000041F2DB11884210DC44
:10385000E148008800EB40004000884209DCE54870
:103860000078062819DB0020E3490870E349087056
:1038700013E0DA48B0F9000041F2DB1188420CDBBA
:10388000D548008800EB40004000884205DB01205D
:10389000D94908700020D7490870D9480078002815
:1038A00063D0D8480078062832D1D14800884FF636
:1038B000FF7188422CD0D4480078A8B1CC48008849
:1038C000D2490988401AD2490988884204DCC8488C
:1038D0000088CF490880A2E0CD480088CB490988FC
:1038E0000844CB4908809AE0C84800884FF6FF7129
:1038F000081AC7490988884202DA0120C2490870BB
:10390000C3480088C14909880844C149088086E045
:10391000C048007898B1BD4800884FF6FF71081A7A
:10392000BB490988884202DA0020BA490870B848C1
:103930000088B64909880844B54908806FE0AC485A
:103940000088B2490988401AB1490988884204DCD4
:10395000A7480088AE49088061E0AD480088AB49BF
:1039600009880844AA49088059E0A6480078012837
:103970002CD19F48008848B3A3480078A8B19C4840
:103980000088A24909880844A1490988884204DBC3
:10399000974800889E49088041E09D4800889B49DF
:1039A0000988401A9A49088039E09948008897495F
:1039B0000988884202DA01209349087094480088F7
:1039C00092490988401A9249088028E09148007875
:1039D00080B18F4800888D490988884202DA00202A
:1039E0008C4908708A48008888490988401A8849A3
:1039F000088014E07E480088844909880844844986
:103A00000988884204DB7A4800888149088006E0FA
:103A10007F4800887D490988401A7D490880FFF762
:103A2000C9FA7D49087008460078072802D0084680
:103A3000007868B9794800781E280CDA7748007851
:103A4000401C76490870764800787349087002E097
:103A5000002072490870724800786F4909788842DE
:103A600072D000206B49087001205D4908706D48D4
:103A700069490978405C63490978401A40B26A494B
:103A8000087008460078012804D0084690F9000024
:103A9000401D18B901205A4908700BE0624890F99E
:103AA0000000401C18B160480078052802D10020B1
:103AB000534908705D4800785149097888420AD016
:103AC00044F2E810454908800020454908704549FE
:103AD0000870454908704A480078544908704548BC
:103AE0000078062804DA43480078401C41490870F1
:103AF000394800884E493C4A127821F812000020CB
:103B0000354908803748007878B10021002006E068
:103B1000474A32F810200A4491B2421CD0B206281B
:103B2000F6DB0AB22D4B1A801DE02D48007860B1FB
:103B30003F482D49097830F8110000EB4000400063
:103B400000B22649088007E0D4E244F2E810234995
:103B5000088001202849087023480078052802D1F0
:103B600001202049087020480078401CC0B21E493E
:103B70000870062801DB002008701848B0F9000022
:103B80002E2802DA2E201549088026482249097875
:103B9000405C1C4908702048007821490870194889
:103BA0000078002879D016480078002876D015488B
:103BB0000078072857D2DFE800F0D60457728BA4AC
:103BC000BD0041F255501B49088000201A49088069
:103BD0004EF61640194933E0AE000020A400002044
:103BE000A9000020A6000020A7000020BA000020A5
:103BF000C4000020AD000020B0000020C70000205D
:103C0000AB000020A3000020BE000020C800002060
:103C1000C0000020A8000020A0000020A20000207A
:103C2000A10000200C420008AA000020AC000020E7
:103C3000D4010020B2000020B4000020B600002013
:103C4000088041F2E930FA49088042F6AA20F94991
:103C5000088043F69360F8490880F848007810B966
:103C60000120F74908707FE043F6FF70F5490880AE
:103C700042F6AA20F449088041F2C160F349088065
:103C800043F69360EA49088045F25550E9490880B7
:103C900046F63E10E849088066E0F5E16EE046F63B
:103CA000AA20E849088045F25550E749088044F2C7
:103CB0006C10E649088046F63E10DD4908804FF456
:103CC0000040DC49088049F2E930DB4908804BE0DC
:103CD00049F25550DB4908804FF40040DA4908802A
:103CE00046F61740D949088049F2E930D0490880A2
:103CF0004AF6AA20CF4908804BF69360CE49088047
:103D000032E04BF6FF70CF4908804AF6AA20CE4930
:103D1000088049F2C160CD4908804BF69360C449E0
:103D200008804DF25550C34908804EF63E10C249F6
:103D3000088019E04EF6AA20C24908804DF255507D
:103D4000C14908804CF26C10C04908804EF63E1004
:103D5000B74908804FF6FF70B649088041F2E93054
:103D6000B549088000E000BF00BFB7480088B849E7
:103D70000988401A00B2B7490880ADE0B64800781B
:103D800007281BD2DFE800F09E041B344D667F003D
:103D900041F25550AB4908804000AB49088041F2E0
:103DA000C160AA49088043F69360A14908800020B9
:103DB000A04908804EF616409F49088083E043F6EC
:103DC000FF70A049088045F255509F49088044F291
:103DD0006C109E49088046F63E109549088042F6D0
:103DE000AA209449088041F2C160934908806AE0A2
:103DF00046F6AA20934908804FF400409249088073
:103E000046F617409149088049F2E9308849088010
:103E100045F255508749088044F26C108649088065
:103E200051E049F25550874908804AF6AA20864950
:103E3000088049F2C160854908804BF693607C494F
:103E400008804FF400407B49088046F617407A49C5
:103E5000088038E04BF6FF707A4908804DF25550E3
:103E6000794908804CF26C10784908804EF63E1073
:103E70006F4908804AF6AA206E49088049F2C1605D
:103E80006D4908801FE04EF6AA206E4908804FF663
:103E9000FF706D4908804EF616406C49088041F26B
:103EA000E930634908804DF25550624908804CF270
:103EB0006C10614908806148007810B901206049A0
:103EC000087000E000BF00BF614800885E490988B3
:103ED000401A00B25F4908806048B0F9000040F61F
:103EE000850188426FDC5E48007800286BD052481C
:103EF00000885C4908805C480078E8B35648007840
:103F0000012822D14D48007878B1514800884849AD
:103F10000988884208DD4C4800884D490880002007
:103F20004C49088046490870B8E04948008847492C
:103F30000988884208DA44480088454908800020FA
:103F4000444908803E490870A8E0434800780628A4
:103F50000AD14248B0F9000040F68501884203DDED
:103F60004FF6FF703F49088039480088304909887A
:103F7000884207DC364800E00EE0008833490988B3
:103F8000884208DA304800883149088000203149E9
:103F900008802B49087081E02F480078062823D13B
:103FA0002648007880B12A48008828490988884234
:103FB00074DA2548008826490880002025490880B1
:103FC0001F4908706AE051E02148008818490988B3
:103FD000884263DD1C4800881D49088000201D4977
:103FE00008801749087059E01B480078012809D15A
:103FF0001A48B0F9000040F68501884202DD002031
:10400000184908801248008809490988884205DC57
:104010000F4800880D49098888423FDA0A4800881D
:104020000B49088000200B4908800549087035E0DD
:10403000B8000020BA000020BC000020BE00002014
:10404000A8000020B2000020B4000020B60000202C
:10405000C0000020C2000020A3000020A400002017
:10406000A6000020C4000020AB0000203F480088CC
:104070003F4908803F4800883F49088000203F4969
:1040800008803F49087009E001203E49087000BFE0
:1040900000213D48FEF72CF900BF00BF00203B493E
:1040A000B1F9001040F68502914206DC3749B1F9BA
:1040B0000010374A1288881A00E000203349B1F90D
:1040C000001001442D4AB2F900204FF6FF731A4444
:1040D00002EB61012D4AB2F90020024491FBF2F19A
:1040E0002C4A118000212C4A117028490988284A3D
:1040F000118000BF2948007818B1294800881C4960
:1041000008801B480088274908802448007838B177
:104110000846008841F27C2108442249088010E0CA
:104120002148007838B11F48008841F2C161084435
:104130001C49088005E01B48008800F637601949D3
:1041400008801249B1F90010184A92FBF1F108B247
:104150000A2800DA00201449097821B9414209B23D
:10416000134A118001E01249088010BDB4000020FC
:10417000C0000020BA000020C4000020C2000020BF
:10418000A8000020C6000020002C0140A400002050
:10419000CA000020C8000020BE000020B00000209F
:1041A000B2000020CC000020AB000020007701000E
:1041B000CE00002008B512208DF8000000208DF8F8
:1041C00001008DF8020001208DF803006846FDF71C
:1041D000BFF908BD10B50121C802FDF769FA012138
:1041E0000C20FDF765FA012140F60D00FDF760FA9D
:1041F0004FF48040FDF730FA01210846FDF738FA08
:10420000012140F21C60FDF753FA10BD00020403C7
:104210000601050000006400C9002D019201F701AC
:104220005B02C00224038903EE035204B7041B059A
:104230008005E4054906AD0612077607DB073F084F
:10424000A40808096C09D109350A990AFE0A620B0B
:10425000C60B2A0C8E0CF20C570DBB0D1F0E830ED5
:10426000E70E4B0FAE0F12107610DA103E11A111AF
:1042700005126912CC1230139313F6135A14BD149D
:1042800020158415E7154A16AD1610177317D617A3
:1042900039189B18FE186119C319261A881AEB1AC7
:1042A0004D1BAF1B121C741CD61C381D9A1DFC1D07
:1042B0005D1EBF1E211F821FE41F4520A72008216D
:1042C0006921CA212B228C22ED224E23AE230F24FA
:1042D0007024D02430259125F1255126B1261127AF
:1042E0007027D02730288F28EE284E29AD290C2A98
:1042F0006B2ACA2A292B872BE62B442CA32C012DB1
:104300005F2DBD2D1B2E792ED72E342F922FEF2F00
:104310004C30A93007316331C0311D327932D63289
:1043200032338E33EA334634A234FE345935B53550
:1043300010366B36C63621377C37D63731388B3856
:10434000E5383F399939F3394D3AA63A003B593BA4
:10435000B23B0B3C643CBC3C153D6D3DC53D1D3E38
:10436000753ECD3E253F7C3FD33F2B408240D84019
:104370002F418641DC4132428842DE423443894348
:10438000DF4334448944DE4433458745DC453046C9
:104390008446D8462C477F47D24726487948CC48A0
:1043A0001E497149C349154A674AB94A0B4B5C4BD0
:1043B000AD4BFE4B4F4CA04CF04C414D914DE14D5F
:1043C000314E804ED04E1F4F6E4FBD4F0B505A5046
:1043D000A850F65044519151DF512C527952C65297
:1043E00013535F53AB53F75343548F54DA5425554B
:1043F0007155BB55065650569B56E5562E57785765
:10440000C1570A5853589C58E5582D597559BD59EC
:10441000045A4C5A935ADA5A215B675BAE5BF45BE1
:104420003A5C7F5CC55C0A5D4F5D945DD85D1D5E46
:10443000615EA55EE85E2C5F6F5FB25FF45F376020
:104440007960BB60FD603E618061C1610262426271
:104450008362C362036342638263C16300643F6437
:104460007D64BB64F96437657465B265EF652B667E
:104470006866A466E0661C6757679267CD67086840
:1044800043687D68B768F1682A6963699C69D56982
:104490000E6A466A7E6AB56AED6A246B5B6B926B44
:1044A000C86BFE6B346C6A6C9F6CD46C096D3E6D8E
:1044B000726DA66DDA6D0D6E406E736EA66ED96E5E
:1044C0000B6F3D6F6E6FA06FD16F027032706270B4
:1044D0009270C270F270217150717E71AD71DB719A
:1044E0000972367264729172BD72EA721673427307
:1044F0006E739973C473EF73197443746D74977406
:10450000C074EA7412753B7563758B75B375DA7593
:10451000017628764F7675769B76C176E6760B77B0
:104520003077547779779D77C077E47707782A7862
:104530004C786E789078B278D378F47815793679AB
:10454000567976799579B579D479F279117A2F7A85
:104550004D7A6A7A877AA47AC17ADD7AF97A157BFC
:10456000317B4C7B677B817B9B7BB57BCF7BE87B07
:10457000027C1A7C337C4B7C637C7A7C927CA97CA9
:10458000BF7CD67CEC7C027D177D2C7D417D567DE9
:104590006A7D7E7D917DA57DB87DCB7DDD7DEF7DC6
:1045A000017E137E247E357E457E567E667E757E38
:1045B000857E947EA37EB17EBF7ECD7EDB7EE87E4F
:1045C000F57E017F0E7F1A7F257F317F3C7F477FFD
:1045D000517F5B7F657F6F7F787F817F8A7F927F4E
:1045E0009A7FA27FA97FB07FB77FBE7FC47FCA7F3B
:1045F000CF7FD47FD97FDE7FE27FE67FEA7FED7FCA
:10460000F17FF37FF67FF87FFA7FFB7FFD7FFE7FF0
:10461000FE7FFE7FFE7FFE7FFE7FFD7FFB7FFA7FBA
:10462000F87FF67FF37FF17FED7FEA7FE67FE27F21
:10463000DE7FD97FD47FCF7FCA7FC47FBE7FB77F25
:10464000B07FA97FA27F9A7F927F8A7F817F787FC8
:104650006F7F657F5B7F517F477F3C7F317F257F09
:104660001A7F0E7F017FF57EE87EDB7ECD7EBF7EEA
:10467000B17EA37E947E857E757E667E567E457E67
:10468000357E247E137E017EEF7DDD7DCB7DB87D82
:10469000A57D917D7E7D6A7D567D417D2C7D177D3A
:1046A000027DEC7CD67CBF7CA97C927C7A7C637C8E
:1046B0004B7C337C1A7C027CE87BCF7BB57B9B7B7D
:1046C000817B677B4C7B317B157BF97ADD7AC17A04
:1046D000A47A877A6A7A4D7A2F7A117AF279D47924
:1046E000B57995797679567936791579F478D378DC
:1046F000B27890786E784C782A780778E477C0772B
:104700009D777977547730770B77E676C1769B760D
:1047100075764F7628760176DA75B3758B75637585
:104720003B751275EA74C07497746D744374197490
:10473000EF73C47399736E7342731673EA72BD722A
:104740009172647236720972DB71AD717E71507153
:104750002171F270C2709270627032700270D16F0B
:10476000A06F6E6F3D6F0B6FD96EA66E736E406E4D
:104770000D6EDA6DA66D726D3E6D096DD46C9F6C19
:104780006A6C346CFE6BC86B926B5B6B246BED6A6E
:10479000B56A7E6A466A0E6AD5699C6963692A6948
:1047A000F168B7687D6843680868CD6792675767A6
:1047B0001C67E066A46668662B66EF65B265746583
:1047C0003765F964BB647D643F640064C1638263E0
:1047D00042630363C362836242620262C1618061B9
:1047E0003E61FD60BB6079603760F45FB25F6F5F10
:1047F0002C5FE85EA55E615E1D5ED85D945D4F5DD9
:104800000A5DC55C7F5C3A5CF45BAE5B675B215B19
:10481000DA5A935A4C5A045ABD5975592D59E558CC
:104820009C5853580A58C15778572E57E5569B56EF
:1048300050560656BB5571552555DA548F5443547E
:10484000F753AB535F531353C65279522C52DF5177
:1048500091514451F650A8505A500B50BD4F6E4FD5
:104860001F4FD04E804E314EE14D914D414DF04C99
:10487000A04C4F4CFE4BAD4B5C4B0B4BB94A674ABF
:10488000154AC34971491E49CC4879482648D24740
:104890007F472C47D84684463046DC45874533451C
:1048A000DE4489443444DF4389433443DE42884252
:1048B0003242DC4186412F41D84082402B40D33FD9
:1048C0007C3F253FCD3E753E1D3EC53D6D3D153DB2
:1048D000BC3C643C0B3CB23B593B003BA63A4D3AD6
:1048E000F33999393F39E5388B383138D6377C3749
:1048F0002137C6366B361036B5355935FE34A234FD
:104900004634EA338E333233D63279321D32C031F7
:1049100063310731A9304C30EF2F922F342FD72E2F
:10492000792E1B2EBD2D5F2D012DA32C442CE62BA3
:10493000872B292BCA2A6B2A0C2AAD294E29EE284F
:104940008F283028D02770271127B1265126F1252E
:1049500091253025D02470240F24AE234E23ED2240
:104960008C222B22CA2169210821A7204520E41F7F
:10497000821F211FBF1E5D1EFC1D9A1D381DD61CE7
:10498000741C121CAF1B4D1BEB1A881A261AC31974
:104990006119FE189B183918D61773171017AD1622
:1049A0004A16E71584152015BD145A14F6139313EF
:1049B0003013CC1269120512A1113E11DA107610D3
:1049C0001210AE0F4B0FE70E830E1F0EBB0D570DCF
:1049D000F20C8E0C2A0CC60B620BFE0A990A350AE1
:1049E000D1096C090809A4083F08DB0776071207FC
:1049F000AD064906E40580051B05B7045204EE0325
:104A000089032403C0025B02F70192012D01C90052
:104A100064000000620965096D096F097109740974
:104A200077097C0980098309860988098A098E0922
:104A300099099B09F996821B24060FA600731200A0
:104A40000080B436412008048120CFF7FEFFFF002C
:104A50000F013F023F030304FF053906070707085C
:104A60000009000CC30DC40EC50FC611201220137F
:104A70002014201520162017001C3F1D0701592364
:104A8000C6290000A44A00080000002040010000E0
:104A900038030008D04A000840010020A0040000AC
:104AA000D62900080116322742FFC27F037B7F010F
:104AB00043E8410263014210E5F0FFFFFF94A24A80
:104AC0000469010203040607080936801C00380641
:04000005080000ED02
:00000001FF
