:020000040800F2
:10000000200600204501000809180008F514000822
:10001000CD15000879100008892C000800000000A8
:100020000000000000000000000000008D1E00081D
:100030009D120008000000007D1800080D22000835
:100040005F0100085F0100085F0100085F01000810
:100050005F0100085F0100085F0100085F01000800
:100060005F0100085F0100085F0100085F010008F0
:100070005F0100085F0100085F0100085F010008E0
:100080005F0100085F010008150400085F01000817
:100090005F0100085F0100085F0100085F010008C0
:1000A0005F0100085F0100085F0100085F010008B0
:1000B0005F0100085F0100085F0100085F010008A0
:1000C0005F0100085F0100085F0100085F01000890
:1000D0005F0100085F0100085F0100085F01000880
:1000E0005F0100085F0100085F0100085F01000870
:1000F0005F0100085F0100085F01000805080008B3
:100100005F0100085F0100085F0100085F0100084F
:100110005F0100085F0100085F0100085F0100083F
:100120005F0100085F0100085F0100085F0100082F
:10013000DFF80CD000F022F9004800471532000823
:10014000200600200648804706480047FEE7FEE7F5
:10015000FEE7FEE7FEE7FEE7FEE7FEE7FEE7FEE777
:10016000C523000831010008202A04DB203A21FAC7
:1001700002F00021704721FA02F3D040C2F12002C0
:10018000914008431946704780EA010210B502F019
:100190000043400022D04A001FD0010E01EB126143
:1001A000C0F35600C2F3560240F4000042F40002CD
:1001B000A0FB022000047F39140400D0401C50EA48
:1001C000124001D44000491EC2B20C0604EBD0100C
:1001D000401C4008802A02D003E0002010BD20F01F
:1001E0000100002900DA0020184310BD30B480EA75
:1001F000010202F0004530F0004221F0004013D02F
:1002000090B1C30DD40DC2F31601C0F31600E41A69
:1002100041F4000140F400027D34914201D3641C9A
:1002200000E04900002C02DA30BC002070474FF497
:1002300000000023914201D3891A034340084FEA8A
:100240004101F7D151B1914202D14FF0004105E097
:1002500002D24FF0010101E06FF0010103EBC45045
:10026000284430BC00F053B8C10F80EAE070084465
:10027000CA079623002100F053B800F0004220F096
:100280000040C10DC0F3160040F400007F2901DAE0
:1002900000207047962903DCC1F19601C84001E0B7
:1002A00096398840002AF4D0404270472DE9F05F2B
:1002B0000546002092469B468846064681464024D5
:1002C0001BE02846414647462246FFF74DFF53466E
:1002D0005A46C01A914110D311461846224600F0E2
:1002E0005FF82D1A67EB01084F46224601200021D6
:1002F00000F056F817EB00094E41201EA4F101044E
:10030000DFDC484631462A464346BDE8F09F0029D7
:10031000A8BF7047401C490008BF20F0010070478B
:1003200010B4B0FA80FC00FA0CF050EA010404BFEB
:1003300010BC704749B1CCF1200421FA04F411FA41
:100340000CF118BF012121430843A3EB0C01CB1D85
:100350004FEA00614FEA102042BF002010BC7047F6
:1003600000EBC35010440029A4BF10BC7047401CD0
:10037000490008BF20F0010010BC7047064C074D33
:1003800006E0E06840F0010394E807009847103465
:10039000AC42F6D3FFF7D0FE88620008A8620008DE
:1003A000202A04DB203A00FA02F100207047914035
:1003B000C2F1200320FA03F319439040704770B54F
:1003C0008C1810F8015B15F0070301D110F8013B00
:1003D0002A1106D110F8012B03E010F8016B01F887
:1003E000016B5B1EF9D12B0705D40023521E0DD4DF
:1003F00001F8013BFAE710F8013BCB1A921C03E02D
:1004000013F8015B01F8015B521EF9D5A142D8D364
:10041000002070BD10B54FF49061E34800F01FFC60
:1004200020B14FF49061E04800F0D6FB4FF49061AA
:10043000DE4800F014FC00287ED04FF49061DB48C9
:1004400000F0CAFB00BF1421D84800F01AFC00B22B
:10045000D749088000BF1821D44800F012FC00B230
:10046000D4490880D44800780028E5D0D0480088D6
:10047000D2490988401AD2490988CE4A1288891A75
:10048000401A00B2CF490880CC480088C849098882
:10049000401A00B2CC49088004F0E4F8CB48007858
:1004A00018B1CB480078012805D1CA48008800045B
:1004B000C94908600CE0C5480078012808D1C44843
:1004C000007828B900F0FAFC01F07CFD02F086FA11
:1004D000C248007810B103F0A3FD11E0B448B0F9B0
:1004E000000040F6087188420ADAB248B0F900000C
:1004F000884205DA03F068FC03F0AEFD03F0A0FCCF
:1005000003F00AFDB1480078022802D1B4480088FF
:1005100038B1AE48007810B9B148008808B103F08E
:100520002FFEAA48007801280CD103F04BFA03F003
:10053000B7FA0120AB4900E034E108600020AA4985
:1005400008602AE1A148007800287BD103F03AFA3C
:10055000A6480078012824D19E48B0F90000B0F5E3
:10056000FA7F0ADD9E48B0F900004000052190FBAB
:10057000F1F000B29E49088008E09948B0F9000007
:10058000032190FBF1F000B2994908809848B0F936
:100590000000002805DA96480088404200B29449DD
:1005A000088091480068002876D192480088FF288A
:1005B00060DC8B48B0F90040FF208E490880322073
:1005C00089490860002C01DA604204B28848B0F919
:1005D0000000844212DC00208249086003F020FD04
:1005E00000BF0021844801F039FF00BF00207C4992
:1005F000088082490880824908603AE07848B0F96A
:100600000000002806DA76480088401C00B27449D1
:1006100008800AE07248B0F90000002805DD704843
:100620000088401E00B26E4908806D48B0F9000095
:10063000B0F5FA7F07DD6A480088401E00B26849BD
:1006400008800CE02EE06648B0F9000010F5FA7F53
:1006500005DA63480088401C00B2614908806048A0
:10066000B0F9000065490880084600880004644924
:10067000086092E004205C4908605E480088401EE3
:100680005C490880FF205C4934310880091D0880DE
:10069000091D088081E0FFE753480068401E524969
:1006A00008607AE049480078022876D103F0F8F92A
:1006B00003F088F94C480068F0BB04204A49086000
:1006C0004748B0F90000002806DA45480088401C79
:1006D00000B2434908803DE04148B0F900000028DD
:1006E00006DD3F480088401E00B23D49088031E0E9
:1006F00040480088FF2803DC4FF480703D490880A3
:100700003C480088B0F5007F04DA3A480088401C75
:100710003849088037480088C0F5007036493431C0
:10072000088034480088C0F50070091D08803148F1
:100730000088C0F5007000E007E0091D0880002077
:100740002849086003F06CFC04E027480068401E5C
:10075000254908602248B0F90000B0F5FA7F06DDAF
:100760001F480088401E00B21D4908800BE01C484D
:10077000B0F9000010F5FA7F05DA19480088401C2E
:1007800000B2174908801648B0F900001B490880DC
:100790000846008800041A4908600C4890F90000D7
:1007A0001249087010BD00000024014000280140DB
:1007B000080000200A000020400000204C0100201A
:1007C0004E010020AE000020AC00002018000020E8
:1007D000700000200E0100203400002010010020D5
:1007E000A800002044000020840000201900002000
:1007F0004A0000206C000020002C01400400002072
:100800001000002010B54FF49061DD4800F027FA89
:1008100000287DD04FF49061D94800F0DDF900BF89
:100820001421D74800F02DFA00B2D649088000BF45
:100830001821D34800F025FA00B2D3490880D348E4
:10084000007800286AD0CF480088D1490988401A2A
:10085000D0490988CC4A1288891A401A00B2CE4978
:100860000880CB480088C7490988401A00B2CB49A4
:10087000088004F0E7FBCA48007818B1C94800783E
:10088000012805D1C84800880004C84908600CE068
:10089000C3480078012808D1C248007828B900F080
:1008A00041FB01F0FBFB02F0FBF8C148007810B1FE
:1008B00003F0C4FB11E0B348B0F9000040F6087142
:1008C00088420ADAB048B0F90000884205DA03F03D
:1008D00099FA03F00BFC03F0E9FA03F05FFBB04870
:1008E0000078022802D1B348008838B1AC480078BB
:1008F00010B9B048008808B103F040FDA84800785E
:1009000001280CD103F06AF803F0D2F8012000E0CE
:1009100035E1A94908600020A84908602AE1A048FB
:10092000007800287BD103F059F8A5480078012809
:1009300024D19D48B0F90000B0F5FA7F0ADD9D484A
:10094000B0F900004000052190FBF1F000B29D4994
:10095000088008E09748B0F90000032190FBF1F00F
:1009600000B2984908809748B0F90000002805DADD
:1009700094480088404200B2924908808F4800683D
:10098000002876D190480088FF2860DC8948B0F9BB
:100990000040FF208C490880322088490860002CE4
:1009A00001DA604204B28748B0F90000844212DCE8
:1009B00000208149086003F041FB00BF002183480B
:1009C00001F04CFD00BF00207A4908808049088072
:1009D000804908603AE07748B0F90000002806DA5C
:1009E00074480088401C00B2724908800AE07148CF
:1009F000B0F90000002805DD6E480088401E00B2F6
:100A00006C4908806B48B0F90000B0F5FA7F07DD4B
:100A100068480088401E00B2664908800CE02EE05D
:100A20006448B0F9000010F5FA7F05DA61480088E3
:100A3000401C00B25F4908805E48B0F9000064497C
:100A400008800846008800046249086092E004209B
:100A50005A4908605C480088401E5B490880FF20B6
:100A60005A4934310880091D0880091D088081E039
:100A7000FFE752480068401E504908607AE0484845
:100A80000078022876D103F013F802F0A7FF4B4854
:100A90000068E0BB0420494908604648B0F90000FE
:100AA000002806DA43480088401C00B2414908800B
:100AB0003DE04048B0F90000002806DD3D480088D0
:100AC000401E00B23B49088031E03F480088FF28C3
:100AD00003DC4FF480703C4908803B480088B0F547
:100AE000007F04DA38480088401C374908803648BF
:100AF0000088C0F5007035493431088032480088DC
:100B0000C0F50070091D08802F48008800E009E04A
:100B1000C0F50070091D088000202749086003F017
:100B20008DFA04E025480068401E244908602148E9
:100B3000B0F90000B0F5FA7F06DD1E480088401EBF
:100B400000B21C4908800BE01A48B0F9000010F50B
:100B5000FA7F05DA17480088401C00B21549088062
:100B60001448B0F900001A490880084600880004BB
:100B7000184908600A4890F900001149087010BD32
:100B8000003C01400C0000200E000020400000202E
:100B90005001002052010020C8000020C6000020A3
:100BA00018000020700000204201002038000020C2
:100BB00044010020C20000204400002088000020E2
:100BC0001A0000204C0000206E000020003401407C
:100BD000060000201400002000220A12D343036004
:100BE000704721B1826842F00102826003E08268AE
:100BF00022F001028260704721B1826842F4807263
:100C0000826003E0826822F480728260704721B1C2
:100C1000826842F48012826003E0826822F48012CB
:100C20008260704721B1826842F40042826003E032
:100C3000826822F40042826070470A46002181687F
:100C400021F4E041114381607047014600208A6829
:100C500002F004020AB1012000E00020704770B5E4
:100C600002460020002300240B125568CEB205EA8C
:100C7000060415681D4015B10CB1012000E00020EC
:100C800070BD08B5024600200090009201F12800D6
:100C9000009B184400900098006880B208BD01468F
:100CA00000208A6802F008020AB1012000E000205A
:100CB000704710B50023CBB21AB144681C4344609E
:100CC00002E044689C43446010BD000030B5024619
:100CD0000020002350680F4C20400D790C6844EA36
:100CE00005242043506090680B4C2040D1E9025409
:100CF0002C434D7944EA450420439060D06A20F4A7
:100D000070000C7C641EE4B2234340EA0350D062BE
:100D100030BD0000FFFEF0FFFDF7F1FFF0B5044627
:100D20001546002000220026092911DDE068A1F106
:100D30000A0707EB470C072707FA0CF29043A1F1CB
:100D40000A0707EB470703FA07F21043E0600CE0DD
:100D5000206901EB410C072707FA0CF2904301EBE5
:100D6000410703FA07F210432061A06BC0F301565C
:100D7000EF1C06F1010CA7EB0C0707EB870C1F27F4
:100D800007FA0CF29043EF1C06F1010CA7EB0C07DD
:100D900007EB870701FA07F21043A063F0BD10B517
:100DA0000A4600210023816B21F44011531E41EAC1
:100DB0000351816310BDF0B504460D4600200021AB
:100DC000092D11DDE068A5F10A0606EB46070726A6
:100DD00006FA07F18843A5F10A0606EB460603FA70
:100DE00006F10843E0600CE0206905EB45070726A3
:100DF00006FA07F1884305EB450603FA06F10843B6
:100E00002061072A0FDA606B561E06EB86071F2645
:100E100006FA07F18843561E06EB860605FA06F128
:100E20000843606322E00D2A0FDA206BD61F06EB21
:100E300086071F2606FA07F18843D61F06EB8606AB
:100E400005FA06F10843206310E0E06AA2F10D06FE
:100E500006EB86071F2606FA07F18843A2F10D0666
:100E600006EB860605FA06F10843E062F0BD8168EC
:100E700041F008018160704721B1826842F4A0020C
:100E8000826003E0826822F4A00282607047816879
:100E900041F004018160704730B10749096841F4AD
:100EA0000001054A116005E00349096821F40001C9
:100EB000014A116070470000082401401549098863
:100EC00008041549096888420DDD13490968134A69
:100ED00012681144104A116011460968814213DDFD
:100EE0001146086010E00C49096888420CDA0A498A
:100EF00009680A4A1268891A074A11601146096886
:100F0000814201DA11460860034909680914044A5C
:100F1000116070472C0000203400002030000020B9
:100F20003C000020154909880804154909688842D1
:100F30000DDD13490968134A12681144104A116003
:100F400011460968814213DD1146086010E00C4922
:100F5000096888420CDA0A4909680A4A1268891A3B
:100F6000074A116011460968814201DA114608609A
:100F7000034909680914044A116070472C000020D5
:100F800038000020300000203C00002000200149F3
:100F9000086070475C0000200748006807498842E5
:100FA00005D205480068401C0349086002E00120A2
:100FB00003490870704700005C000020905F01004A
:100FC0005500002010B502F07BFD23490968401A46
:100FD000224908600846006801F086FE2049086042
:100FE000204800682049884203DD00201F4908701E
:100FF00030E001201D4908701D48B0F900000028AC
:1010000006DD1B480088401E00B2194908800AE02E
:101010001748B0F90000002805DA15480088401C80
:1010200000B2134908801348B0F90000002806DD1B
:1010300010480088401E00B20E4908800AE00D48A2
:10104000B0F90000002805DA0A480088401C00B208
:101050000849088010BD00006400002068000020DE
:101060007800002060000020CC4C100070000020B0
:10107000A8000020C200002000BFFEE710B502F06B
:101080003DFD184908600846006801F02DFE16492C
:101090000860144800681549884203DA042014499E
:1010A00008701DE00F480068B0F5BC1F03DA00208F
:1010B0000F49087014E00B4800680E49884203DAB3
:1010C00001200B4908700BE0064800680A49884275
:1010D00003DA02200649087002E003200449087080
:1010E00010BD00006000002074000020CC4C1000F7
:1010F000A00000201E451800EB111B0021B1026862
:1011000042F00102026004E002684FF6FE731A40EA
:101110000260704701684FF6FE72114001600021C5
:10112000016041608160C1604B49884208D14A49F1
:101130000839496841F00F01474A083A51608AE08E
:1011400045491431884208D143490839496841F07A
:10115000F001414A083A51607DE03F492831884218
:1011600008D13D490839496841F470613A4A083A62
:10117000516070E038493C31884208D1364908391D
:10118000496841F47041344A083A516063E0324999
:101190005031884208D130490839496841F47021FA
:1011A0002D4A083A516056E02B496431884208D1F3
:1011B00029490839496841F47001274A083A5160C1
:1011C00049E025497831884208D1234908394968DE
:1011D00041F07061204A083A51603CE01F49884262
:1011E00006D1011F096841F00F01021F116032E0B2
:1011F0001A491431884208D11849091F096841F079
:10120000F001164A121F116025E014492831884266
:1012100008D11249091F096841F470610F4A121F71
:10122000116018E00D493C31884208D10B49091F73
:10123000096841F47041094A121F11600BE0074927
:101240005031884207D10549091F096841F47021CE
:10125000024A121F11607047080002400804024051
:1012600010B50022026847F6F0739A430C6A8B6847
:1012700023430C6923434C6923438C692343CC6982
:1012800023434C6A23438C6A23431A430260CB688E
:1012900043600B6883604B68C36010BD704710B536
:1012A0000446204602F0B8FB10BD0000054909685D
:1012B00021F01001034A11601146096801431160D1
:1012C000704700000020024001460020034A1068D9
:1012D00000F0380008431060704700000020024012
:1012E0002DE9F041024600250026002000230024BD
:1012F000002791F803C00CF00F0591F803C00CF023
:10130000100CBCF1000F03D091F802C04CEA0505A7
:1013100091F800C0BCF1000F31D0146800202BE020
:101320004FF0010C0CFA00F3B1F800C00CEA030610
:101330009E4220D183004FF00F0C0CFA03F7BC4300
:1013400005FA03FC4CEA040491F803C0BCF1280F31
:1013500006D14FF0010C0CFA00FCC2F814C00AE0F0
:1013600091F803C0BCF1480F05D14FF0010C0CFA05
:1013700000FCC2F810C0401C0828D1D31460B1F89A
:1013800000C0BCF1FF0F34DD546800202EE000F1F6
:10139000080C4FF0010808FA0CF3B1F800C00CEA91
:1013A00003069E4221D183004FF00F0C0CFA03F785
:1013B000BC4305FA03FC4CEA040491F803C0BCF1F9
:1013C000280F05D100F1080C08FA0CF8C2F81480B7
:1013D00091F803C0BCF1480F07D100F1080C4FF0A1
:1013E000010808FA0CF8C2F81080401C0828CED377
:1013F0005460BDE8F0810000F0B50A4600230024E7
:101400000021002500F00046B6F1004F02D11D4E2C
:10141000F16901E01B4E7168C0F3034583B200F42B
:101420004016B6F5401F08D121F07061154E766860
:1014300026F07066134F7E6012E000F48016B6F559
:10144000801F06D1032606FA05F4A14341F070611E
:1014500006E0460D360103FA06F6B14341F070612D
:1014600022B1460D360103FA06F6314300F000467C
:10147000B6F1004F02D1034EF16101E0014E7160FF
:10148000F0BD0000000001400146886880B270474E
:101490000246002093680B400BB1012000E00020C1
:1014A000704702460020D3680B400BB1012000E0DA
:1014B00000207047416170470161704710B50446D4
:1014C00004F5804188B200F001F810BD0146B1F585
:1014D000004F07DBA1F500404011054B33F9100028
:1014E000424203E04811024B33F9102010B270471A
:1014F000785A000800BFFEE710B52F48007888B37F
:101500002E480078401CC0B22C490870142851DBCA
:10151000002008702A480078401CC1B22848017099
:1015200025480078022202EB4000814202DB0020C5
:10153000234908702048007821490978B1EB400F11
:1015400003DB002002F0CEFB34E01D48007800F001
:10155000010018B1012002F0C5FB2BE0002002F0D1
:10156000C1FB27E0FFE71748007802280CD1134899
:101570000078401CC0B21149087005281ADB002011
:10158000087002F037FA15E00F480078012802D100
:1015900002F0A8FB0EE00C48007858B90748007824
:1015A000401CC0B205490870642803DB00200870A5
:1015B00002F020FA10BD0000580000208200002038
:1015C00083000020910000209000002000BFFEE773
:1015D00070B57D48B0F9000010F13C0F03DA02202D
:1015E0007A490870EEE07848B0F900003C2871DDD7
:1015F000FF207749088077490880002076490880D5
:10160000FFF7C4FC75480078012807D074480088AB
:101610000004744908600120704908707248B0F9EC
:10162000000050280ADA71480078012806D16E4877
:101630000088801C00B26C4908800EE06A48B0F94E
:10164000000010F1500F08DD6848007828B966489E
:101650000088801E00B2644908806548B0F9000027
:1016600050280ADA61480078012806D160480088CD
:10167000801C00B25E4908800EE05D48B0F90000B1
:1016800010F1500F08DD5948007828B958480088F3
:10169000801E00B2564908805448007850B1554821
:1016A0000068002810DA5348006800F5702051499E
:1016B000086009E04F480068002805DD4D480068D3
:1016C000A0F570204B4908604848007818B14FF0E9
:1016D0007E5401E057E0484C48480078C0B93A4889
:1016E000B0F900003C384FF4487148434FF4B971E9
:1016F00090FBF1F000F164063046FEF7B5FD0546BB
:101700002146FEF741FD0446FF203D49086018E0F0
:101710002D48B0F900003C3840F2A46148434FF432
:10172000B97190FBF1F000F164063046FEF79CFDC4
:1017300005462146FEF728FD044640F2FF103049D9
:1017400008602046FEF799FD2E4908600A46106899
:10175000234AB2F90010002801DB002903DA00282F
:101760000DDC00290BDC002800DA4042002900DAF9
:101770004942884206DD0122144B1A7002E0012220
:10178000124B1A701EE01048B0F9000010F1320F31
:1017900018DD0D48B0F90000322813DA7F2018490F
:1017A00008600E480078022802D002200B49087019
:1017B0000B48008800040B490860002011490860AC
:1017C0000249087070BD00009E0000201800002033
:1017D0006C0000206E0000207E0000207C000020B5
:1017E0000E01002034000020A80000209D000020F1
:1017F000C200002010000020000080BF9C000020DC
:10180000300000202C0000207047000070B500213F
:1018100000230F22C47804B3154C246804F4E06458
:10182000C4F5E064210AC1F10403CA40447804FA13
:1018300003F184781440214309010E4C0678A15528
:10184000047804F01F050124AC4005786D11AD004B
:1018500005F1E025C5F8004109E0047804F01F0512
:101860000124AC40044D0678761145F8264070BD41
:101870000CED00E000E400E080E100E070470000D3
:1018800010B51E4800681E49884204D21B480068F3
:10189000401C1A4908601B480078F0B902F04EF865
:1018A000012809D11548006840F6B831884224D192
:1018B00001201549087020E010480068642803D210
:1018C00001201249087018E000200C49086001202E
:1018D0000C4908700E4908700FE002F02FF801283B
:1018E00008D106480068B0F5FA6F06D10120074913
:1018F000087002E000200149086010BD500000207F
:10190000A08601004F000020540000205500002058
:101910005600002001460020034A506820F4404051
:1019200008435060704700000010024029B1064A89
:1019300052690243044B5A6104E0034A52698243EC
:10194000014B5A61704700000010024029B1064A5D
:10195000D2690243044BDA6104E0034AD26982434C
:10196000014BDA61704700000010024029B1064ABD
:1019700012690243044B1A6104E0034A126982436C
:10198000014B1A61704700000010024029B1064A5D
:1019900092690243044B9A6104E0034A92698243CC
:1019A000014B9A61704700000010024029B1064ABD
:1019B000D2680243044BDA6004E0034AD2688243EF
:1019C000014BDA6070470000001002400F480068C9
:1019D00040F001000D490860084640680C49084085
:1019E0000A494860084600680A49084007490860F3
:1019F0000846006820F4802008600846406820F40B
:101A0000FE0048604FF41F008860704700100240DD
:101A10000000FFF8FFFFF6FE30B500210022002491
:101A200000232D4D6D6805F00C0121B1042905D06E
:101A3000082923D105E0294D056022E0274D0560E6
:101A40001FE0254D6D6805F47012234D6D6805F497
:101A50008034022505EB92421CB9214D55430560A7
:101A60000BE01D4D6D6805F400351DB11C4D55434F
:101A7000056002E0194D5543056002E0174D056011
:101A800000BF00BF144D6D6805F0F0010909154D48
:101A90006B5C0568DD4045600F4D6D6805F4E061E5
:101AA000090A104D6B5C4568DD4085600A4D6D6824
:101AB00005F46051C90A0B4D6B5C4568DD40C5609B
:101AC000054D6D6805F44041890B074D6B5CC56899
:101AD000B5FBF3F5056130BD0010024000127A003D
:101AE00000093D0094010020A401002010B501462A
:101AF0000022002300204A11012A02D1094C236848
:101B000006E0022A02D1074C236A01E0054C636A11
:101B100001F01F02012494401C400CB1012000E0A0
:101B2000002010BD001002400248406800F00C0088
:101B3000704700000010024001460020034A506830
:101B400020F0F00008435060704700000010024091
:101B50000149086070470000000042420146002031
:101B6000034A506820F4E06008435060704700006A
:101B70000010024001460020034A506820F46050E3
:101B800040EAC100506070470010024001490866F9
:101B9000704700000000424202460020044B586893
:101BA00020F47C1042EA01031843014B586070474F
:101BB0000010024001460020034A506820F0030054
:101BC0000843506070470000001002401FB501211B
:101BD0002C20FFF7DBFE01210846FFF7D7FE01218D
:101BE0002E48FFF709FC1020ADF80C0003208DF8FB
:101BF0000E0010208DF80F0003A92948FFF770FB95
:101C00000420ADF80C0003208DF80E0010208DF894
:101C10000F0003A92348FFF763FB4FF40040ADF822
:101C20000C0003208DF80E0010208DF80F0003A982
:101C30001D48FFF755FB4FF40070ADF80C00032072
:101C40008DF80E0010208DF80F0003A91448FFF73F
:101C500047FB0820ADF80C0048208DF80F0003204A
:101C60008DF80E0003A90E48FFF73AFB4FF4807081
:101C7000ADF80C0048208DF80F0003208DF80E0001
:101C800003A90748FFF72CFB06226946074801F025
:101C900097FA684600F082F91FBD0000000230008C
:101CA000000C0140001401400008014000C0000881
:101CB00010B51D480078012817D11C480068642819
:101CC00002D900201A49088018480068FA2803D968
:101CD00000201549087026E014480068401C13498C
:101CE00008600020134908701DE012480078401C6D
:101CF000C0B210490870642812DB0020087000F0A0
:101D000063FAC82001F096FE07220B49A02000F0DC
:101D1000BEF800F0BBFF00200849087000F02AFA66
:101D200000200249086010BD9000002098000020AB
:101D30009E00002092000020C2010020950000209B
:101D40001CB50020009001900220034908706846ED
:101D500000F024F91CBD00009100002070B504467D
:101D600000251EE004F0800020B110210F48FFF78D
:101D7000A3FB03E010210D48FFF79CFB6006040E57
:101D800004210B48FFF798FB08210848FFF780FB68
:101D900008B144F0010404210548FFF78BFB681CDF
:101DA000C5B2082DDEDB204670BD0000000C0140EE
:101DB0000014014070B504464FF400410C48FFF791
:101DC00079FB0A2001F036FE2046FFF7C7FF0949DC
:101DD00008700020FFF7C2FF05464FF40041044899
:101DE000FFF76AFB0A2001F025FE284670BD0000BF
:101DF00000080140AC0100202DE9F04107460C46E7
:101E000015464FF400410F48FFF754FB0A2001F03C
:101E100011FE3846FFF7A2FF0B490870002605E0C7
:101E200014F8010BFFF79AFF701CC6B2AE42F7DB45
:101E30004FF400410348FFF73FFB0A2001F0FAFD91
:101E4000BDE8F08100080140AC01002070B50546F6
:101E50000C464FF400410B48FFF72CFB0A2001F021
:101E6000E9FD2846FFF77AFF074908702046FFF78B
:101E700075FF4FF400410348FFF71EFB0A2001F0F5
:101E8000D9FD70BD00080140AC01002070472DE96C
:101E9000F04104460D4616461720FFF78BFF074614
:101EA00007F0200020B9324629462046FFF7A4FF5C
:101EB000BDE8F08110B500F001F810BD0CB50020B0
:101EC000019000903348006840F480303149086048
:101ED00000BF3048006800F4003000900198401CBA
:101EE0000190009818B90198B0F5A06FF1D1294878
:101EF000006800F4003010B10120009001E00020E3
:101F000000900098012843D12348006840F0100059
:101F1000214908600846006820F003000860084670
:101F2000006840F0020008601A484068194948609B
:101F30000846406848600846406840F48060486051
:101F40000846406820F47C1048600846406840F429
:101F5000E81048600846006840F08070086000BFE4
:101F60000C48006800F000700028F9D0094840686B
:101F700020F00300074948600846406840F002002E
:101F8000486000BF0348406800F00C000828F9D101
:101F90000CBD0000001002400020024010B50446B5
:101FA00007482168016021790171052221462A2014
:101FB000FFF722FF052221463020FFF71DFF10BD4D
:101FC000AD0100202C480078401C2B4908700846C1
:101FD000007850284EDD002008702849B1F9001023
:101FE000274A1268C1EB224000043C2190FBF1F12A
:101FF000C82291FBF2F023490968234A126800FBCA
:102000000211204A116011460968B1F17A7F03DD9F
:102010004FF07A71116007E01A49096811F17A7F6F
:1020200002DA1A49174A116016490968184A1268F3
:1020300000FB0211174A1268821A134B1B6803FB3C
:1020400002110914144A1180124908601146B1F9AD
:102050000010B1F57A7F02DD4FF47A7111800E49DC
:10206000B1F9001011F57A7F03DA4FF618410A4AE8
:10207000118000BF70470000800000200E0100208A
:10208000340000201000002020000020000018FC78
:102090001C00002028000020040000202C480078AC
:1020A000401C2B4908700846007850284EDD00205F
:1020B00008702849B1F90010274A1268C1EB224084
:1020C00000043C2190FBF1F1C82291FBF2F023497E
:1020D0000968234A126800FB0211204A1160114668
:1020E0000968B1F17A7F03DD4FF07A71116007E082
:1020F0001A49096811F17A7F02DA1A49174A116000
:1021000016490968184A126800FB0211174A12683A
:10211000821A134B1B6803FB02110914144A118025
:10212000124908601146B1F90010B1F57A7F02DD5D
:102130004FF47A7111800E49B1F9001011F57A7FD0
:1021400003DA4FF618410A4A118000BF70470000B9
:10215000810000200E010020340000201400002027
:1021600020000020000018FC1C0000202800002097
:102170000600002010B50021E220FFF767FE0720CF
:10218000FFF718FE044621462720FFF75FFE4FF4B5
:1021900000710C48FFF78EF90A2001F04BFC00207B
:1021A000FFF708FE044644F0010421462020FFF713
:1021B0004DFE4FF400710348FFF77EF90A2001F04D
:1021C00039FC10BD000C014010B50021E120FFF7E3
:1021D0003DFE4FF400710C48FFF76CF90A2001F046
:1021E00029FC0020FFF7E6FD044604F0FE0421462A
:1021F0002020FFF72BFE4FF400710348FFF75CF936
:102200000A2001F017FC10BD000C014023480068B3
:10221000C0EB00108000C0EB0010800000EB40001D
:102220001F490968B1EBC00F05D21D480068401C6A
:102230001B49086002E0002019490860174800683F
:102240004FF47A71B0FBF1F015490968B1FBF0F277
:1022500000FB121010B90120124908700F480068E5
:102260006421B0FBF1F00E490968B1FBF0F200FB0C
:10227000121010B901200C490870084800680A21A2
:10228000B0FBF1F006490968B1FBF0F200FB121057
:1022900010B901200549087070470000580100205E
:1022A0005C0100206001002061010020620100202B
:1022B0001648007840BB1648007828B1082013491A
:1022C00008700420134908701348007820B10120D9
:1022D0000E4908700F4908701048007828B1012095
:1022E0000A49087002200B4908700D48007828B18F
:1022F0000220064908700320064908700348007848
:1023000010B101200749087070470000A1000020AB
:102310004800002058000020720000201101002019
:10232000710000205700002010B51E48007880B1D1
:1023300000201C49087001F0D5FC01F0A3FB00BF90
:1023400001F0FCFA0128FBD0002001F0DBFC00BF0B
:10235000FEE71548007838B1002013490870FF20C7
:1023600012490870FFF7ECFC1148007828B10020F2
:102370000F49087001200D4908700E48007810B10F
:1023800002200A4908700C48007850B107480078CC
:1023900038B901200549087008490870002008492B
:1023A000087010BD55000020540000204E00002091
:1023B00093000020570000205600002091000020CC
:1023C0009000002010B51348006840F0010011494A
:1023D000086008464068104908400E4948600846B1
:1023E00000680E4908400B4908600846006820F460
:1023F000802008600846406820F4FE0048604FF4E2
:102400001F008860FFF756FD4FF000600449086028
:1024100010BD0000001002400000FFF8FFFFF6FEB4
:1024200008ED00E00A884B881A438B881A43CB8852
:102430001A430B891A434B891A438B891A43A0F814
:102440004420704721B1028842F00102028004E07A
:1024500002884FF6FE731A400280704731B1B0F81F
:10246000442042F40042A0F8442005E0B0F84420A3
:10247000C2F30E02A0F844207047000010B50446D5
:102480006848844208D10121C014FFF78FFA002167
:10249000E014FFF78BFAC4E0B4F1804F08D10121BA
:1024A0000846FFF763FA00210120FFF75FFAB8E062
:1024B0005D48844208D101210220FFF757FA00212C
:1024C0000220FFF753FAACE05848844208D10121BA
:1024D0000420FFF74BFA00210420FFF747FAA0E0A1
:1024E0005348844208D101210820FFF73FFA002118
:1024F0000820FFF73BFA94E04E48844208D10121BE
:102500001020FFF733FA00211020FFF72FFA88E0A0
:102510004948844208D101212020FFF727FA0021F1
:102520002020FFF723FA7CE04448844208D10121AF
:102530004014FFF73BFA00216014FFF737FA70E010
:102540003F48844209D10121C804FFF72FFA002136
:102550004FF40020FFF72AFA63E03A48844209D199
:1025600001210805FFF722FA00214FF48010FFF740
:102570001DFA56E03448844209D101214805FFF78D
:1025800015FA00214FF40010FFF710FA49E02F4828
:10259000844208D101214020FFF7E8F900214020C2
:1025A000FFF7E4F93DE02A48844208D10121802068
:1025B000FFF7DCF900218020FFF7D8F931E025484A
:1025C000844208D101218015FFF7D0F90021A01520
:1025D000FFF7CCF925E02048844209D10121080405
:1025E000FFF7E4F900214FF48030FFF7DFF918E03E
:1025F0001A48844209D101214804FFF7D7F9002184
:102600004FF40030FFF7D2F90BE01548844208D1AF
:1026100001218804FFF7CAF900214FF48020FFF759
:10262000C5F910BD002C0140000400400008004026
:10263000000C004000100040001400400034014035
:10264000004C01400050014000540140001800407F
:10265000001C0040002000400040014000440140B8
:102660000048014070B5002400220023058C4FF67D
:10267000FE7635400584028C8388048B4FF68F7577
:102680002C40B51E2C400D882C43751E2A400D8908
:102690002A434D882A43144DA8420BD0134DA8421B
:1026A00008D0134DA84205D0124DA84202D0124DB9
:1026B000A84213D14FF6F7752A404D892A434FF6A9
:1026C000FB752A408D882A434FF6FF652B404FF655
:1026D000FF552B408D892B43CD892B438380048369
:1026E000CD888586028470BD002C014000340140F5
:1026F0000040014000440140004801400A460021DA
:10270000018B4FF6F77319401143018370470000A6
:1027100070B5002400220023058C4FF6EF7635407B
:102720000584028C8388048B48F6FF752C404FF695
:10273000FF452C400D884FF6FF7606EA05252C4311
:102740004FF6DF752A400D8906EA05152A434D88A4
:1027500006EA05152A43154DA84202D0144DA84299
:102760001DD14FF67F752A404D894FF6FF7606EA58
:1027700005152A434FF6BF752A408D8806EA0515D0
:102780002A434FF6FF352B404FF2FF752B408D89C2
:1027900006EA85052B43CD8906EA85052B43838010
:1027A0000483CD880587028470BD0000002C0140A1
:1027B000003401400A460021018B4FF2FF7319409B
:1027C0004FF6FF7303EA02231943018370470000A9
:1027D00070B5002400220023058C4FF6FF663540BB
:1027E0000584028C8388848B4FF68F752C404FF6BE
:1027F000FC752C400D882C434FF6FF552A400D895F
:102800004FF6FF7606EA05252A434D8806EA052598
:102810002A43154DA84202D0144DA8421DD14FF2B3
:10282000FF752A404D894FF6FF7606EA05252A43B3
:102830004FF6FF352A408D8806EA05252A434EF6D5
:10284000FF752B404DF6FF752B408D8906EA051567
:102850002B43CD8906EA05152B4383808483CD88DD
:102860008587028470BD0000002C014000340140C7
:102870000A460021818B4FF6F7731940114381837B
:102880007047000070B5002200230024058C4EF62E
:10289000FF7635400584038C8488828B48F6FF756B
:1028A0002A404FF6FF452A400D884FF6FF7606EA8C
:1028B00005252A434DF6FF752B400D8906EA05359F
:1028C0002B434D8806EA05352B430B4DA84202D019
:1028D0000A4DA84208D14BF6FF752C408D894FF662
:1028E000FF7606EA85152C4384808283CD88A0F884
:1028F0004050038470BD0000002C014000340140B2
:102900000A460021818B4FF2FF7319404FF6FF7387
:1029100003EA022319438183704782884FF68F733D
:102920001A40828082880A4382807047818670477D
:102930000187704781877047002202881D4B9842AB
:102940000ED01D4B98420BD0B0F1804F08D01B4BDE
:10295000984205D01A4B984202D01A4B984204D1A3
:102960004FF68F731A404B881A43174B984207D083
:10297000164B984204D04FF6FF431A40CB881A43B7
:1029800002808B8883850B8803850A4B98420BD085
:10299000094B984208D00E4B984205D00D4B9842F7
:1029A00002D00D4B984201D10B7A0386012383821A
:1029B00070470000002C014000340140000400403A
:1029C00000080040000C00400010004000140040CF
:1029D0000040014000440140004801402E4AB2F945
:1029E0000020002A04DA2C4A1288524211B202E076
:1029F000294AB2F90010294AB2F90020002A04DA63
:102A0000264A1288524210B202E0244AB2F900006B
:102A1000814205DC204AB2F90020204B1A803AE0BE
:102A20001E4AB2F900201C4BB3F900309A4215DD62
:102A30001A4AB2F90030184AB2F90020921C9342A7
:102A400005DC154AB2F90020144B1A8023E0134A22
:102A50001288921E12B2114B1A801CE00F4AB2F972
:102A600000200D4BB3F900309A4214DA0B4AB2F948
:102A70000020921C084BB3F900309A4205DB064A4D
:102A8000B2F90020054B1A8005E0044A1288921C16
:102A900012B2024B1A80704704000020A8000020E8
:102AA0002E4AB2F90020002A04DA2C4A1288524237
:102AB00011B202E0294AB2F90010294AB2F9002005
:102AC000002A04DA264A1288524210B202E0244A4E
:102AD000B2F90000814205DC204AB2F90020204B07
:102AE0001A803AE01E4AB2F900201C4BB3F90030BC
:102AF0009A4215DD1A4AB2F90030184AB2F900209C
:102B0000921C934205DC154AB2F90020144B1A803E
:102B100023E0134A1288921E12B2114B1A801CE055
:102B20000F4AB2F900200D4BB3F900309A4214DA83
:102B30000B4AB2F90020921C084BB3F900309A42BC
:102B400005DB064AB2F90020054B1A8005E0044A6D
:102B50001288921C12B2024B1A80704706000020A5
:102B6000C200002001F40072B2F5007F00D100BF66
:102B7000CA430280704721B1828942F400528281A7
:102B800004E082894DF6FF731A4082817047024645
:102B90000020B1F5007F00D100BF13880B400BB1BE
:102BA000012000E0002070472DE9F04786B005467F
:102BB0000E460024A24600BFA1460027B08900B1FE
:102BC00000BF2F462C8A4CF6FF700440F088044367
:102BD0002C82AC894EF6F3100440B088318908434A
:102BE000718908430443AC81AC8A4FF6FF4004402E
:102BF000B0890443AC8201A8FEF70EFF1F4887424C
:102C000002D1DDF810A001E0DDF80CA0A88900F4E5
:102C1000004040B10AEBCA0000EB0A1031684900DD
:102C2000B0FBF1F807E00AEBCA0000EB0A103168CC
:102C30008900B0FBF1F86420B8FBF0F00401200932
:102C4000642101FB1089A88900F4004040B13220C2
:102C500000EBC900B0FBF1F000F00700044308E00E
:102C6000322000EB09106421B0FBF1F000F00F00FE
:102C700004432C8106B0BDE8F08700000038014015
:102C8000C1F308028280704700BFFEE71CB5002038
:102C90000190009027E00720FFF78CF801909DF845
:102CA000040000F0100030B110212720FFF7CEF80B
:102CB0004FF0FF301CBD9DF8040000F0200028B14B
:102CC00020212720FFF7C2F80020F3E70120FEF7BC
:102CD000E6FA9DF80000401CC0B20090052802DB17
:102CE0006FF00100E6E7D6E770B504462046FDF731
:102CF000BBFA05464FF08F41FDF778FA70BD000032
:102D00000FB4054B10B503A9044A029800F026F849
:102D100010BC5DF814FB0000F1310008B401002084
:102D20002DE9F04106460F46904686FB0745424690
:102D300020462946FDF718FABDE8F08102E008C8F0
:102D4000121F08C1002AFAD170477047002001E025
:102D500001C1121F002AFBD1704700002DE9FF4F6F
:102D60008DB00F460546002606E025280BD0DDE98C
:102D70000F1290476D1C761C28780028F5D111B0F1
:102D80003046BDE8F08F0024A246A1460122EC495E
:102D900000E0044315F8013F203B02FA03F008422B
:102DA000F7D128782A2810D06FF02F022878A0F1C8
:102DB0003001092914D80AEB8A0102EB410144F0E1
:102DC000020400EB010A6D1CF0E701CF5FEA000A84
:102DD00003D544F40054CAF1000A44F002046D1C07
:102DE00028782E2817D115F8010F44F004042A285A
:102DF0000ED06FF02F022878A0F1300109290AD8EF
:102E000009EB890102EB410100EB01096D1CF2E7BE
:102E100057F8049B6D1C28786C280FD006DC4C28D2
:102E200017D068280DD06A2814D104E0742810D077
:102E30007A280FD10DE044F400140AE044F4801421
:102E400001E044F440146978814202D104F5801411
:102E50006D1C6D1C2A786E2A1FD00CDC632A31D0C1
:102E600004DC002A8BD0582A11D1A3E0642A68D050
:102E7000692A0CD165E0732A2ED004DC6F2A73D046
:102E8000702A04D19BE0752A6FD0782A6ED0104644
:102E9000DDE90F129047761C50E1C4F3025002287E
:102EA00006D0032809D0042801CF09D0066045E1E7
:102EB00001CFF117C0E9006140E101CF06803DE19B
:102EC00006703BE117F8040B8DF8000000208DF828
:102ED0000100EB46012003E057F804BB4FF0FF3040
:102EE00061074FF0000102D40DE008F101018846AE
:102EF00049450FDA8045F8DB1BF808100029F4D1AA
:102F000008E008F1010188468142FADB1BF808104D
:102F10000029F6D1DDE90F23AAEB080081462146FE
:102F200000F036F9304400EB080604E0DDE90F124A
:102F30001BF8010B9047B8F10108F7D2214648462B
:102F4000F7E00A21C4F302534FF0000B0891022B63
:102F500004D001CFC117032B09D00AE0FF1D27F0D1
:102F60000707F7E8020108E032E01FE020E000B2C6
:102F7000C117042B01D140B2C117031E71F1000328
:102F800007DA4FF0000CD0EB0C006CEB01012D23A5
:102F900002E0230504D52B238DF82430012303E020
:102FA000E30701D02023F7E7984658E00A2110E014
:102FB00010210EE010204FF0000B08900CE01021C3
:102FC0004FF0000B44F004044FF00809089103E0AF
:102FD00008214FF0000B0891C4F30253022B04D0D8
:102FE00001CF0021032B06D006E0FF1D27F00707C5
:102FF000F7E8020103E080B2042B00D1C0B24FF029
:10300000000823072BD5702A07D0DDF820C08CF0EC
:10301000100C5CEA0B0C05D00EE040238DF8243038
:10302000012308E050EA010306D030238DF8243054
:103030008DF8252002239846DDF820C08CF0080C7E
:103040005CEA0B0C0BD150EA010301D1630706D5F2
:1030500030238DF824304FF00108A9F10109582AD6
:1030600004D038A20B9208AA0A920BE03AA2F9E720
:103070005B46089AFDF71AF90B9B9B5C0A9A521E55
:103080000A92137050EA0102F2D10A98ADEB0000E7
:1030900000F1200B600702D524F4803401E04FF0EA
:1030A0000109D94502DDA9EB0B0000E0002000EB8F
:1030B0000B0141440890AAEB010AE00306D4DDE9C4
:1030C0000F232146504600F063F806444FF00009F4
:1030D00008E009A911F80900DDE90F12904709F18C
:1030E0000109761CC145F4DBE0030CD5DDE90F23B3
:1030F0002146504600F04CF8064404E0DDE90F128A
:1031000030209047761C0899481E08900029F5DC6D
:1031100008E00A980A990078491C0A91DDE90F1223
:103120009047761CBBF10001ABF1010BF1DC2146AD
:103130005046DDE90F2300F019F806446D1C1BE62C
:10314000092801003031323334353637383961627D
:103150006364656600000000303132333435363741
:103160003839414243444546000000002DE9F04112
:10317000044600251E461746880404D405E0394657
:103180002020B0476D1C641EF9D52846BDE8F081AB
:103190002DE9F041044600251E469046C80301D59E
:1031A000302700E02027880404D505E04146384652
:1031B000B0476D1C641EF9D52846BDE8F0810000BB
:1031C00030B503469818094DA84201D9012030BDF9
:1031D0000AB90120FBE7002404E013F8010B01F811
:1031E000010B641C9442F8D30020F0E700000108B2
:1031F00070B504460D46E1B20548FFF741FD00BF3A
:1032000040210348FFF7C3FC0028F9D0204670BDD9
:103210000048004000F09EFD4FF47A7000F0FEFA86
:1032200000F0B2FC012000F06DFD642000F0F4FB22
:10323000FEF7CCFC4FF4E13000F02AFB4FF4FA40EB
:1032400000F0CCF800F07AFC00F074FC64213E48F9
:1032500000F068FD64213C4800F06CFD64213A48B0
:1032600000F070FD6421394800F05CFD64213748AE
:1032700000F060FD6421354800F064FD002000F09E
:1032800031FD012000F02EFD31A0FFF739FD00BF18
:1032900001212D48FFF7E2F801212C48FFF7DEF865
:1032A00000BF00F093FC10B101202F49087000F01E
:1032B000E9FB2EA0FFF724FD3348018833A0FFF778
:1032C0001FFD3848018838A0FFF71AFD44F2E810C6
:1032D0003B49088000203B4908803B490870012099
:1032E0003A4908702FE03A48007800B30020384986
:1032F0000870FEF7C5FAFFF717F83648007818B9D6
:10330000012000F0EFFC0EE0324890F90000401C74
:1033100048B130480078012804D1FEF759F9FEF78A
:10332000C7FF00E000BFFDF7A9FEFDF74BFE2A48EE
:10333000007840B1002028490870FEF7B9FCFEF77C
:10334000DBF8FDF729FECEE7002C014000340140F8
:10335000BFAAC6F450574D20BBF1C8A1D4CBB7C506
:10336000C6ABD6C30D0A000048000020B9D8B1D5BD
:1033700050574D20D4CBB7C5C6ABD6C3BBF1C8A1FF
:10338000CDEAB3C90D0A00004C01002050686173FA
:1033900065414F6666736574203D20307825303472
:1033A000780D0A004E0100205068617365424F6637
:1033B00066736574203D203078253034780D0A001E
:1033C000120100200E010020180000204000002003
:1033D000600100204E0000206101002010B59CB06B
:1033E000044602F035FB01F0C7F8FE48FFF746F847
:1033F000FD48FFF743F80320ADF824002020ADF886
:10340000260040F2FF10ADF828000020ADF82A0099
:1034100001208DF82C0009A9F248FFF78DFA09A9BF
:10342000F148FFF789FA6020ADF814000120ADF8EB
:1034300016000420ADF818000020ADF81C00ADF80F
:103440001E00ADF82000ADF82200ADF81A0005A965
:10345000E448FFF707F905A9E348FFF703F900205F
:10346000ADF81A0005A9DF48FFF752F905A9DE48B3
:10347000FFF74EF90020ADF81A0005A9D948FFF76B
:10348000A7F905A9D848FFF7A3F90120ADF8160060
:103490000420ADF818004FF4FF70ADF81A0005A92C
:1034A000D048FFF7EFF905A9CF48FFF7EBF94FF444
:1034B0000060ADF804004010ADF806000020ADF843
:1034C00008004020ADF80A000020ADF80C00ADF86F
:1034D0000E00ADF8100001A9C248FEF7A3FF01A934
:1034E000C148FEF79FFF0821BE48FFF707F90821F2
:1034F000BC48FFF75FF90821BA48FFF7B9F908217E
:10350000B848FFF7FDF90821B748FFF7F7F8082199
:10351000B548FFF74FF90821B348FFF7A9F908218B
:10352000B148FFF7EDF9B148FDF7F4FDB0480C9054
:10353000B0480D9000200E901E200F90002010909B
:1035400080201190C000129013902020149000024F
:103550001590002016900CA9A448FDF781FE0121CA
:10356000A248FDF7CBFD0120FDF796FC0020179047
:1035700001208DF860008DF861004FF460201990F3
:1035800000201A9005208DF86C0017A998484C3837
:10359000FDF79CFB4FF48030179001208DF8600000
:1035A0008DF861004FF46020199000201A908DF87A
:1035B0006C0017A99048FDF789FB4FF480301790F5
:1035C00001208DF860008DF861004FF460201990A3
:1035D00000201A908DF86C0017A98848FDF776FB3B
:1035E00007230122102182484C38FDF7E4FB072312
:1035F000022211217E484C38FDF7DDFB0723032210
:103600000A217B484C38FDF7D6FB07230422002112
:1036100077484C38FDF7CFFB072305220421744877
:103620004C38FDF7C8FB002171484C38FDF7B7FB5B
:1036300000216F484C38FDF700FB03216E48FDF771
:10364000AEFB01231A4602216B48FDF767FB0123FD
:1036500002220D216848FDF761FB01230322194670
:103660006548FDF75BFB4FF4E0416348FDF7E5FA81
:1036700003216248FDF793FB01231A460C215F48A2
:10368000FDF74CFB0123022203215C48FDF746FBBA
:10369000012303220B215948FDF740FB0021574825
:1036A000FDF7CBFA012152484C38FDF7A5FA00216D
:1036B0004F484C38FDF7ABFA00214D484C38FDF728
:1036C000B1FA00214C48FDF7A2FA01214A48FDF762
:1036D000A9FA01224FF490614748FDF7EAFA012167
:1036E0004648FDF794FA01214448FDF79BFA012270
:1036F0004FF490614148FDF7DCFA01213C484C3819
:10370000FDF76FFA3A484C38FDF7B1FB00BF384877
:103710004C38FDF7C4FA0028F9D135484C38FDF78C
:10372000B6FB00BF32484C38FDF78FFA0028F9D1BC
:1037300001213148FDF755FA2F48FDF798FB00BFEE
:103740002D48FDF7ACFA0028FAD12B48FDF79FFB76
:1037500000BF2948FDF779FA0028FAD1012127484E
:10376000FDF73FFA2548FDF782FB00BF2348FDF730
:1037700096FA0028FAD12148FDF789FB00BF1F48BF
:10378000FDF763FA0028FAD119484C38FDF77FFBA2
:1037900000BF17484C38FDF758FA0028F9D101212D
:1037A00013484C38FDF768FB01210E48FEF74AFE2E
:1037B00001210D48FEF746FE00210A48FEF74EFEA5
:1037C00000210948FEF74AFE70210648FFF7A5F8D8
:1037D00070210548FFF7A1F84FF4906104484C3878
:1037E0000EE00000002C01400034014008000240BF
:1037F0004C240140E401002000280140003C01402D
:10380000FDF7EAF94FF490610348FDF7E5F902F09E
:1038100009F900201CB010BD003C014070B5014604
:1038200017480068B0FBF1F2B2F1807F01D30120AC
:103830001DE022F07F40401E4FF0E02358615817F2
:103840000F23002807DA1C07260E0E4C00F00F0588
:103850002D1F665503E01C07250E0B4C255400BF99
:1038600000204FF0E023986107201861002010B17C
:103870004FF0FF3070BD054801600020FAE70000FE
:103880008001002018ED00E000E400E05801002075
:1038900010B586B0044601210820FEF777F8012113
:1038A0000846FEF773F801218804FEF74FF84FF43D
:1038B0008060ADF8000003208DF8020018208DF81C
:1038C000030069461B48FDF70BFD4FF40060ADF89F
:1038D000000004208DF8030069461648FDF700FD3E
:1038E00002940020ADF80C00ADF80E00ADF8100009
:1038F000ADF814000C20ADF8120002A90E48FFF735
:1039000053F927208DF8040000208DF805008DF86C
:1039100006008DF8070001A8FDF778FF0121064891
:10392000FFF729F940210448FFF71CF9002006B0F1
:1039300010BD0000000C01400048004010B51021EF
:103940000448FDF7A5FD0446034900F01BF80248B2
:10395000007C10BD001001406801002010B5034834
:10396000FDF792FDC0F3822010BD00000010014061
:1039700010B50348FDF788FDC0F3421010BD0000EC
:10398000000C014018B10A68521C0A6002E00A6883
:10399000521E0A60D1E900239A4203DD4A680A6098
:1039A00001220A618B680A689A4203DA8A680A600F
:1039B00000220A61D1E903325A404A610A69CA60A9
:1039C000704700000448008840F211110843024982
:1039D0000880002070470000202C01400448008827
:1039E00040F211110843024908800020704700008E
:1039F0002034014010B504210648FDF752FD20B1E6
:103A000004210448FDF756FD03E004210148FDF7B9
:103A100053FD10BD000C014010B5044603E040F218
:103A2000E63000F007F8201EA4F101018CB2F6D1B7
:103A300010BD0000F0B5034600224FF0E026756986
:103A40000E4E36680E4FB6FBF7F606FB03F400BFCA
:103A50004FF0E026B1690DE04FF0E026B0698842F2
:103A600008D0884202D20E1A324402E02E1A0E44C6
:103A700032440146A242EFD3F0BD00008001002095
:103A800040420F0010B500210348FEF7E7FC00217B
:103A90000248FEF7E3FC10BD002C01400034014059
:103AA00010B501210148FEF7D9FC10BD002C0140E2
:103AB00010B501210148FEF7D1FC10BD00340140D2
:103AC00070B50025002400BF08E0012000EB440091
:103AD000084931F8100005EB0015641C102CF4DBCC
:103AE0002D11102204492846FFF71AF905462846E9
:103AF00070BD0000E4010020A88B680070B50024B0
:103B0000002500BF06E005EB8500801C074931F861
:103B100010006D1C082DF6DBE4101022044920462D
:103B2000FFF7FEF80446204670BD0000E4010020C7
:103B300066E62A0010B500F06FFD10BD38B5002410
:103B400001211020FDF722FF03208DF80200042040
:103B50008DF803001020ADF8000069460848FDF715
:103B6000BFFB00BF08E010210548FDF791FC0546AA
:103B70000449FFF707FF641C142CF4DB38BD000078
:103B8000001001406801002008B501210C20FDF75C
:103B9000FDFE002000F0A6F80420ADF80000032090
:103BA0008DF8020010208DF8030069460548FDF7E6
:103BB00097FB2020ADF8000069460348FDF790FB15
:103BC00008BD0000000C0140000801402DE9F0474D
:103BD00000250026A8460027A946002420E000BFB3
:103BE000364800780028FBD000203449087034485B
:103BF000B0F9000005443348B0F9000006443248EB
:103C0000B0F9000080443148B0F900000744FFF7E4
:103C100057FF2F49096808442D490860601CC4B249
:103C2000202CDCDBC5F34F102A490880C6F34F1067
:103C300029490880C8F34F1028490880C7F34F105E
:103C4000274908802248006840112149086021481E
:103C50000088B0F5106F04DA1E480088B0F5C06F18
:103C600003DA4FF0FF30BDE8F0871B480088B0F55D
:103C7000106F04DA18480088B0F5C06F02DA6FF0F0
:103C80000100F0E715480088B0F5106F04DA13481A
:103C90000088B0F5C06F02DA4FF0FF30E3E710485C
:103CA0000088B0F5106F04DA0D480088B0F5C06FD9
:103CB00002DA6FF00100D6E70020D4E760010020AF
:103CC000080000200A0000200C0000200E00002048
:103CD000640000204C0100204E0100205001002013
:103CE0005201002010B5044624B104210448FDF718
:103CF000E3FB03E004210248FDF7DCFB10BD0000FC
:103D0000000C014010B5044624B120210448FDF701
:103D1000D3FB03E020210248FDF7CCFB10BD0000DF
:103D20000008014070B504460D4629462046FEF7BE
:103D3000FDFD70BD70B504460D4629462046FEF7D0
:103D4000F7FD70BD70B504460D4629462046FEF7C6
:103D5000F1FD70BD10B5FDF739FE0120FDF7F8FE4D
:103D600000BF2120FDF7C2FE0028FAD01020FDF789
:103D70009DFA0220FDF7A8FA0020FDF7DDFE0020E5
:103D8000FDF7F8FE4FF48060FDF7E8FE4FF4601198
:103D90000020FDF701FF0120FDF7F8FE00BF3920EC
:103DA000FDF7A4FE0028FAD00220FDF703FF00BFB4
:103DB000FDF7BAFE0828FBD101480249086010BD92
:103DC0000090D003800100200A48B0F900000A49A1
:103DD00008800848B0F900000849B1F90010022233
:103DE00002FB010044F6E6114843C01300B2044947
:103DF00008807047AE000020B4000020AC00002016
:103E0000B60000200A48B0F900000A4908800848B6
:103E1000B0F900000849B1F90010022202FB0100CC
:103E200044F6E6114843C01300B2044908807047C5
:103E3000C8000020CE000020C6000020D0000020D6
:103E400030B5164C2488644222B2002A05DC01DB1E
:103E5000002103E04FF0FF3100E00121104C2488E5
:103E60000C4424B20E4D2C802C46248804EBA20472
:103E700023B2184610F5804F04DA0A484FF4404444
:103E80002C8007E0B0F5804F04DD4FF480400446FD
:103E9000034D2C808411044D2C8030BDB8000020CF
:103EA000BC00002000C0FFFFAA00002030B5164C67
:103EB0002488644222B2002A05DC01DB002103E0F1
:103EC0004FF0FF3100E00121104C24880C4424B253
:103ED0000E4D2C802C46248804EBA20423B21846F5
:103EE00010F5804F04DA0A484FF440442C8007E074
:103EF000B0F5804F04DD4FF480400446034D2C8024
:103F00008411044D2C8030BDD2000020D60000204A
:103F100000C0FFFFC400002000B519480088FDF76D
:103F2000D5FA1849088016480088FDF7C7FA1649DF
:103F300008801648B0F90000B1F900104843144950
:103F4000B1F900100F4AB2F9002001FB1200C013B2
:103F500000B2104908800E48B0F900000A49B1F9D2
:103F6000001048430949B1F90010064AB2F900208F
:103F700001FB0200C01300B20749088000BD000029
:103F80000C010020BE000020C0000020AA0000207C
:103F9000A8000020B0000020B200002000B51948A1
:103FA0000088FDF793FA1849088016480088FDF745
:103FB00085FA164908801648B0F90000B1F90010DA
:103FC00048431449B1F900100F4AB2F9002001FB2F
:103FD0001200C01300B2104908800E48B0F900006A
:103FE0000A49B1F9001048430949B1F90010064ADD
:103FF000B2F9002001FB0200C01300B2074908809B
:1040000000BD000040010020D8000020DA000020A0
:10401000C4000020C2000020CA000020CC00002004
:10402000002003490880034908800349088070473D
:10403000BC000020B8000020AA0000200020034996
:10404000088003490880034908807047D600002093
:10405000D2000020C40000201E49B1F900101E4A01
:10406000B2F9002051431D4AB2F900201C4BB3F9AC
:10407000003002FB0311C8131A49B1F9001044F6CD
:104080005D72514343F2A30202FB0011C91309B24E
:10409000144A11801149B1F900100F4AB2F90020F9
:1040A00051430C4AB2F900200D4BB3F9003002FB2A
:1040B0001311C8130B49B1F9001044F65D72514356
:1040C00043F2A30202FB0011C91309B2064A118090
:1040D00070470000B4000020C0000020B60000209F
:1040E000BE000020B8000020BA0000201E49B1F92F
:1040F00000101E4AB2F9002051431D4AB2F90020B7
:104100001C4BB3F9003002FB0311C8131A49B1F973
:10411000001044F65D72514343F2A30202FB00110A
:10412000C91309B2144A11801149B1F900100F4A9C
:10413000B2F9002051430C4AB2F900200D4BB3F9FB
:10414000003002FB1311C8130B49B1F9001044F6FB
:104150005D72514343F2A30202FB0011C91309B27D
:10416000064A118070470000CE000020DA000020CF
:10417000D0000020D8000020D2000020D400002071
:104180002DE9F043DFF8E481B8F90060DFF8E08161
:10419000B8F9008040F6DB5908FB09F8DFF8CC914C
:1041A000B9F80090C9EBE8280FFA88F7DFF8C0816A
:1041B000B8F9008040F6DB5908FB09F8DFF8AC914C
:1041C000B9F8009009EBE828C8F100080FFA88FC5C
:1041D0004FF00008DFF89C9189F80080002E03DD85
:1041E0004FF0010889F80080002F0BDDDFF8848193
:1041F00098F8008008F102084FFA88F8DFF8749107
:1042000089F80080BCF1000F0BDDDFF8688198F8B9
:10421000008008F104084FFA88F8DFF8589189F80F
:104220000080C6EB06284FEAA820CCF100084FEA30
:104230006808C8EB08284FEAA821C7F100084FEA30
:104240006808C8EB08284FEAA822DFF8288198F907
:104250000080B8F1070F6DD2DFE808F00408192AD2
:104260003A4A5B00FF23FF24FF2567E0C2F1FF0805
:1042700088440FFA88F302F1FF0888440FFA88F4A3
:10428000C2F1FF08A8EB01080FFA88F556E0C0F16B
:10429000FF0888440FFA88F3C1F1FF0880440FFA41
:1042A00088F4C1F1FF08A8EB00080FFA88F545E093
:1042B000C2F1FF0880440FFA88F302F1FF0880443E
:1042C0000FFA88F4C0F1FF0890440FFA88F535E042
:1042D000C2F1FF0880440FFA88F302F1FF0880441E
:1042E0000FFA88F4C0F1FF0890440FFA88F525E032
:1042F000C0F1FF0888440FFA88F3C1F1FF08804439
:104300000FFA88F4C1F1FF08A8EB00080FFA88F54E
:1043100014E0C2F1FF0888440FFA88F302F1FF08A5
:1043200088440FFA88F4C2F1FF08A8EB01080FFADD
:1043300088F503E0FF23FF24FF2500BF00BF002B0B
:1043400000DA0023002C00DA0024002D00DA00251A
:10435000DFF82490A9F8003009F10409A9F8004019
:1043600009F10409A9F80050BDE8F083B20000206B
:10437000B0000020DC000020342C01402DE9F04387
:10438000DFF8E481B8F90060DFF8E081B8F9008077
:1043900040F6DB5908FB09F8DFF8CC91B9F800903A
:1043A000C9EBE8280FFA88F7DFF8C081B8F9008078
:1043B00040F6DB5908FB09F8DFF8AC91B9F800903A
:1043C00009EBE828C8F100080FFA88FC4FF0000854
:1043D000DFF89C9189F80080002E03DD4FF0010882
:1043E00089F80080002F0BDDDFF8848198F80080C9
:1043F00008F102084FFA88F8DFF8749189F8008014
:10440000BCF1000F0BDDDFF8688198F8008008F13F
:1044100004084FFA88F8DFF8589189F80080C6EB55
:1044200006284FEAA820CCF100084FEA6808C8EB3C
:1044300008284FEAA821C7F100084FEA6808C8EB2E
:1044400008284FEAA822DFF8288198F90080B8F1FF
:10445000070F6DD2DFE808F00408192A3A4A5B001A
:10446000FF23FF24FF2567E0C2F1FF0888440FFA0D
:1044700088F302F1FF0888440FFA88F4C2F1FF08BC
:10448000A8EB01080FFA88F556E0C0F1FF08884450
:104490000FFA88F3C1F1FF0880440FFA88F4C1F1E4
:1044A000FF08A8EB00080FFA88F545E0C2F1FF0805
:1044B00080440FFA88F302F1FF0880440FFA88F471
:1044C000C0F1FF0890440FFA88F535E0C2F1FF080B
:1044D00080440FFA88F302F1FF0880440FFA88F451
:1044E000C0F1FF0890440FFA88F525E0C0F1FF08FD
:1044F00088440FFA88F3C1F1FF0880440FFA88F46A
:10450000C1F1FF08A8EB00080FFA88F514E0C2F12A
:10451000FF0888440FFA88F302F1FF0888440FFA75
:1045200088F4C2F1FF08A8EB01080FFA88F503E050
:10453000FF23FF24FF2500BF00BF002B00DA00236C
:10454000002C00DA0024002D00DA0025DFF824908A
:10455000A9F8003009F10409A9F8004009F104099B
:10456000A9F80050BDE8F083CC000020CA0000206C
:10457000DD0000203434014008B51F20ADF80000F4
:1045800000208DF8030069462048FCF7A9FE0F20A3
:10459000ADF8000000208DF8030069461C48FCF7C8
:1045A0009FFE18208DF8030003208DF802004FF4C1
:1045B000F060ADF8000069461448FCF791FE4EF239
:1045C0000300ADF8000069461248FCF789FE4FF47D
:1045D000E070ADF8000069460D48FCF781FE4FF42D
:1045E0008050ADF8000048208DF803006946094866
:1045F000FCF776FE4020ADF8000048208DF803005F
:1046000069460248FCF76CFE08BD00000008014046
:1046100000100140000C014008B501211020FDF7F9
:10462000B5F94FF4E050ADF8000048208DF80300D4
:1046300003208DF8020069460848FCF751FEE0208F
:10464000ADF8000048208DF8030003208DF802002B
:1046500069460348FCF744FE08BD00000010014015
:10466000000C014010B5FE48008840F6FC2188424D
:1046700004DAFB480088401CF9490880F8480088A3
:1046800040F6FC2188420ADB44F2E810F549088034
:104690000020F5490870F5490870F5490870F1489F
:1046A000B0F9000040F68501884206DCEC4800883D
:1046B00000EB8000491E884203DDEE480088EE4989
:1046C0000880E848B0F9000041F2DB11884210DCB4
:1046D000E348008800EB40004000884209DCE748DE
:1046E0000078062819DB0020E5490870E5490870C4
:1046F00013E0DC48B0F9000041F2DB1188420CDB2A
:10470000D748008800EB40004000884205DB0120CC
:10471000DB4908700020D9490870DB480078002880
:1047200063D0DA480078062832D1D34800884FF6A3
:10473000FF7188422CD0D6480078A8B1CE480088B6
:10474000D4490988401AD4490988884204DCCA48F7
:104750000088D1490880A2E0CF480088CD49098867
:104760000844CD4908809AE0CA4800884FF6FF7196
:10477000081AC9490988884202DA0120C449087028
:10478000C5480088C34909880844C349088086E0B1
:10479000C248007898B1BF4800884FF6FF71081AE8
:1047A000BD490988884202DA0020BC490870BA482D
:1047B0000088B84909880844B74908806FE0AE48C6
:1047C0000088B4490988401AB3490988884204DC42
:1047D000A9480088B049088061E0AF480088AD4929
:1047E00009880844AC49088059E0A84800780128A5
:1047F0002CD1A148008848B3A5480078A8B19E48AC
:104800000088A44909880844A3490988884204DB30
:1048100099480088A049088041E09F4800889D4948
:104820000988401A9C49088039E09B4800889949CA
:104830000988884202DA0120954908709648008864
:1048400094490988401A9449088028E093480078E0
:1048500080B1914800888F490988884202DA002097
:104860008E4908708C4800888A490988401A8A490C
:10487000088014E0804800888649098808448649F1
:104880000988884204DB7C4800888349088006E068
:10489000814800887F490988401A7F490880FFF7CE
:1048A0005DF87F49087008460078072802D008465E
:1048B000007868B97B4800781E280CDA79480078BF
:1048C000401C78490870784800787549087002E003
:1048D000002074490870744800787149097888424A
:1048E00072D000206D49087001205F4908706F4840
:1048F0006B490978405C65490978401A40B26C49B7
:10490000087008460078012804D0084690F9000095
:10491000401D18B901205C4908700BE0644890F90B
:104920000000401C18B162480078052802D1002020
:10493000554908705F4800785349097888420AD081
:1049400044F2E81047490880002047490870474969
:104950000870474908704C48007856490870474825
:104960000078062804DA45480078401C434908705E
:104970003B48008850493E4A127821F81200002036
:10498000374908803948007878B10021002006E0D6
:10499000494A32F810200A4491B2421CD0B206288B
:1049A000F6DB0AB22F4B1A801DE02F48007860B169
:1049B00041482F49097830F8110000EB40004000D1
:1049C00000B22849088007E0DAE244F2E8102549FD
:1049D000088001202A49087025480078052802D15E
:1049E00001202249087022480078401CC0B22049AA
:1049F0000870062801DB002008701A48B0F9000092
:104A00002E2802DA2E2017490880284824490978E0
:104A1000405C1E49087022480078234908701B48F2
:104A2000007800287BD018480078002878D01748F4
:104A30000078072859D2DFE800F0D80459748DA611
:104A4000BF0041F255501D49088000201C490880D4
:104A50004EF616401B49088041F2E9301A4935E00C
:104A6000F000002012010020EB000020E8000020F0
:104A7000E9000020FA00002004010020EF000020DF
:104A80001001002006010020ED000020E7000020BA
:104A9000FE0000200801002000010020EA000020A4
:104AA000E4000020E6000020E50000207862000815
:104AB000EC000020EE000020CC010020F2000020DD
:104AC000F4000020F6000020F8000020088042F6E4
:104AD000AA20F849088043F69360F7490880F74810
:104AE000007810B90120F64908707FE043F6FF70A6
:104AF000F449088042F6AA20F349088041F2C160D7
:104B0000F249088043F69360F149088045F2555018
:104B1000E849088046F63E10E749088066E0F5E17E
:104B20006EE046F6AA20E749088045F25550E6496E
:104B3000088044F26C10E549088046F63E10E449CE
:104B400008804FF40040DB49088049F2E930DA4937
:104B500008804BE049F25550DA4908804FF4004094
:104B6000D949088046F61740D849088049F2E9300B
:104B7000D74908804AF6AA20CE4908804BF69360B0
:104B8000CD49088032E04BF6FF70CE4908804AF6E6
:104B9000AA20CD49088049F2C160CC4908804BF673
:104BA0009360CB4908804DF25550C24908804EF6BB
:104BB0003E10C149088019E04EF6AA20C14908807C
:104BC0004DF25550C04908804CF26C10BF49088026
:104BD0004EF63E10BE4908804FF6FF70B54908807A
:104BE00041F2E930B449088000E000BF00BFB64898
:104BF0000088B8490988401A00B2B7490880ADE07A
:104C0000B648007807281BD2DFE800F09E041B346A
:104C10004D667F0041F25550AA4908804000AA49DC
:104C2000088041F2C160A949088043F69360A84911
:104C3000088000209F4908804EF616409E49088053
:104C400083E043F6FF709F49088045F255509E4926
:104C5000088044F26C109D49088046F63E109C493D
:104C6000088042F6AA209349088041F2C160924927
:104C700008806AE046F6AA20924908804FF4004076
:104C80009149088046F617409049088049F2E9307A
:104C90008F49088045F255508649088044F26C10CF
:104CA0008549088051E049F25550864908804AF606
:104CB000AA208549088049F2C160844908804BF6E2
:104CC0009360834908804FF400407A49088046F693
:104CD00017407949088038E04BF6FF707949088021
:104CE0004DF25550784908804CF26C107749088095
:104CF0004EF63E10764908804AF6AA206D49088093
:104D000049F2C1606C4908801FE04EF6AA206D4947
:104D100008804FF6FF706C4908804EF616406B49CC
:104D2000088041F2E9306A4908804DF255506149E6
:104D300008804CF26C10604908806048007810B917
:104D400001205F49087000E000BF00BF6148008893
:104D50005D490988401A00B25F4908806048B0F98F
:104D6000000040F6850188426FDC5E48007800282C
:104D70006BD0514800885C4908805C480078E8B3F3
:104D800056480078012822D14C48007878B1514823
:104D900000884F490988884208DD4B4800884D4902
:104DA000088000204C49088045490870BCE049480B
:104DB000008846490988884208DA434800884549FE
:104DC00008800020444908803D490870ACE0434811
:104DD000007806280AD14248B0F9000040F6850163
:104DE000884203DD4FF6FF703F490880394800884C
:104DF00037490988884207DC364800E00EE0008821
:104E000032490988884208DA2F48008831490880E9
:104E10000020314908802A49087085E02F48007831
:104E2000062823D12548007880B12A4800882749E0
:104E30000988884278DA24480088264908800020BA
:104E4000254908801E4908706EE051E0214800881D
:104E50001F490988884267DD1B4800881D49088072
:104E600000201D490880164908705DE01B48007845
:104E7000012809D11A48B0F9000040F6850188429E
:104E800002DD00201849088012480088104909886E
:104E9000884205DC0F4800880C490988884243DABB
:104EA000094800880B49088000200B490880044904
:104EB000087039E0FA000020FC000020FE0000200D
:104EC000EA000020F2000020F4000020F60000209C
:104ED000F80000200001002002010020E70000206F
:104EE00012010020E800002004010020ED00002055
:104EF000414800884149088041480088414908806C
:104F0000002041490880414908700DE001204049D6
:104F1000087000BF00213F48FDF7A0FA00213E487D
:104F2000FDF79CFA00BF00BF00203C49B1F900101A
:104F300040F68502914206DC3849B1F90010384A42
:104F40001288881A00E000203449B1F900100144A9
:104F50002D4AB2F900204FF6FF731A4402EB6101AB
:104F60002E4AB2F90020024491FBF2F12D4A118041
:104F700000212D4A117029490988294A118000BF52
:104F80002A48007818B12A4800881C4908801B4824
:104F90000088284908802548007838B108460088EC
:104FA00041F27C2108442349088010E0224800781F
:104FB00038B12048008841F2C16108441D49088089
:104FC00005E01C48008800F637601A49088013493C
:104FD000B1F90010194A92FBF1F108B20A2800DA7F
:104FE00000201549097821B9414209B2144A1180BB
:104FF00001E01349088010BDF400002000010020EA
:10500000FA0000200401002002010020EA00002034
:1050100011010020002C0140003401401201002049
:105020000A01002008010020FE00002010010020DD
:10503000F20000200C010020ED00002000770100AC
:105040000E01002010B5FE48008840F6FC21884281
:1050500004DAFB480088401CF9490880F8480088B9
:1050600040F6FC2188420ADB44F2E810F54908804A
:105070000020F5490870F5490870F5490870F148B5
:10508000B0F9000040F68501884206DCEC48008853
:1050900000EB8000491E884203DDEE480088EE499F
:1050A0000880E848B0F9000041F2DB11884210DCCA
:1050B000E348008800EB40004000884209DCE748F4
:1050C0000078062819DB0020E5490870E5490870DA
:1050D00013E0DC48B0F9000041F2DB1188420CDB40
:1050E000D748008800EB40004000884205DB0120E3
:1050F000DB4908700020D9490870DB480078002897
:1051000063D0DA480078062832D1D34800884FF6B9
:10511000FF7188422CD0D6480078A8B1CE480088CC
:10512000D4490988401AD4490988884204DCCA480D
:105130000088D1490880A2E0CF480088CD4909887D
:105140000844CD4908809AE0CA4800884FF6FF71AC
:10515000081AC9490988884202DA0120C44908703E
:10516000C5480088C34909880844C349088086E0C7
:10517000C248007898B1BF4800884FF6FF71081AFE
:10518000BD490988884202DA0020BC490870BA4843
:105190000088B84909880844B74908806FE0AE48DC
:1051A0000088B4490988401AB3490988884204DC58
:1051B000A9480088B049088061E0AF480088AD493F
:1051C00009880844AC49088059E0A84800780128BB
:1051D0002CD1A148008848B3A5480078A8B19E48C2
:1051E0000088A44909880844A3490988884204DB47
:1051F00099480088A049088041E09F4800889D495F
:105200000988401A9C49088039E09B4800889949E0
:105210000988884202DA012095490870964800887A
:1052200094490988401A9449088028E093480078F6
:1052300080B1914800888F490988884202DA0020AD
:105240008E4908708C4800888A490988401A8A4922
:10525000088014E080480088864909880844864907
:105260000988884204DB7C4800888349088006E07E
:10527000814800887F490988401A7F490880FEF7E5
:1052800077FB7F49087008460078072802D0084657
:10529000007868B97B4800781E280CDA79480078D5
:1052A000401C78490870784800787549087002E019
:1052B0000020744908707448007871490978884260
:1052C00072D000206D49087001205F4908706F4856
:1052D0006B490978405C65490978401A40B26C49CD
:1052E000087008460078012804D0084690F90000AC
:1052F000401D18B901205C4908700BE0644890F922
:105300000000401C18B162480078052802D1002036
:10531000554908705F4800785349097888420AD097
:1053200044F2E8104749088000204749087047497F
:105330000870474908704C4800785649087047483B
:105340000078062804DA45480078401C4349087074
:105350003B48008850493E4A127821F8120000204C
:10536000374908803948007878B10021002006E0EC
:10537000494A32F810200A4491B2421CD0B20628A1
:10538000F6DB0AB22F4B1A801DE02F48007860B17F
:1053900041482F49097830F8110000EB40004000E7
:1053A00000B22849088007E0DAE244F2E810254913
:1053B000088001202A49087025480078052802D174
:1053C00001202249087022480078401CC0B22049C0
:1053D0000870062801DB002008701A48B0F90000A8
:1053E0002E2802DA2E2017490880284824490978F7
:1053F000405C1E49087022480078234908701B4809
:10540000007800287BD018480078002878D017480A
:105410000078072859D2DFE800F0D80459748DA627
:10542000BF0041F255501D49088000201C490880EA
:105430004EF616401B49088041F2E9301A4935E022
:1054400024010020460100201F0100201C01002033
:105450001D0100202E010020380100202301002022
:10546000440100203A010020210100201B010020FE
:10547000320100203C010020340100201E010020E8
:10548000180100201A010020190100208062000884
:105490002001002022010020D80100202601002048
:1054A000280100202A0100202C010020088042F65B
:1054B000AA20F849088043F69360F7490880F74826
:1054C000007810B90120F64908707FE043F6FF70BC
:1054D000F449088042F6AA20F349088041F2C160ED
:1054E000F249088043F69360F149088045F255502F
:1054F000E849088046F63E10E749088066E0F5E195
:105500006EE046F6AA20E749088045F25550E64984
:10551000088044F26C10E549088046F63E10E449E4
:1055200008804FF40040DB49088049F2E930DA494D
:1055300008804BE049F25550DA4908804FF40040AA
:10554000D949088046F61740D849088049F2E93021
:10555000D74908804AF6AA20CE4908804BF69360C6
:10556000CD49088032E04BF6FF70CE4908804AF6FC
:10557000AA20CD49088049F2C160CC4908804BF689
:105580009360CB4908804DF25550C24908804EF6D1
:105590003E10C149088019E04EF6AA20C149088092
:1055A0004DF25550C04908804CF26C10BF4908803C
:1055B0004EF63E10BE4908804FF6FF70B549088090
:1055C00041F2E930B449088000E000BF00BFB648AE
:1055D0000088B8490988401A00B2B7490880ADE090
:1055E000B648007807281BD2DFE800F09E041B3481
:1055F0004D667F0041F25550AA4908804000AA49F3
:10560000088041F2C160A949088043F69360A84927
:10561000088000209F4908804EF616409E49088069
:1056200083E043F6FF709F49088045F255509E493C
:10563000088044F26C109D49088046F63E109C4953
:10564000088042F6AA209349088041F2C16092493D
:1056500008806AE046F6AA20924908804FF400408C
:105660009149088046F617409049088049F2E93090
:105670008F49088045F255508649088044F26C10E5
:105680008549088051E049F25550864908804AF61C
:10569000AA208549088049F2C160844908804BF6F8
:1056A0009360834908804FF400407A49088046F6A9
:1056B00017407949088038E04BF6FF707949088037
:1056C0004DF25550784908804CF26C1077490880AB
:1056D0004EF63E10764908804AF6AA206D490880A9
:1056E00049F2C1606C4908801FE04EF6AA206D495E
:1056F00008804FF6FF706C4908804EF616406B49E3
:10570000088041F2E9306A4908804DF255506149FC
:1057100008804CF26C10604908806048007810B92D
:1057200001205F49087000E000BF00BF61480088A9
:105730005D490988401A00B25F4908806048B0F9A5
:10574000000040F6850188426FDC5E480078002842
:105750006BD0514800885C4908805C480078E8B309
:1057600056480078012822D14C48007878B1514839
:1057700000884F490988884208DD4B4800884D4918
:10578000088000204C49088045490870BCE0494821
:10579000008846490988884208DA43480088454914
:1057A00008800020444908803D490870ACE0434827
:1057B000007806280AD14248B0F9000040F6850179
:1057C000884203DD4FF6FF703F4908803948008862
:1057D00037490988884207DC364800E00EE0008837
:1057E00032490988884208DA2F4800883149088000
:1057F0000020314908802A49087085E02F48007848
:10580000062823D12548007880B12A4800882749F6
:105810000988884278DA24480088264908800020D0
:10582000254908801E4908706EE051E02148008833
:105830001F490988884267DD1B4800881D49088088
:1058400000201D490880164908705DE01B4800785B
:10585000012809D11A48B0F9000040F685018842B4
:1058600002DD002018490880124800881049098884
:10587000884205DC0F4800880C490988884243DAD1
:10588000094800880B49088000200B49088004491A
:10589000087039E02E010020300100203201002084
:1058A0001E01002026010020280100202A010020DE
:1058B0002C01002034010020360100201B010020B3
:1058C000460100201C010020380100202101002099
:1058D0004148008841490880414800884149088082
:1058E000002041490880414908700DE001204049ED
:1058F000087000BF00213F48FCF7B0FD00213E4882
:10590000FCF7ACFD00BF00BF00203C49B1F900101E
:1059100040F68502914206DC3849B1F90010384A58
:105920001288881A00E000203449B1F900100144BF
:105930002D4AB2F900204FF6FF731A4402EB6101C1
:105940002E4AB2F90020024491FBF2F12D4A118057
:1059500000212D4A117029490988294A118000BF68
:105960002A48007818B12A4800881C4908801B483A
:105970000088284908802548007838B10846008802
:1059800041F27C2108442349088010E02248007835
:1059900038B12048008841F2C16108441D4908809F
:1059A00005E01C48008800F637601A490880134952
:1059B000B1F90010194A92FBF1F108B20A2800DA95
:1059C00000201549097821B9414209B2144A1180D1
:1059D00001E01349088010BD280100203401002097
:1059E0002E01002038010020360100201E01002079
:1059F00045010020002C01400034014046010020F8
:105A00003E0100203C010020320100204401002022
:105A10002601002040010020210100200077010024
:105A20004201002008B512208DF8000000208DF8FA
:105A300001008DF8020001208DF803006846FBF795
:105A4000E5FE2F208DF800006846FBF7DFFE08BD5D
:105A500010B5012142F60D00FBF798FF4FF480408E
:105A6000FBF758FF01210846FBF760FF012148F2D0
:105A70001C60FBF78BFF10BD00006400C9002D0106
:105A80009201F7015B02C00224038903EE03520472
:105A9000B7041B058005E4054906AD061207760725
:105AA000DB073F08A40808096C09D109350A990ADF
:105AB000FE0A620BC60B2A0C8E0CF20C570DBB0DA6
:105AC0001F0E830EE70E4B0FAE0F12107610DA107A
:105AD0003E11A11105126912CC1230139313F61363
